{
  "_format": "hh-sol-artifact-1",
  "contractName": "ReducedManager",
  "sourceName": "contracts/ReducedManager.sol",
  "abi": [
    {
      "inputs": [
        {
          "internalType": "address",
          "name": "_safeToken",
          "type": "address"
        },
        {
          "internalType": "address",
          "name": "_insurancePool",
          "type": "address"
        }
      ],
      "stateMutability": "nonpayable",
      "type": "constructor"
    },
    {
      "inputs": [],
      "name": "ClaimDoesNotExist",
      "type": "error"
    },
    {
      "inputs": [],
      "name": "ClaimPayFailed",
      "type": "error"
    },
    {
      "inputs": [],
      "name": "PremiumPaymentFailed",
      "type": "error"
    },
    {
      "anonymous": false,
      "inputs": [
        {
          "indexed": true,
          "internalType": "uint256",
          "name": "policyId",
          "type": "uint256"
        },
        {
          "indexed": false,
          "internalType": "address",
          "name": "buyer",
          "type": "address"
        },
        {
          "indexed": false,
          "internalType": "string",
          "name": "description",
          "type": "string"
        }
      ],
      "name": "ClaimCreated",
      "type": "event"
    },
    {
      "anonymous": false,
      "inputs": [
        {
          "indexed": true,
          "internalType": "uint256",
          "name": "policyId",
          "type": "uint256"
        },
        {
          "indexed": false,
          "internalType": "address",
          "name": "owner",
          "type": "address"
        },
        {
          "indexed": false,
          "internalType": "uint256",
          "name": "claimAmount",
          "type": "uint256"
        }
      ],
      "name": "PolicyClaimed",
      "type": "event"
    },
    {
      "anonymous": false,
      "inputs": [
        {
          "indexed": true,
          "internalType": "uint256",
          "name": "policyId",
          "type": "uint256"
        },
        {
          "indexed": false,
          "internalType": "address",
          "name": "owner",
          "type": "address"
        },
        {
          "indexed": false,
          "internalType": "uint256",
          "name": "coverageAmount",
          "type": "uint256"
        },
        {
          "indexed": false,
          "internalType": "uint256",
          "name": "premium",
          "type": "uint256"
        },
        {
          "indexed": false,
          "internalType": "uint256",
          "name": "expirationDate",
          "type": "uint256"
        }
      ],
      "name": "PolicyCreated",
      "type": "event"
    },
    {
      "anonymous": false,
      "inputs": [
        {
          "indexed": true,
          "internalType": "uint256",
          "name": "policyId",
          "type": "uint256"
        },
        {
          "indexed": false,
          "internalType": "address",
          "name": "buyer",
          "type": "address"
        }
      ],
      "name": "PolicyPurchased",
      "type": "event"
    },
    {
      "anonymous": false,
      "inputs": [
        {
          "indexed": true,
          "internalType": "uint256",
          "name": "policyId",
          "type": "uint256"
        },
        {
          "indexed": false,
          "internalType": "address",
          "name": "buyer",
          "type": "address"
        },
        {
          "indexed": false,
          "internalType": "uint256",
          "name": "amountPaid",
          "type": "uint256"
        }
      ],
      "name": "PremiumPaid",
      "type": "event"
    },
    {
      "inputs": [
        {
          "internalType": "address",
          "name": "",
          "type": "address"
        },
        {
          "internalType": "uint256",
          "name": "",
          "type": "uint256"
        }
      ],
      "name": "addressToPolicy",
      "outputs": [
        {
          "internalType": "uint256",
          "name": "",
          "type": "uint256"
        }
      ],
      "stateMutability": "view",
      "type": "function"
    },
    {
      "inputs": [
        {
          "internalType": "uint256",
          "name": "policyId",
          "type": "uint256"
        },
        {
          "internalType": "string",
          "name": "_documentIPFSHash",
          "type": "string"
        },
        {
          "internalType": "string",
          "name": "_description",
          "type": "string"
        }
      ],
      "name": "claimPolicy",
      "outputs": [],
      "stateMutability": "nonpayable",
      "type": "function"
    },
    {
      "inputs": [
        {
          "internalType": "uint256",
          "name": "",
          "type": "uint256"
        }
      ],
      "name": "claims",
      "outputs": [
        {
          "internalType": "uint256",
          "name": "claimId",
          "type": "uint256"
        },
        {
          "internalType": "uint256",
          "name": "policyId",
          "type": "uint256"
        },
        {
          "internalType": "bool",
          "name": "isVerified",
          "type": "bool"
        },
        {
          "internalType": "bool",
          "name": "isPaid",
          "type": "bool"
        },
        {
          "internalType": "address",
          "name": "buyerAddress",
          "type": "address"
        },
        {
          "internalType": "string",
          "name": "documentIPFSHash",
          "type": "string"
        },
        {
          "internalType": "string",
          "name": "description",
          "type": "string"
        }
      ],
      "stateMutability": "view",
      "type": "function"
    },
    {
      "inputs": [
        {
          "internalType": "string",
          "name": "_title",
          "type": "string"
        },
        {
          "internalType": "uint256",
          "name": "coverageAmount",
          "type": "uint256"
        },
        {
          "internalType": "string",
          "name": "_description",
          "type": "string"
        },
        {
          "internalType": "uint256",
          "name": "expirationDate",
          "type": "uint256"
        },
        {
          "internalType": "string",
          "name": "coverageType",
          "type": "string"
        }
      ],
      "name": "createPolicy",
      "outputs": [
        {
          "internalType": "uint256",
          "name": "",
          "type": "uint256"
        }
      ],
      "stateMutability": "nonpayable",
      "type": "function"
    },
    {
      "inputs": [],
      "name": "getTotallengthOfPolicies",
      "outputs": [
        {
          "internalType": "uint256",
          "name": "",
          "type": "uint256"
        }
      ],
      "stateMutability": "view",
      "type": "function"
    },
    {
      "inputs": [],
      "name": "insurancePool",
      "outputs": [
        {
          "internalType": "contract IInsurancePool",
          "name": "",
          "type": "address"
        }
      ],
      "stateMutability": "view",
      "type": "function"
    },
    {
      "inputs": [],
      "name": "nextClaimId",
      "outputs": [
        {
          "internalType": "uint256",
          "name": "",
          "type": "uint256"
        }
      ],
      "stateMutability": "view",
      "type": "function"
    },
    {
      "inputs": [],
      "name": "nextPolicyId",
      "outputs": [
        {
          "internalType": "uint256",
          "name": "",
          "type": "uint256"
        }
      ],
      "stateMutability": "view",
      "type": "function"
    },
    {
      "inputs": [
        {
          "internalType": "uint256",
          "name": "",
          "type": "uint256"
        }
      ],
      "name": "policies",
      "outputs": [
        {
          "internalType": "uint256",
          "name": "id",
          "type": "uint256"
        },
        {
          "internalType": "address",
          "name": "owner",
          "type": "address"
        },
        {
          "internalType": "string",
          "name": "title",
          "type": "string"
        },
        {
          "internalType": "string",
          "name": "description",
          "type": "string"
        },
        {
          "internalType": "uint256",
          "name": "coverageAmount",
          "type": "uint256"
        },
        {
          "internalType": "uint256",
          "name": "premium",
          "type": "uint256"
        },
        {
          "internalType": "uint256",
          "name": "expirationDate",
          "type": "uint256"
        },
        {
          "internalType": "bool",
          "name": "isActive",
          "type": "bool"
        },
        {
          "internalType": "string",
          "name": "coverageType",
          "type": "string"
        },
        {
          "internalType": "uint256",
          "name": "nextPremiumDate",
          "type": "uint256"
        }
      ],
      "stateMutability": "view",
      "type": "function"
    },
    {
      "inputs": [
        {
          "internalType": "uint256",
          "name": "policyId",
          "type": "uint256"
        }
      ],
      "name": "purchasePolicy",
      "outputs": [],
      "stateMutability": "payable",
      "type": "function"
    },
    {
      "inputs": [],
      "name": "safeToken",
      "outputs": [
        {
          "internalType": "contract IToken",
          "name": "",
          "type": "address"
        }
      ],
      "stateMutability": "view",
      "type": "function"
    },
    {
      "inputs": [
        {
          "internalType": "uint256",
          "name": "claimId",
          "type": "uint256"
        }
      ],
      "name": "verifyClaim",
      "outputs": [],
      "stateMutability": "nonpayable",
      "type": "function"
    }
  ],
  "bytecode": "0x60c0604052348015600f57600080fd5b506040516113ab3803806113ab833981016040819052602c91605d565b6001600160a01b039182166080521660a052608b565b80516001600160a01b0381168114605857600080fd5b919050565b60008060408385031215606f57600080fd5b6076836042565b91506082602084016042565b90509250929050565b60805160a0516112e06100cb600039600081816101a6015281816102f9015281816109b40152610a9e01526000818160de015261032b01526112e06000f3fe6080604052600436106100c75760003560e01c8063bb1e110d11610074578063c1260c9a1161004e578063c1260c9a1461024c578063cad0b8db1461025f578063d3e894831461027557600080fd5b8063bb1e110d146101ea578063beac7cc41461020a578063c0d7e2b61461022c57600080fd5b8063a888c2cd116100a5578063a888c2cd14610161578063ab2adc0014610194578063acd0b57d146101c857600080fd5b80634b3fd05a146100cc5780636ba357e51461011d578063a0021cf11461014b575b600080fd5b3480156100d857600080fd5b506101007f000000000000000000000000000000000000000000000000000000000000000081565b6040516001600160a01b0390911681526020015b60405180910390f35b34801561012957600080fd5b5061013d610138366004610da0565b6102ab565b604051908152602001610114565b34801561015757600080fd5b5061013d60045481565b34801561016d57600080fd5b5061018161017c366004610e59565b6105ed565b6040516101149796959493929190610eb8565b3480156101a057600080fd5b506101007f000000000000000000000000000000000000000000000000000000000000000081565b3480156101d457600080fd5b503360009081526002602052604090205461013d565b3480156101f657600080fd5b5061013d610205366004610f16565b61074b565b34801561021657600080fd5b5061022a610225366004610f4e565b61077c565b005b34801561023857600080fd5b5061022a610247366004610e59565b610936565b61022a61025a366004610e59565b610a81565b34801561026b57600080fd5b5061013d60035481565b34801561028157600080fd5b50610295610290366004610e59565b610b60565b6040516101149a99989796959493929190610fcd565b60008063bbf81e006102bd4287611067565b6102c88a6002611080565b6102d29190611080565b6102dc9190611097565b6040516323b872dd60e01b81523360048201526001600160a01b037f000000000000000000000000000000000000000000000000000000000000000081166024830152604482018390529192507f0000000000000000000000000000000000000000000000000000000000000000909116906323b872dd906064016020604051808303816000875af1158015610376573d6000803e3d6000fd5b505050506040513d601f19601f8201168201806040525081019061039a91906110b9565b6103b75760405163188f7c9b60e11b815260040160405180910390fd5b60038054600091826103c8836110e2565b919050559050604051806101400160405280828152602001336001600160a01b031681526020018c8c8080601f016020809104026020016040519081016040528093929190818152602001838380828437600092019190915250505090825250604080516020601f8c018190048102820181019092528a815291810191908b908b908190840183828082843760009201919091525050509082525060208082018c90526040808301869052606083018a9052600160808401528051601f890183900483028101830190915287815260a0909201919088908890819084018382808284376000920191909152505050908252506020016104ca4262f7da006110fb565b905260008281526020818152604091829020835181559083015160018201805473ffffffffffffffffffffffffffffffffffffffff19166001600160a01b0390921691909117905590820151600282019061052590826111ac565b506060820151600382019061053a90826111ac565b506080820151600482015560a0820151600582015560c0820151600682015560e082015160078201805460ff1916911515919091179055610100820151600882019061058690826111ac565b50610120919091015160099091015560408051338152602081018b90529081018390526060810187905281907fdd4dcb2ef94f82921d5c77e9cf4e5c8dd423fb1de1310a243115b95316f257779060800160405180910390a29a9950505050505050505050565b60016020819052600091825260409091208054918101546002820154600383018054929360ff808416946101008504909116936201000090046001600160a01b0316929061063a90611124565b80601f016020809104026020016040519081016040528092919081815260200182805461066690611124565b80156106b35780601f10610688576101008083540402835291602001916106b3565b820191906000526020600020905b81548152906001019060200180831161069657829003601f168201915b5050505050908060040180546106c890611124565b80601f01602080910402602001604051908101604052809291908181526020018280546106f490611124565b80156107415780601f1061071657610100808354040283529160200191610741565b820191906000526020600020905b81548152906001019060200180831161072457829003601f168201915b5050505050905087565b6002602052816000526040600020818154811061076757600080fd5b90600052602060002001600091509150505481565b600480546000918261078d836110e2565b9190505590506040518060e00160405280828152602001878152602001600015158152602001600015158152602001336001600160a01b0316815260200186868080601f016020809104026020016040519081016040528093929190818152602001838380828437600092019190915250505090825250604080516020601f87018190048102820181019092528581529181019190869086908190840183828082843760009201829052509390945250508381526001602081815260409283902085518155908501519181019190915590830151600282018054606086015160808701516001600160a01b0316620100000275ffffffffffffffffffffffffffffffffffffffff0000199115156101000261ff00199515159590951661ffff1990931692909217939093179290921691909117905560a083015190915060038201906108d990826111ac565b5060c082015160048201906108ee90826111ac565b50905050857f49df2fa74fcb74a57b6ade05a5b2b557c008ae98b667f70273671790d82ca1a23385856040516109269392919061126b565b60405180910390a2505050505050565b600454811061095857604051631403330360e31b815260040160405180910390fd5b60008181526001602081815260408084209283015484529083905291829020600282015460048083015494516350802e3f60e01b81526001600160a01b03620100009093048316918101919091526024810194909452919290917f000000000000000000000000000000000000000000000000000000000000000016906350802e3f90604401600060405180830381600087803b1580156109f857600080fd5b505af1925050508015610a09575060015b610a265760405163b170dbe160e01b815260040160405180910390fd5b60028201805461ffff1916610101179055600182015460048201546040805133815260208101929092527f5f2564c1ad353e58b81e7bd6cd0e6b1a3f52f46ab4c59c2cadfbaacc4b2e5716910160405180910390a25b505050565b60405163d5a867b760e01b815233600482015234602482018190527f00000000000000000000000000000000000000000000000000000000000000006001600160a01b03169163d5a867b791906044016000604051808303818588803b158015610aea57600080fd5b505af1158015610afe573d6000803e3d6000fd5b505033600081815260026020908152604080832080546001810182559084529282902090920187905590519182528594507f60d59b58b916d11d0ac52c397e342e25ae6dc5da412115d469d304bf4dd86404935001905060405180910390a250565b60006020819052908152604090208054600182015460028301805492936001600160a01b0390921692610b9290611124565b80601f0160208091040260200160405190810160405280929190818152602001828054610bbe90611124565b8015610c0b5780601f10610be057610100808354040283529160200191610c0b565b820191906000526020600020905b815481529060010190602001808311610bee57829003601f168201915b505050505090806003018054610c2090611124565b80601f0160208091040260200160405190810160405280929190818152602001828054610c4c90611124565b8015610c995780601f10610c6e57610100808354040283529160200191610c99565b820191906000526020600020905b815481529060010190602001808311610c7c57829003601f168201915b50505060048401546005850154600686015460078701546008880180549798949793965091945060ff169291610cce90611124565b80601f0160208091040260200160405190810160405280929190818152602001828054610cfa90611124565b8015610d475780601f10610d1c57610100808354040283529160200191610d47565b820191906000526020600020905b815481529060010190602001808311610d2a57829003601f168201915b505050505090806009015490508a565b60008083601f840112610d6957600080fd5b50813567ffffffffffffffff811115610d8157600080fd5b602083019150836020828501011115610d9957600080fd5b9250929050565b60008060008060008060008060a0898b031215610dbc57600080fd5b883567ffffffffffffffff811115610dd357600080fd5b610ddf8b828c01610d57565b90995097505060208901359550604089013567ffffffffffffffff811115610e0657600080fd5b610e128b828c01610d57565b90965094505060608901359250608089013567ffffffffffffffff811115610e3957600080fd5b610e458b828c01610d57565b999c989b5096995094979396929594505050565b600060208284031215610e6b57600080fd5b5035919050565b6000815180845260005b81811015610e9857602081850181015186830182015201610e7c565b506000602082860101526020601f19601f83011685010191505092915050565b878152866020820152851515604082015284151560608201526001600160a01b038416608082015260e060a08201526000610ef660e0830185610e72565b82810360c0840152610f088185610e72565b9a9950505050505050505050565b60008060408385031215610f2957600080fd5b82356001600160a01b0381168114610f4057600080fd5b946020939093013593505050565b600080600080600060608688031215610f6657600080fd5b85359450602086013567ffffffffffffffff811115610f8457600080fd5b610f9088828901610d57565b909550935050604086013567ffffffffffffffff811115610fb057600080fd5b610fbc88828901610d57565b969995985093965092949392505050565b8a81526001600160a01b038a16602082015261014060408201526000610ff761014083018b610e72565b8281036060840152611009818b610e72565b90508860808401528760a08401528660c084015285151560e08401528281036101008401526110388186610e72565b915050826101208301529b9a5050505050505050505050565b634e487b7160e01b600052601160045260246000fd5b8181038181111561107a5761107a611051565b92915050565b808202811582820484141761107a5761107a611051565b6000826110b457634e487b7160e01b600052601260045260246000fd5b500490565b6000602082840312156110cb57600080fd5b815180151581146110db57600080fd5b9392505050565b6000600182016110f4576110f4611051565b5060010190565b8082018082111561107a5761107a611051565b634e487b7160e01b600052604160045260246000fd5b600181811c9082168061113857607f821691505b60208210810361115857634e487b7160e01b600052602260045260246000fd5b50919050565b601f821115610a7c57806000526020600020601f840160051c810160208510156111855750805b601f840160051c820191505b818110156111a55760008155600101611191565b5050505050565b815167ffffffffffffffff8111156111c6576111c661110e565b6111da816111d48454611124565b8461115e565b6020601f82116001811461120e57600083156111f65750848201515b600019600385901b1c1916600184901b1784556111a5565b600084815260208120601f198516915b8281101561123e578785015182556020948501946001909201910161121e565b508482101561125c5786840151600019600387901b60f8161c191681555b50505050600190811b01905550565b6001600160a01b038416815260406020820152816040820152818360608301376000818301606090810191909152601f909201601f191601019291505056fea264697066735822122016219c2ea36ee5e277201b9a670f06bc094457d015b767c1091a029561d72a7d64736f6c634300081a0033",
  "linkReferences": {},
  "deployedLinkReferences": {}
}