{
  "_format": "hh-sol-artifact-1",
  "contractName": "PolicyManager",
  "sourceName": "contracts/PolicyManager.sol",
  "abi": [
    {
      "inputs": [
        {
          "internalType": "address",
          "name": "_safeToken",
          "type": "address"
        },
        {
          "internalType": "address",
          "name": "_insurancePool",
          "type": "address"
        }
      ],
      "stateMutability": "nonpayable",
      "type": "constructor"
    },
    {
      "inputs": [
        {
          "internalType": "address",
          "name": "owner",
          "type": "address"
        }
      ],
      "name": "OwnableInvalidOwner",
      "type": "error"
    },
    {
      "inputs": [
        {
          "internalType": "address",
          "name": "account",
          "type": "address"
        }
      ],
      "name": "OwnableUnauthorizedAccount",
      "type": "error"
    },
    {
      "anonymous": false,
      "inputs": [
        {
          "indexed": true,
          "internalType": "uint256",
          "name": "policyId",
          "type": "uint256"
        },
        {
          "indexed": false,
          "internalType": "address",
          "name": "buyer",
          "type": "address"
        },
        {
          "indexed": false,
          "internalType": "string",
          "name": "description",
          "type": "string"
        }
      ],
      "name": "ClaimCreated",
      "type": "event"
    },
    {
      "anonymous": false,
      "inputs": [
        {
          "indexed": true,
          "internalType": "address",
          "name": "previousOwner",
          "type": "address"
        },
        {
          "indexed": true,
          "internalType": "address",
          "name": "newOwner",
          "type": "address"
        }
      ],
      "name": "OwnershipTransferred",
      "type": "event"
    },
    {
      "anonymous": false,
      "inputs": [
        {
          "indexed": true,
          "internalType": "uint256",
          "name": "policyId",
          "type": "uint256"
        },
        {
          "indexed": false,
          "internalType": "address",
          "name": "owner",
          "type": "address"
        },
        {
          "indexed": false,
          "internalType": "uint256",
          "name": "claimAmount",
          "type": "uint256"
        }
      ],
      "name": "PolicyClaimed",
      "type": "event"
    },
    {
      "anonymous": false,
      "inputs": [
        {
          "indexed": true,
          "internalType": "uint256",
          "name": "policyId",
          "type": "uint256"
        },
        {
          "indexed": false,
          "internalType": "address",
          "name": "owner",
          "type": "address"
        },
        {
          "indexed": false,
          "internalType": "uint256",
          "name": "coverageAmount",
          "type": "uint256"
        },
        {
          "indexed": false,
          "internalType": "uint256",
          "name": "premium",
          "type": "uint256"
        },
        {
          "indexed": false,
          "internalType": "uint256",
          "name": "expirationDate",
          "type": "uint256"
        }
      ],
      "name": "PolicyCreated",
      "type": "event"
    },
    {
      "anonymous": false,
      "inputs": [
        {
          "indexed": true,
          "internalType": "uint256",
          "name": "policyId",
          "type": "uint256"
        },
        {
          "indexed": false,
          "internalType": "address",
          "name": "buyer",
          "type": "address"
        }
      ],
      "name": "PolicyPurchased",
      "type": "event"
    },
    {
      "anonymous": false,
      "inputs": [
        {
          "indexed": true,
          "internalType": "uint256",
          "name": "policyId",
          "type": "uint256"
        },
        {
          "indexed": false,
          "internalType": "address",
          "name": "buyer",
          "type": "address"
        },
        {
          "indexed": false,
          "internalType": "uint256",
          "name": "amountPaid",
          "type": "uint256"
        }
      ],
      "name": "PremiumPaid",
      "type": "event"
    },
    {
      "inputs": [
        {
          "internalType": "uint256",
          "name": "",
          "type": "uint256"
        }
      ],
      "name": "Claims",
      "outputs": [
        {
          "internalType": "uint256",
          "name": "claimId",
          "type": "uint256"
        },
        {
          "internalType": "uint256",
          "name": "policyId",
          "type": "uint256"
        },
        {
          "internalType": "bool",
          "name": "isVerified",
          "type": "bool"
        },
        {
          "internalType": "bool",
          "name": "isPaid",
          "type": "bool"
        },
        {
          "internalType": "address",
          "name": "buyerAddress",
          "type": "address"
        },
        {
          "internalType": "string",
          "name": "documentIPFSHash",
          "type": "string"
        },
        {
          "internalType": "string",
          "name": "description",
          "type": "string"
        }
      ],
      "stateMutability": "view",
      "type": "function"
    },
    {
      "inputs": [
        {
          "internalType": "uint256",
          "name": "",
          "type": "uint256"
        }
      ],
      "name": "UnverifiedClaims",
      "outputs": [
        {
          "internalType": "uint256",
          "name": "claimId",
          "type": "uint256"
        },
        {
          "internalType": "uint256",
          "name": "policyId",
          "type": "uint256"
        },
        {
          "internalType": "bool",
          "name": "isVerified",
          "type": "bool"
        },
        {
          "internalType": "bool",
          "name": "isPaid",
          "type": "bool"
        },
        {
          "internalType": "address",
          "name": "buyerAddress",
          "type": "address"
        },
        {
          "internalType": "string",
          "name": "documentIPFSHash",
          "type": "string"
        },
        {
          "internalType": "string",
          "name": "description",
          "type": "string"
        }
      ],
      "stateMutability": "view",
      "type": "function"
    },
    {
      "inputs": [
        {
          "internalType": "address",
          "name": "user",
          "type": "address"
        },
        {
          "internalType": "uint256",
          "name": "",
          "type": "uint256"
        }
      ],
      "name": "addressToPolicy",
      "outputs": [
        {
          "internalType": "uint256",
          "name": "policyIdArray",
          "type": "uint256"
        }
      ],
      "stateMutability": "view",
      "type": "function"
    },
    {
      "inputs": [
        {
          "internalType": "uint256",
          "name": "coverageAmount",
          "type": "uint256"
        },
        {
          "internalType": "uint256",
          "name": "duration",
          "type": "uint256"
        },
        {
          "internalType": "string",
          "name": "coverageType",
          "type": "string"
        }
      ],
      "name": "calculatePremium",
      "outputs": [
        {
          "internalType": "uint256",
          "name": "",
          "type": "uint256"
        }
      ],
      "stateMutability": "view",
      "type": "function"
    },
    {
      "inputs": [
        {
          "internalType": "uint256",
          "name": "policyId",
          "type": "uint256"
        },
        {
          "internalType": "address",
          "name": "owner",
          "type": "address"
        }
      ],
      "name": "checkOwnershipOfPolicy",
      "outputs": [
        {
          "internalType": "bool",
          "name": "",
          "type": "bool"
        }
      ],
      "stateMutability": "view",
      "type": "function"
    },
    {
      "inputs": [
        {
          "internalType": "string",
          "name": "_title",
          "type": "string"
        },
        {
          "internalType": "uint256",
          "name": "coverageAmount",
          "type": "uint256"
        },
        {
          "internalType": "string",
          "name": "_description",
          "type": "string"
        },
        {
          "internalType": "uint256",
          "name": "expirationDate",
          "type": "uint256"
        },
        {
          "internalType": "string",
          "name": "coverageType",
          "type": "string"
        }
      ],
      "name": "createPolicy",
      "outputs": [
        {
          "internalType": "uint256",
          "name": "",
          "type": "uint256"
        }
      ],
      "stateMutability": "nonpayable",
      "type": "function"
    },
    {
      "inputs": [],
      "name": "getAllPolicies",
      "outputs": [
        {
          "components": [
            {
              "internalType": "uint256",
              "name": "id",
              "type": "uint256"
            },
            {
              "internalType": "address",
              "name": "owner",
              "type": "address"
            },
            {
              "internalType": "string",
              "name": "title",
              "type": "string"
            },
            {
              "internalType": "string",
              "name": "description",
              "type": "string"
            },
            {
              "internalType": "uint256",
              "name": "coverageAmount",
              "type": "uint256"
            },
            {
              "internalType": "uint256",
              "name": "premium",
              "type": "uint256"
            },
            {
              "internalType": "uint256",
              "name": "expirationDate",
              "type": "uint256"
            },
            {
              "internalType": "bool",
              "name": "isActive",
              "type": "bool"
            },
            {
              "internalType": "string",
              "name": "coverageType",
              "type": "string"
            },
            {
              "internalType": "uint256",
              "name": "nextPremiumDate",
              "type": "uint256"
            }
          ],
          "internalType": "struct IPolicyManager.Policy[]",
          "name": "",
          "type": "tuple[]"
        }
      ],
      "stateMutability": "view",
      "type": "function"
    },
    {
      "inputs": [
        {
          "internalType": "address",
          "name": "user",
          "type": "address"
        }
      ],
      "name": "getAllPoliciesForUser",
      "outputs": [
        {
          "components": [
            {
              "internalType": "uint256",
              "name": "id",
              "type": "uint256"
            },
            {
              "internalType": "address",
              "name": "owner",
              "type": "address"
            },
            {
              "internalType": "string",
              "name": "title",
              "type": "string"
            },
            {
              "internalType": "string",
              "name": "description",
              "type": "string"
            },
            {
              "internalType": "uint256",
              "name": "coverageAmount",
              "type": "uint256"
            },
            {
              "internalType": "uint256",
              "name": "premium",
              "type": "uint256"
            },
            {
              "internalType": "uint256",
              "name": "expirationDate",
              "type": "uint256"
            },
            {
              "internalType": "bool",
              "name": "isActive",
              "type": "bool"
            },
            {
              "internalType": "string",
              "name": "coverageType",
              "type": "string"
            },
            {
              "internalType": "uint256",
              "name": "nextPremiumDate",
              "type": "uint256"
            }
          ],
          "internalType": "struct IPolicyManager.Policy[]",
          "name": "",
          "type": "tuple[]"
        }
      ],
      "stateMutability": "view",
      "type": "function"
    },
    {
      "inputs": [],
      "name": "getAllUnverifiedClaims",
      "outputs": [
        {
          "components": [
            {
              "internalType": "uint256",
              "name": "claimId",
              "type": "uint256"
            },
            {
              "internalType": "uint256",
              "name": "policyId",
              "type": "uint256"
            },
            {
              "internalType": "bool",
              "name": "isVerified",
              "type": "bool"
            },
            {
              "internalType": "bool",
              "name": "isPaid",
              "type": "bool"
            },
            {
              "internalType": "address",
              "name": "buyerAddress",
              "type": "address"
            },
            {
              "internalType": "string",
              "name": "documentIPFSHash",
              "type": "string"
            },
            {
              "internalType": "string",
              "name": "description",
              "type": "string"
            }
          ],
          "internalType": "struct IPolicyManager.Claim[]",
          "name": "",
          "type": "tuple[]"
        }
      ],
      "stateMutability": "view",
      "type": "function"
    },
    {
      "inputs": [
        {
          "internalType": "uint256",
          "name": "policyId",
          "type": "uint256"
        }
      ],
      "name": "getPolicyDetails",
      "outputs": [
        {
          "components": [
            {
              "internalType": "uint256",
              "name": "id",
              "type": "uint256"
            },
            {
              "internalType": "address",
              "name": "owner",
              "type": "address"
            },
            {
              "internalType": "string",
              "name": "title",
              "type": "string"
            },
            {
              "internalType": "string",
              "name": "description",
              "type": "string"
            },
            {
              "internalType": "uint256",
              "name": "coverageAmount",
              "type": "uint256"
            },
            {
              "internalType": "uint256",
              "name": "premium",
              "type": "uint256"
            },
            {
              "internalType": "uint256",
              "name": "expirationDate",
              "type": "uint256"
            },
            {
              "internalType": "bool",
              "name": "isActive",
              "type": "bool"
            },
            {
              "internalType": "string",
              "name": "coverageType",
              "type": "string"
            },
            {
              "internalType": "uint256",
              "name": "nextPremiumDate",
              "type": "uint256"
            }
          ],
          "internalType": "struct IPolicyManager.Policy",
          "name": "",
          "type": "tuple"
        }
      ],
      "stateMutability": "view",
      "type": "function"
    },
    {
      "inputs": [],
      "name": "insurancePool",
      "outputs": [
        {
          "internalType": "contract IInsurancePool",
          "name": "",
          "type": "address"
        }
      ],
      "stateMutability": "view",
      "type": "function"
    },
    {
      "inputs": [],
      "name": "nextClaimId",
      "outputs": [
        {
          "internalType": "uint256",
          "name": "",
          "type": "uint256"
        }
      ],
      "stateMutability": "view",
      "type": "function"
    },
    {
      "inputs": [],
      "name": "nextPolicyId",
      "outputs": [
        {
          "internalType": "uint256",
          "name": "",
          "type": "uint256"
        }
      ],
      "stateMutability": "view",
      "type": "function"
    },
    {
      "inputs": [],
      "name": "owner",
      "outputs": [
        {
          "internalType": "address",
          "name": "",
          "type": "address"
        }
      ],
      "stateMutability": "view",
      "type": "function"
    },
    {
      "inputs": [
        {
          "internalType": "uint256",
          "name": "userPolicyId",
          "type": "uint256"
        }
      ],
      "name": "payPremium",
      "outputs": [],
      "stateMutability": "payable",
      "type": "function"
    },
    {
      "inputs": [
        {
          "internalType": "uint256",
          "name": "",
          "type": "uint256"
        }
      ],
      "name": "policies",
      "outputs": [
        {
          "internalType": "uint256",
          "name": "id",
          "type": "uint256"
        },
        {
          "internalType": "address",
          "name": "owner",
          "type": "address"
        },
        {
          "internalType": "string",
          "name": "title",
          "type": "string"
        },
        {
          "internalType": "string",
          "name": "description",
          "type": "string"
        },
        {
          "internalType": "uint256",
          "name": "coverageAmount",
          "type": "uint256"
        },
        {
          "internalType": "uint256",
          "name": "premium",
          "type": "uint256"
        },
        {
          "internalType": "uint256",
          "name": "expirationDate",
          "type": "uint256"
        },
        {
          "internalType": "bool",
          "name": "isActive",
          "type": "bool"
        },
        {
          "internalType": "string",
          "name": "coverageType",
          "type": "string"
        },
        {
          "internalType": "uint256",
          "name": "nextPremiumDate",
          "type": "uint256"
        }
      ],
      "stateMutability": "view",
      "type": "function"
    },
    {
      "inputs": [
        {
          "internalType": "uint256",
          "name": "policyId",
          "type": "uint256"
        }
      ],
      "name": "purchasePolicy",
      "outputs": [],
      "stateMutability": "payable",
      "type": "function"
    },
    {
      "inputs": [],
      "name": "renounceOwnership",
      "outputs": [],
      "stateMutability": "nonpayable",
      "type": "function"
    },
    {
      "inputs": [],
      "name": "safeToken",
      "outputs": [
        {
          "internalType": "contract IToken",
          "name": "",
          "type": "address"
        }
      ],
      "stateMutability": "view",
      "type": "function"
    },
    {
      "inputs": [
        {
          "internalType": "address",
          "name": "newOwner",
          "type": "address"
        }
      ],
      "name": "transferOwnership",
      "outputs": [],
      "stateMutability": "nonpayable",
      "type": "function"
    },
    {
      "inputs": [
        {
          "internalType": "uint256",
          "name": "claimId",
          "type": "uint256"
        }
      ],
      "name": "verifyClaim",
      "outputs": [],
      "stateMutability": "nonpayable",
      "type": "function"
    }
  ],
  "bytecode": "0x60806040526001600455600160055534801561001a57600080fd5b506040516125a13803806125a183398101604081905261003991610106565b338061005f57604051631e4fbdf760e01b81526000600482015260240160405180910390fd5b6100688161009a565b50600180546001600160a01b039384166001600160a01b03199182161790915560028054929093169116179055610139565b600080546001600160a01b038381166001600160a01b0319831681178455604051919092169283917f8be0079c531659141344cd1fd0a4f28419497f9722a3daafe3b4186f6b6457e09190a35050565b80516001600160a01b038116811461010157600080fd5b919050565b6000806040838503121561011957600080fd5b610122836100ea565b9150610130602084016100ea565b90509250929050565b612459806101486000396000f3fe60806040526004361061013a5760003560e01c8063a0021cf1116100bb578063c1260c9a1161007f578063d3e8948311610059578063d3e89483146103a5578063e0062179146103db578063f2fde38b146103fb57600080fd5b8063c1260c9a1461034f578063cad0b8db14610362578063cc0380101461037857600080fd5b8063a0021cf1146102b9578063ab2adc00146102cf578063bb1e110d146102ef578063bbc56e2a1461030f578063c0d7e2b61461032f57600080fd5b80636ba357e5116101025780636ba357e514610205578063715018a6146102335780637e469f51146102485780638da5cb5b146102685780639e34c7d21461028657600080fd5b80630a3c3f9c1461013f5780631258ee9c146101745780634364b26e14610196578063457e5521146101ab5780634b3fd05a146101cd575b600080fd5b34801561014b57600080fd5b5061015f61015a366004611ccc565b61041b565b60405190151581526020015b60405180910390f35b34801561018057600080fd5b5061018961045f565b60405161016b9190611d3e565b6101a96101a4366004611e09565b610631565b005b3480156101b757600080fd5b506101c0610817565b60405161016b9190611ede565b3480156101d957600080fd5b506001546101ed906001600160a01b031681565b6040516001600160a01b03909116815260200161016b565b34801561021157600080fd5b50610225610220366004611fdc565b610ad7565b60405190815260200161016b565b34801561023f57600080fd5b506101a9610d51565b34801561025457600080fd5b506101c0610263366004612084565b610d65565b34801561027457600080fd5b506000546001600160a01b03166101ed565b34801561029257600080fd5b506102a66102a1366004611e09565b61103a565b60405161016b97969594939291906120a6565b3480156102c557600080fd5b5061022560055481565b3480156102db57600080fd5b506002546101ed906001600160a01b031681565b3480156102fb57600080fd5b5061022561030a366004612104565b611199565b34801561031b57600080fd5b506102a661032a366004611e09565b6111ca565b34801561033b57600080fd5b506101a961034a366004611e09565b61122b565b6101a961035d366004611e09565b6114b9565b34801561036e57600080fd5b5061022560045481565b34801561038457600080fd5b50610398610393366004611e09565b611624565b60405161016b919061212e565b3480156103b157600080fd5b506103c56103c0366004611e09565b61185f565b60405161016b9a99989796959493929190612141565b3480156103e757600080fd5b506102256103f63660046121c5565b611a56565b34801561040757600080fd5b506101a9610416366004612084565b611b3c565b6001600160a01b03811660009081526006602052604081208160015b82548110156104545780860361044c57600191505b600101610437565b509150505b92915050565b60606008805480602002602001604051908101604052809291908181526020016000905b828210156106285760008481526020908190206040805160e0810182526005860290920180548352600181015493830193909352600283015460ff8082161515928401929092526101008104909116151560608301526201000090046001600160a01b0316608082015260038201805491929160a08401919061050590612215565b80601f016020809104026020016040519081016040528092919081815260200182805461053190612215565b801561057e5780601f106105535761010080835404028352916020019161057e565b820191906000526020600020905b81548152906001019060200180831161056157829003601f168201915b5050505050815260200160048201805461059790612215565b80601f01602080910402602001604051908101604052809291908181526020018280546105c390612215565b80156106105780601f106105e557610100808354040283529160200191610610565b820191906000526020600020905b8154815290600101906020018083116105f357829003601f168201915b50505050508152505081526020019060010190610483565b50505050905090565b3360009081526006602052604081208291805b82548110156106615780840361065957600191505b600101610644565b50806106b45760405162461bcd60e51b815260206004820152601e60248201527f5573657220646f6573206e6f742070757263686173656420706f6c696379000060448201526064015b60405180910390fd5b600084815260036020526040902060068101544211156107075760405162461bcd60e51b815260206004820152600e60248201526d141bdb1a58de48195e1c1a5c995960921b60448201526064016106ab565b600581015434811461075b5760405162461bcd60e51b815260206004820152601760248201527f496e73756666696369656e742066756e64732073656e7400000000000000000060448201526064016106ab565b60025460405163d5a867b760e01b815233600482015234602482018190526001600160a01b039092169163d5a867b7916044016000604051808303818588803b1580156107a757600080fd5b505af11580156107bb573d6000803e3d6000fd5b50505050504262f7da006107cf9190612265565b6009830155604080513381526020810183905287917ffbf1458fbbddabb878de144276216e8ccda619cbac2d598e6ee37ff72173afb1910160405180910390a2505050505050565b60045460609060008167ffffffffffffffff81111561083857610838611f37565b60405190808252806020026020018201604052801561087157816020015b61085e611c04565b8152602001906001900390816108565790505b50905060015b82811015610ad0576000818152600360209081526040918290208251610140810184528154815260018201546001600160a01b03169281019290925260028101805492939192918401916108ca90612215565b80601f01602080910402602001604051908101604052809291908181526020018280546108f690612215565b80156109435780601f1061091857610100808354040283529160200191610943565b820191906000526020600020905b81548152906001019060200180831161092657829003601f168201915b5050505050815260200160038201805461095c90612215565b80601f016020809104026020016040519081016040528092919081815260200182805461098890612215565b80156109d55780601f106109aa576101008083540402835291602001916109d5565b820191906000526020600020905b8154815290600101906020018083116109b857829003601f168201915b5050509183525050600482015460208201526005820154604082015260068201546060820152600782015460ff161515608082015260088201805460a090920191610a1f90612215565b80601f0160208091040260200160405190810160405280929190818152602001828054610a4b90612215565b8015610a985780601f10610a6d57610100808354040283529160200191610a98565b820191906000526020600020905b815481529060010190602001808311610a7b57829003601f168201915b50505050508152602001600982015481525050828281518110610abd57610abd612278565b6020908102919091010152600101610877565b5092915050565b6000610ae1611b7a565b6000610aee868585611a56565b6001546002546040516323b872dd60e01b81523360048201526001600160a01b0391821660248201526044810184905292935016906323b872dd906064016020604051808303816000875af1158015610b4b573d6000803e3d6000fd5b505050506040513d601f19601f82011682018060405250810190610b6f919061228e565b610bbb5760405162461bcd60e51b815260206004820152601660248201527f5072656d69756d207061796d656e74206661696c65640000000000000000000060448201526064016106ab565b6004805460009182610bcc836122b0565b919050559050604051806101400160405280828152602001336001600160a01b031681526020018981526020018781526020018881526020018381526020018681526020016001151581526020018581526020014262f7da00610c2f9190612265565b9052600082815260036020908152604091829020835181559083015160018201805473ffffffffffffffffffffffffffffffffffffffff19166001600160a01b03909216919091179055908201516002820190610c8c9082612318565b5060608201516003820190610ca19082612318565b506080820151600482015560a0820151600582015560c0820151600682015560e082015160078201805460ff19169115159190911790556101008201516008820190610ced9082612318565b50610120919091015160099091015560408051338152602081018990529081018390526060810186905281907fdd4dcb2ef94f82921d5c77e9cf4e5c8dd423fb1de1310a243115b95316f257779060800160405180910390a2979650505050505050565b610d59611b7a565b610d636000611ba7565b565b6001600160a01b0381166000908152600660205260408120546060918167ffffffffffffffff811115610d9a57610d9a611f37565b604051908082528060200260200182016040528015610dd357816020015b610dc0611c04565b815260200190600190039081610db85790505b50905060015b82811015611032576000818152600360209081526040918290208251610140810184528154815260018201546001600160a01b0316928101929092526002810180549293919291840191610e2c90612215565b80601f0160208091040260200160405190810160405280929190818152602001828054610e5890612215565b8015610ea55780601f10610e7a57610100808354040283529160200191610ea5565b820191906000526020600020905b815481529060010190602001808311610e8857829003601f168201915b50505050508152602001600382018054610ebe90612215565b80601f0160208091040260200160405190810160405280929190818152602001828054610eea90612215565b8015610f375780601f10610f0c57610100808354040283529160200191610f37565b820191906000526020600020905b815481529060010190602001808311610f1a57829003601f168201915b5050509183525050600482015460208201526005820154604082015260068201546060820152600782015460ff161515608082015260088201805460a090920191610f8190612215565b80601f0160208091040260200160405190810160405280929190818152602001828054610fad90612215565b8015610ffa5780601f10610fcf57610100808354040283529160200191610ffa565b820191906000526020600020905b815481529060010190602001808311610fdd57829003601f168201915b5050505050815260200160098201548152505082828151811061101f5761101f612278565b6020908102919091010152600101610dd9565b509392505050565b60076020526000908152604090208054600182015460028301546003840180549394929360ff808416946101008504909116936201000090046001600160a01b031692909161108890612215565b80601f01602080910402602001604051908101604052809291908181526020018280546110b490612215565b80156111015780601f106110d657610100808354040283529160200191611101565b820191906000526020600020905b8154815290600101906020018083116110e457829003601f168201915b50505050509080600401805461111690612215565b80601f016020809104026020016040519081016040528092919081815260200182805461114290612215565b801561118f5780601f106111645761010080835404028352916020019161118f565b820191906000526020600020905b81548152906001019060200180831161117257829003601f168201915b5050505050905087565b600660205281600052604060002081815481106111b557600080fd5b90600052602060002001600091509150505481565b600881815481106111da57600080fd5b60009182526020909120600590910201805460018201546002830154600384018054939550919360ff80831694610100840490911693620100009093046001600160a01b0316929061108890612215565b611233611b7a565b6000818152600760209081526040808320600181015480855260039093529083209092611260833361041b565b90506008548511156112b45760405162461bcd60e51b815260206004820152601460248201527f436c61696d20646f6573206e6f7420657869737400000000000000000000000060448201526064016106ab565b8061130b5760405162461bcd60e51b815260206004820152602160248201527f5573657220646f65736e2774207075726368617365642074686520706f6c69636044820152607960f81b60648201526084016106ab565b60028054908501546004848101546040516350802e3f60e01b81526001600160a01b036201000090940484169281019290925260248201529116906350802e3f90604401600060405180830381600087803b15801561136957600080fd5b505af192505050801561137a575060015b6113c65760405162461bcd60e51b815260206004820152601060248201527f436c61696d20506179204661696c65640000000000000000000000000000000060448201526064016106ab565b60028401805461ffff19166101011790553360009081526006602052604090208054849081106113f8576113f8612278565b90600052602060002001600090556008858154811061141957611419612278565b6000918252602082206005909102018181556001810182905560028101805475ffffffffffffffffffffffffffffffffffffffffffff19169055906114616003830182611c62565b61146f600483016000611c62565b5050600482015460408051338152602081019290925284917f5f2564c1ad353e58b81e7bd6cd0e6b1a3f52f46ab4c59c2cadfbaacc4b2e5716910160405180910390a25050505050565b6000818152600360205260409020600681015442111561150c5760405162461bcd60e51b815260206004820152600e60248201526d141bdb1a58de48195e1c1a5c995960921b60448201526064016106ab565b60058101543481146115605760405162461bcd60e51b815260206004820152601760248201527f496e73756666696369656e742066756e64732073656e7400000000000000000060448201526064016106ab565b60025460405163d5a867b760e01b815233600482015234602482018190526001600160a01b039092169163d5a867b7916044016000604051808303818588803b1580156115ac57600080fd5b505af11580156115c0573d6000803e3d6000fd5b505033600081815260066020908152604080832080546001810182559084529282902090920189905590519182528794507f60d59b58b916d11d0ac52c397e342e25ae6dc5da412115d469d304bf4dd86404935001905060405180910390a2505050565b61162c611c04565b6000828152600360209081526040918290208251610140810184528154815260018201546001600160a01b031692810192909252600281018054929391929184019161167790612215565b80601f01602080910402602001604051908101604052809291908181526020018280546116a390612215565b80156116f05780601f106116c5576101008083540402835291602001916116f0565b820191906000526020600020905b8154815290600101906020018083116116d357829003601f168201915b5050505050815260200160038201805461170990612215565b80601f016020809104026020016040519081016040528092919081815260200182805461173590612215565b80156117825780601f1061175757610100808354040283529160200191611782565b820191906000526020600020905b81548152906001019060200180831161176557829003601f168201915b5050509183525050600482015460208201526005820154604082015260068201546060820152600782015460ff161515608082015260088201805460a0909201916117cc90612215565b80601f01602080910402602001604051908101604052809291908181526020018280546117f890612215565b80156118455780601f1061181a57610100808354040283529160200191611845565b820191906000526020600020905b81548152906001019060200180831161182857829003601f168201915b505050505081526020016009820154815250509050919050565b60036020526000908152604090208054600182015460028301805492936001600160a01b039092169261189190612215565b80601f01602080910402602001604051908101604052809291908181526020018280546118bd90612215565b801561190a5780601f106118df5761010080835404028352916020019161190a565b820191906000526020600020905b8154815290600101906020018083116118ed57829003601f168201915b50505050509080600301805461191f90612215565b80601f016020809104026020016040519081016040528092919081815260200182805461194b90612215565b80156119985780601f1061196d57610100808354040283529160200191611998565b820191906000526020600020905b81548152906001019060200180831161197b57829003601f168201915b50505060048401546005850154600686015460078701546008880180549798949793965091945060ff1692916119cd90612215565b80601f01602080910402602001604051908101604052809291908181526020018280546119f990612215565b8015611a465780601f10611a1b57610100808354040283529160200191611a46565b820191906000526020600020905b815481529060010190602001808311611a2957829003601f168201915b505050505090806009015490508a565b60408051808201909152600d81526c65786368616e67655f6861636b60981b6020918201528151908201206000906001907f9ce6d996e301f1a8dbe98e70d7ee122705f835685b12126ac0a10719928d58a601611ab557506002611b06565b604080518082019091526009815268646566695f7269736b60b81b6020918201528351908401207f11d5ea21445d5ba4825480a12abe0b412ab4900a5c16f8c4ae8c5798bfb514a001611b06575060035b63bbf81e00611b1542866123d7565b611b1f83886123ea565b611b2991906123ea565b611b339190612401565b95945050505050565b611b44611b7a565b6001600160a01b038116611b6e57604051631e4fbdf760e01b8152600060048201526024016106ab565b611b7781611ba7565b50565b6000546001600160a01b03163314610d635760405163118cdaa760e01b81523360048201526024016106ab565b600080546001600160a01b0383811673ffffffffffffffffffffffffffffffffffffffff19831681178455604051919092169283917f8be0079c531659141344cd1fd0a4f28419497f9722a3daafe3b4186f6b6457e09190a35050565b6040518061014001604052806000815260200160006001600160a01b03168152602001606081526020016060815260200160008152602001600081526020016000815260200160001515815260200160608152602001600081525090565b508054611c6e90612215565b6000825580601f10611c7e575050565b601f016020900490600052602060002090810190611b7791905b80821115611cac5760008155600101611c98565b5090565b80356001600160a01b0381168114611cc757600080fd5b919050565b60008060408385031215611cdf57600080fd5b82359150611cef60208401611cb0565b90509250929050565b6000815180845260005b81811015611d1e57602081850181015186830182015201611d02565b506000602082860101526020601f19601f83011685010191505092915050565b6000602082016020835280845180835260408501915060408160051b86010192506020860160005b82811015611dfd57603f19878603018452815180518652602081015160208701526040810151151560408701526060810151151560608701526001600160a01b03608082015116608087015260a081015160e060a0880152611dcb60e0880182611cf8565b905060c0820151915086810360c0880152611de68183611cf8565b965050506020938401939190910190600101611d66565b50929695505050505050565b600060208284031215611e1b57600080fd5b5035919050565b8051825260006020820151611e4260208501826001600160a01b03169052565b5060408201516101406040850152611e5e610140850182611cf8565b905060608301518482036060860152611e778282611cf8565b9150506080830151608085015260a083015160a085015260c083015160c085015260e0830151611eab60e086018215159052565b50610100830151848203610100860152611ec58282611cf8565b9150506101208301516101208501528091505092915050565b6000602082016020835280845180835260408501915060408160051b86010192506020860160005b82811015611dfd57603f19878603018452611f22858351611e22565b94506020938401939190910190600101611f06565b634e487b7160e01b600052604160045260246000fd5b600082601f830112611f5e57600080fd5b813567ffffffffffffffff811115611f7857611f78611f37565b604051601f8201601f19908116603f0116810167ffffffffffffffff81118282101715611fa757611fa7611f37565b604052818152838201602001851015611fbf57600080fd5b816020850160208301376000918101602001919091529392505050565b600080600080600060a08688031215611ff457600080fd5b853567ffffffffffffffff81111561200b57600080fd5b61201788828901611f4d565b95505060208601359350604086013567ffffffffffffffff81111561203b57600080fd5b61204788828901611f4d565b93505060608601359150608086013567ffffffffffffffff81111561206b57600080fd5b61207788828901611f4d565b9150509295509295909350565b60006020828403121561209657600080fd5b61209f82611cb0565b9392505050565b878152866020820152851515604082015284151560608201526001600160a01b038416608082015260e060a082015260006120e460e0830185611cf8565b82810360c08401526120f68185611cf8565b9a9950505050505050505050565b6000806040838503121561211757600080fd5b61212083611cb0565b946020939093013593505050565b60208152600061209f6020830184611e22565b8a81526001600160a01b038a1660208201526101406040820152600061216b61014083018b611cf8565b828103606084015261217d818b611cf8565b90508860808401528760a08401528660c084015285151560e08401528281036101008401526121ac8186611cf8565b915050826101208301529b9a5050505050505050505050565b6000806000606084860312156121da57600080fd5b8335925060208401359150604084013567ffffffffffffffff8111156121ff57600080fd5b61220b86828701611f4d565b9150509250925092565b600181811c9082168061222957607f821691505b60208210810361224957634e487b7160e01b600052602260045260246000fd5b50919050565b634e487b7160e01b600052601160045260246000fd5b808201808211156104595761045961224f565b634e487b7160e01b600052603260045260246000fd5b6000602082840312156122a057600080fd5b8151801515811461209f57600080fd5b6000600182016122c2576122c261224f565b5060010190565b601f82111561231357806000526020600020601f840160051c810160208510156122f05750805b601f840160051c820191505b8181101561231057600081556001016122fc565b50505b505050565b815167ffffffffffffffff81111561233257612332611f37565b612346816123408454612215565b846122c9565b6020601f82116001811461237a57600083156123625750848201515b600019600385901b1c1916600184901b178455612310565b600084815260208120601f198516915b828110156123aa578785015182556020948501946001909201910161238a565b50848210156123c85786840151600019600387901b60f8161c191681555b50505050600190811b01905550565b818103818111156104595761045961224f565b80820281158282048414176104595761045961224f565b60008261241e57634e487b7160e01b600052601260045260246000fd5b50049056fea26469706673582212206d11c55af014dd76e07be1ef83d260305d6165c377e8d8b24b977c7aaf51f36264736f6c634300081a0033",
  "linkReferences": {},
  "deployedLinkReferences": {}
}