{
  "_format": "hh-sol-artifact-1",
  "contractName": "InsurancePool",
  "sourceName": "contracts/InsurancePool.sol",
  "abi": [
    {
      "inputs": [
        {
          "internalType": "address",
          "name": "_safeToken",
          "type": "address"
        }
      ],
      "stateMutability": "nonpayable",
      "type": "constructor"
    },
    {
      "inputs": [
        {
          "internalType": "address",
          "name": "owner",
          "type": "address"
        }
      ],
      "name": "OwnableInvalidOwner",
      "type": "error"
    },
    {
      "inputs": [
        {
          "internalType": "address",
          "name": "account",
          "type": "address"
        }
      ],
      "name": "OwnableUnauthorizedAccount",
      "type": "error"
    },
    {
      "anonymous": false,
      "inputs": [
        {
          "indexed": false,
          "internalType": "address",
          "name": "to",
          "type": "address"
        },
        {
          "indexed": false,
          "internalType": "uint256",
          "name": "claimPaid",
          "type": "uint256"
        }
      ],
      "name": "ClaimPaid",
      "type": "event"
    },
    {
      "anonymous": false,
      "inputs": [
        {
          "indexed": false,
          "internalType": "address",
          "name": "provider",
          "type": "address"
        },
        {
          "indexed": false,
          "internalType": "uint256",
          "name": "amount",
          "type": "uint256"
        }
      ],
      "name": "LiquidityProvided",
      "type": "event"
    },
    {
      "anonymous": false,
      "inputs": [
        {
          "indexed": false,
          "internalType": "address",
          "name": "provider",
          "type": "address"
        },
        {
          "indexed": false,
          "internalType": "uint256",
          "name": "amount",
          "type": "uint256"
        }
      ],
      "name": "LiquidityWithdrawn",
      "type": "event"
    },
    {
      "anonymous": false,
      "inputs": [
        {
          "indexed": true,
          "internalType": "address",
          "name": "previousOwner",
          "type": "address"
        },
        {
          "indexed": true,
          "internalType": "address",
          "name": "newOwner",
          "type": "address"
        }
      ],
      "name": "OwnershipTransferred",
      "type": "event"
    },
    {
      "anonymous": false,
      "inputs": [
        {
          "indexed": false,
          "internalType": "address",
          "name": "_addr",
          "type": "address"
        },
        {
          "indexed": false,
          "internalType": "uint256",
          "name": "_premium",
          "type": "uint256"
        }
      ],
      "name": "PremiumReceived",
      "type": "event"
    },
    {
      "anonymous": false,
      "inputs": [
        {
          "indexed": false,
          "internalType": "address",
          "name": "provider",
          "type": "address"
        },
        {
          "indexed": false,
          "internalType": "uint256",
          "name": "amount",
          "type": "uint256"
        }
      ],
      "name": "RewardsClaimed",
      "type": "event"
    },
    {
      "inputs": [],
      "name": "checkTransferFrom",
      "outputs": [],
      "stateMutability": "nonpayable",
      "type": "function"
    },
    {
      "inputs": [],
      "name": "claimRewards",
      "outputs": [],
      "stateMutability": "nonpayable",
      "type": "function"
    },
    {
      "inputs": [
        {
          "internalType": "address",
          "name": "provider",
          "type": "address"
        }
      ],
      "name": "getProviderBalance",
      "outputs": [
        {
          "internalType": "uint256",
          "name": "",
          "type": "uint256"
        }
      ],
      "stateMutability": "view",
      "type": "function"
    },
    {
      "inputs": [],
      "name": "getTotalLiquidity",
      "outputs": [
        {
          "internalType": "uint256",
          "name": "",
          "type": "uint256"
        }
      ],
      "stateMutability": "view",
      "type": "function"
    },
    {
      "inputs": [],
      "name": "owner",
      "outputs": [
        {
          "internalType": "address",
          "name": "",
          "type": "address"
        }
      ],
      "stateMutability": "view",
      "type": "function"
    },
    {
      "inputs": [
        {
          "internalType": "address",
          "name": "to",
          "type": "address"
        },
        {
          "internalType": "uint256",
          "name": "amount",
          "type": "uint256"
        }
      ],
      "name": "payClaim",
      "outputs": [],
      "stateMutability": "nonpayable",
      "type": "function"
    },
    {
      "inputs": [],
      "name": "policyManager",
      "outputs": [
        {
          "internalType": "address",
          "name": "",
          "type": "address"
        }
      ],
      "stateMutability": "view",
      "type": "function"
    },
    {
      "inputs": [],
      "name": "provideLiquidity",
      "outputs": [],
      "stateMutability": "payable",
      "type": "function"
    },
    {
      "inputs": [
        {
          "internalType": "address",
          "name": "",
          "type": "address"
        }
      ],
      "name": "providers",
      "outputs": [
        {
          "internalType": "uint256",
          "name": "balance",
          "type": "uint256"
        },
        {
          "internalType": "uint256",
          "name": "lastUpdateTime",
          "type": "uint256"
        }
      ],
      "stateMutability": "view",
      "type": "function"
    },
    {
      "inputs": [
        {
          "internalType": "address",
          "name": "from",
          "type": "address"
        },
        {
          "internalType": "uint256",
          "name": "amount",
          "type": "uint256"
        }
      ],
      "name": "receivePremium",
      "outputs": [],
      "stateMutability": "payable",
      "type": "function"
    },
    {
      "inputs": [],
      "name": "renounceOwnership",
      "outputs": [],
      "stateMutability": "nonpayable",
      "type": "function"
    },
    {
      "inputs": [],
      "name": "rewardRate",
      "outputs": [
        {
          "internalType": "uint256",
          "name": "",
          "type": "uint256"
        }
      ],
      "stateMutability": "view",
      "type": "function"
    },
    {
      "inputs": [
        {
          "internalType": "address",
          "name": "",
          "type": "address"
        }
      ],
      "name": "rewardsOfProviders",
      "outputs": [
        {
          "internalType": "uint256",
          "name": "",
          "type": "uint256"
        }
      ],
      "stateMutability": "view",
      "type": "function"
    },
    {
      "inputs": [],
      "name": "safeToken",
      "outputs": [
        {
          "internalType": "contract IToken",
          "name": "",
          "type": "address"
        }
      ],
      "stateMutability": "view",
      "type": "function"
    },
    {
      "inputs": [
        {
          "internalType": "address",
          "name": "_policyManager",
          "type": "address"
        }
      ],
      "name": "setPolicyManager",
      "outputs": [],
      "stateMutability": "nonpayable",
      "type": "function"
    },
    {
      "inputs": [
        {
          "internalType": "uint256",
          "name": "_rewardRate",
          "type": "uint256"
        }
      ],
      "name": "setRewardRate",
      "outputs": [],
      "stateMutability": "nonpayable",
      "type": "function"
    },
    {
      "inputs": [],
      "name": "totalLiquidity",
      "outputs": [
        {
          "internalType": "uint256",
          "name": "",
          "type": "uint256"
        }
      ],
      "stateMutability": "view",
      "type": "function"
    },
    {
      "inputs": [
        {
          "internalType": "address",
          "name": "newOwner",
          "type": "address"
        }
      ],
      "name": "transferOwnership",
      "outputs": [],
      "stateMutability": "nonpayable",
      "type": "function"
    },
    {
      "inputs": [
        {
          "internalType": "uint256",
          "name": "amount",
          "type": "uint256"
        }
      ],
      "name": "withdrawLiquidity",
      "outputs": [],
      "stateMutability": "nonpayable",
      "type": "function"
    }
  ],
  "bytecode": "0x608060405234801561001057600080fd5b506040516111d13803806111d183398101604081905261002f916100d4565b338061005557604051631e4fbdf760e01b81526000600482015260240160405180910390fd5b61005e81610084565b50600180546001600160a01b0319166001600160a01b0392909216919091179055610104565b600080546001600160a01b038381166001600160a01b0319831681178455604051919092169283917f8be0079c531659141344cd1fd0a4f28419497f9722a3daafe3b4186f6b6457e09190a35050565b6000602082840312156100e657600080fd5b81516001600160a01b03811681146100fd57600080fd5b9392505050565b6110be806101136000396000f3fe6080604052600436106101145760003560e01c8063715018a6116100a0578063ab3dbf3b11610064578063ab3dbf3b146102eb578063adde41e11461030b578063d5a867b71461032b578063ee039aca1461033e578063f2fde38b1461036b57600080fd5b8063715018a61461024c5780637b0a47ee14610261578063832eea0c146102775780638da5cb5b146102ad5780639e447fc6146102cb57600080fd5b8063372500ab116100e7578063372500ab146101c25780634b3fd05a146101d757806350802e3f1461020f57806360c97b221461022f578063641ca4521461023757600080fd5b80630787bc27146101195780630a861f2a1461016757806315770f921461018957806335c7e925146101ad575b600080fd5b34801561012557600080fd5b5061014d610134366004610f6d565b6002602052600090815260409020805460019091015482565b604080519283526020830191909152015b60405180910390f35b34801561017357600080fd5b50610187610182366004610f8f565b61038b565b005b34801561019557600080fd5b5061019f60045481565b60405190815260200161015e565b3480156101b957600080fd5b5060045461019f565b3480156101ce57600080fd5b50610187610503565b3480156101e357600080fd5b506001546101f7906001600160a01b031681565b6040516001600160a01b03909116815260200161015e565b34801561021b57600080fd5b5061018761022a366004610fa8565b6106bf565b61018761085c565b34801561024357600080fd5b506101876109cc565b34801561025857600080fd5b50610187610c50565b34801561026d57600080fd5b5061019f60055481565b34801561028357600080fd5b5061019f610292366004610f6d565b6001600160a01b031660009081526002602052604090205490565b3480156102b957600080fd5b506000546001600160a01b03166101f7565b3480156102d757600080fd5b506101876102e6366004610f8f565b610c64565b3480156102f757600080fd5b506006546101f7906001600160a01b031681565b34801561031757600080fd5b50610187610326366004610f6d565b610c71565b610187610339366004610fa8565b610ca8565b34801561034a57600080fd5b5061019f610359366004610f6d565b60036020526000908152604090205481565b34801561037757600080fd5b50610187610386366004610f6d565b610da7565b336000908152600260205260409020548111156103ef5760405162461bcd60e51b815260206004820152601460248201527f496e73756666696369656e742062616c616e636500000000000000000000000060448201526064015b60405180910390fd5b6103f833610de2565b3360009081526002602052604081208054839290610417908490610fe8565b9250508190555080600460008282546104309190610fe8565b9091555050600154604051632770a7eb60e21b8152336004820152602481018390526001600160a01b0390911690639dc29fac90604401600060405180830381600087803b15801561048157600080fd5b505af1158015610495573d6000803e3d6000fd5b505060405133925083156108fc02915083906000818181858888f193505050501580156104c6573d6000803e3d6000fd5b5060408051338152602081018390527fb1cce8684b4ffa8667b4577654e61ee3480d661ee9c27522ac80e211f6bd4d25910160405180910390a150565b61050c33610de2565b3360009081526002602052604090205480156106bc573360008181526002602052604080822091909155600154905163a9059cbb60e01b81526004810192909252602482018390526001600160a01b03169063a9059cbb906044016020604051808303816000875af1158015610586573d6000803e3d6000fd5b505050506040513d601f19601f820116820180604052508101906105aa9190611001565b6105e85760405162461bcd60e51b815260206004820152600f60248201526e151c985b9cd9995c8819985a5b1959608a1b60448201526064016103e6565b604051600090339083908381818185875af1925050503d806000811461062a576040519150601f19603f3d011682016040523d82523d6000602084013e61062f565b606091505b50509050806106805760405162461bcd60e51b815260206004820152601a60248201527f58464920546f6b656e73207472616e73666572206661696c656400000000000060448201526064016103e6565b60408051338152602081018490527ffc30cddea38e2bf4d6ea7d3f9ed3b6ad7f176419f4963bd81318067a4aee73fe91015b60405180910390a1505b50565b6006546001600160a01b031633146107195760405162461bcd60e51b815260206004820152601f60248201527f43616c6c6572206973206e6f742074686520506f6c6963794d616e616765720060448201526064016103e6565b80600454101561076b5760405162461bcd60e51b815260206004820181905260248201527f496e73756666696369656e74206c697175696469747920666f7220636c61696d60448201526064016103e6565b806004600082825461077d9190610fe8565b90915550506040516000906001600160a01b0384169083908381818185875af1925050503d80600081146107cd576040519150601f19603f3d011682016040523d82523d6000602084013e6107d2565b606091505b50509050806108155760405162461bcd60e51b815260206004820152600f60248201526e151c985b9cd9995c8819985a5b1959608a1b60448201526064016103e6565b604080516001600160a01b0385168152602081018490527ff42cf8c29487b42c009006cba2a2a0ca0388229f3183e6e957e0a0b163585cb4910160405180910390a1505050565b60015460405163095ea7b360e01b81523060048201523460248201526001600160a01b039091169063095ea7b3906044016020604051808303816000875af11580156108ac573d6000803e3d6000fd5b505050506040513d601f19601f820116820180604052508101906108d09190611001565b506001546040516323b872dd60e01b81523060048201523360248201523460448201526001600160a01b03909116906323b872dd906064016020604051808303816000875af1158015610927573d6000803e3d6000fd5b505050506040513d601f19601f8201168201806040525081019061094b9190611001565b5061095533610de2565b3360009081526002602052604081208054349290610974908490611023565b92505081905550346004600082825461098d9190611023565b9091555050604080513381523460208201527fccb2ae3a2936bf4c94fa4e12cdf0cdad6ed0e4888a044cef89afa60f2e4b92d3910160405180910390a1565b600154604051636eb1769f60e11b8152336004820152306024820152662386f26fc10000916001600160a01b03169063dd62ed3e90604401602060405180830381865afa158015610a21573d6000803e3d6000fd5b505050506040513d601f19601f82011682018060405250810190610a459190611036565b1015610a935760405162461bcd60e51b815260206004820152601a60248201527f4c65737320616c6c6f77616e6365207468616e206e656564656400000000000060448201526064016103e6565b6001546040516370a0823160e01b8152306004820152662386f26fc10000916001600160a01b0316906370a0823190602401602060405180830381865afa158015610ae2573d6000803e3d6000fd5b505050506040513d601f19601f82011682018060405250810190610b069190611036565b11610b535760405162461bcd60e51b815260206004820152601260248201527f496e73756666696369656e742066756e6473000000000000000000000000000060448201526064016103e6565b60015460405163095ea7b360e01b8152306004820152662386f26fc1000060248201526001600160a01b039091169063095ea7b3906044016020604051808303816000875af1158015610baa573d6000803e3d6000fd5b505050506040513d601f19601f82011682018060405250810190610bce9190611001565b506001546040516323b872dd60e01b8152306004820152336024820152662386f26fc1000060448201526001600160a01b03909116906323b872dd906064016020604051808303816000875af1158015610c2c573d6000803e3d6000fd5b505050506040513d601f19601f820116820180604052508101906106bc9190611001565b610c58610ec7565b610c626000610ef4565b565b610c6c610ec7565b600555565b610c79610ec7565b6006805473ffffffffffffffffffffffffffffffffffffffff19166001600160a01b0392909216919091179055565b6006546001600160a01b03163314610d025760405162461bcd60e51b815260206004820152601f60248201527f43616c6c6572206973206e6f742074686520506f6c6963794d616e616765720060448201526064016103e6565b803414610d515760405162461bcd60e51b815260206004820152601e60248201527f496e73756666696369656e742046756e6473205472616e73666572726564000060448201526064016103e6565b8060046000828254610d639190611023565b9091555050604080516001600160a01b0384168152602081018390527f9bf27b4e5eb1daa68da6772f8e0b994f96da65aadc40d58b37f58baed878cd0091016106b2565b610daf610ec7565b6001600160a01b038116610dd957604051631e4fbdf760e01b8152600060048201526024016103e6565b6106bc81610ef4565b6001600160a01b038116600090815260026020526040812060010154610e089042610fe8565b6005546001600160a01b03841660009081526002602052604081205492935091670de0b6b3a7640000918491610e3e919061104f565b610e48919061104f565b610e529190611066565b6001600160a01b038416600090815260026020526040812080549293508392909190610e7f908490611023565b90915550506001600160a01b038316600090815260026020908152604080832042600190910155600390915281208054839290610ebd908490611023565b9091555050505050565b6000546001600160a01b03163314610c625760405163118cdaa760e01b81523360048201526024016103e6565b600080546001600160a01b0383811673ffffffffffffffffffffffffffffffffffffffff19831681178455604051919092169283917f8be0079c531659141344cd1fd0a4f28419497f9722a3daafe3b4186f6b6457e09190a35050565b80356001600160a01b0381168114610f6857600080fd5b919050565b600060208284031215610f7f57600080fd5b610f8882610f51565b9392505050565b600060208284031215610fa157600080fd5b5035919050565b60008060408385031215610fbb57600080fd5b610fc483610f51565b946020939093013593505050565b634e487b7160e01b600052601160045260246000fd5b81810381811115610ffb57610ffb610fd2565b92915050565b60006020828403121561101357600080fd5b81518015158114610f8857600080fd5b80820180821115610ffb57610ffb610fd2565b60006020828403121561104857600080fd5b5051919050565b8082028115828204841417610ffb57610ffb610fd2565b60008261108357634e487b7160e01b600052601260045260246000fd5b50049056fea26469706673582212207f5830a85e4a3b228a72d5b4e7f41170e3942b32b9740ba0933bac836d565d1964736f6c634300081a0033",
  "linkReferences": {},
  "deployedLinkReferences": {}
}