{"contracts/PolicyManager.sol":{"PolicyManager":{"abi":[{"inputs":[{"internalType":"address","name":"_safeToken","type":"address"},{"internalType":"address","name":"_insurancePool","type":"address"}],"stateMutability":"nonpayable","type":"constructor"},{"inputs":[{"internalType":"address","name":"owner","type":"address"}],"name":"OwnableInvalidOwner","type":"error"},{"inputs":[{"internalType":"address","name":"account","type":"address"}],"name":"OwnableUnauthorizedAccount","type":"error"},{"anonymous":false,"inputs":[{"indexed":true,"internalType":"uint256","name":"policyId","type":"uint256"},{"indexed":false,"internalType":"address","name":"buyer","type":"address"},{"indexed":false,"internalType":"string","name":"description","type":"string"}],"name":"ClaimCreated","type":"event"},{"anonymous":false,"inputs":[{"indexed":true,"internalType":"address","name":"previousOwner","type":"address"},{"indexed":true,"internalType":"address","name":"newOwner","type":"address"}],"name":"OwnershipTransferred","type":"event"},{"anonymous":false,"inputs":[{"indexed":true,"internalType":"uint256","name":"policyId","type":"uint256"},{"indexed":false,"internalType":"address","name":"owner","type":"address"},{"indexed":false,"internalType":"uint256","name":"claimAmount","type":"uint256"}],"name":"PolicyClaimed","type":"event"},{"anonymous":false,"inputs":[{"indexed":true,"internalType":"uint256","name":"policyId","type":"uint256"},{"indexed":false,"internalType":"address","name":"owner","type":"address"},{"indexed":false,"internalType":"uint256","name":"coverageAmount","type":"uint256"},{"indexed":false,"internalType":"uint256","name":"premium","type":"uint256"},{"indexed":false,"internalType":"uint256","name":"expirationDate","type":"uint256"}],"name":"PolicyCreated","type":"event"},{"anonymous":false,"inputs":[{"indexed":true,"internalType":"uint256","name":"policyId","type":"uint256"},{"indexed":false,"internalType":"address","name":"buyer","type":"address"}],"name":"PolicyPurchased","type":"event"},{"anonymous":false,"inputs":[{"indexed":true,"internalType":"uint256","name":"policyId","type":"uint256"},{"indexed":false,"internalType":"address","name":"buyer","type":"address"},{"indexed":false,"internalType":"uint256","name":"amountPaid","type":"uint256"}],"name":"PremiumPaid","type":"event"},{"inputs":[{"internalType":"uint256","name":"","type":"uint256"}],"name":"Claims","outputs":[{"internalType":"uint256","name":"claimId","type":"uint256"},{"internalType":"uint256","name":"policyId","type":"uint256"},{"internalType":"bool","name":"isVerified","type":"bool"},{"internalType":"bool","name":"isPaid","type":"bool"},{"internalType":"address","name":"buyerAddress","type":"address"},{"internalType":"string","name":"documentIPFSHash","type":"string"},{"internalType":"string","name":"description","type":"string"}],"stateMutability":"view","type":"function"},{"inputs":[{"internalType":"uint256","name":"","type":"uint256"}],"name":"UnverifiedClaims","outputs":[{"internalType":"uint256","name":"claimId","type":"uint256"},{"internalType":"uint256","name":"policyId","type":"uint256"},{"internalType":"bool","name":"isVerified","type":"bool"},{"internalType":"bool","name":"isPaid","type":"bool"},{"internalType":"address","name":"buyerAddress","type":"address"},{"internalType":"string","name":"documentIPFSHash","type":"string"},{"internalType":"string","name":"description","type":"string"}],"stateMutability":"view","type":"function"},{"inputs":[{"internalType":"address","name":"user","type":"address"},{"internalType":"uint256","name":"","type":"uint256"}],"name":"addressToPolicy","outputs":[{"internalType":"uint256","name":"policyIdArray","type":"uint256"}],"stateMutability":"view","type":"function"},{"inputs":[{"internalType":"uint256","name":"coverageAmount","type":"uint256"},{"internalType":"uint256","name":"duration","type":"uint256"},{"internalType":"string","name":"coverageType","type":"string"}],"name":"calculatePremium","outputs":[{"internalType":"uint256","name":"","type":"uint256"}],"stateMutability":"view","type":"function"},{"inputs":[{"internalType":"uint256","name":"policyId","type":"uint256"},{"internalType":"address","name":"owner","type":"address"}],"name":"checkOwnershipOfPolicy","outputs":[{"internalType":"bool","name":"","type":"bool"}],"stateMutability":"view","type":"function"},{"inputs":[{"internalType":"string","name":"_title","type":"string"},{"internalType":"uint256","name":"coverageAmount","type":"uint256"},{"internalType":"string","name":"_description","type":"string"},{"internalType":"uint256","name":"expirationDate","type":"uint256"},{"internalType":"string","name":"coverageType","type":"string"}],"name":"createPolicy","outputs":[{"internalType":"uint256","name":"","type":"uint256"}],"stateMutability":"nonpayable","type":"function"},{"inputs":[],"name":"getAllPolicies","outputs":[{"components":[{"internalType":"uint256","name":"id","type":"uint256"},{"internalType":"address","name":"owner","type":"address"},{"internalType":"string","name":"title","type":"string"},{"internalType":"string","name":"description","type":"string"},{"internalType":"uint256","name":"coverageAmount","type":"uint256"},{"internalType":"uint256","name":"premium","type":"uint256"},{"internalType":"uint256","name":"expirationDate","type":"uint256"},{"internalType":"bool","name":"isActive","type":"bool"},{"internalType":"string","name":"coverageType","type":"string"},{"internalType":"uint256","name":"nextPremiumDate","type":"uint256"}],"internalType":"struct IPolicyManager.Policy[]","name":"","type":"tuple[]"}],"stateMutability":"view","type":"function"},{"inputs":[{"internalType":"address","name":"user","type":"address"}],"name":"getAllPoliciesForUser","outputs":[{"components":[{"internalType":"uint256","name":"id","type":"uint256"},{"internalType":"address","name":"owner","type":"address"},{"internalType":"string","name":"title","type":"string"},{"internalType":"string","name":"description","type":"string"},{"internalType":"uint256","name":"coverageAmount","type":"uint256"},{"internalType":"uint256","name":"premium","type":"uint256"},{"internalType":"uint256","name":"expirationDate","type":"uint256"},{"internalType":"bool","name":"isActive","type":"bool"},{"internalType":"string","name":"coverageType","type":"string"},{"internalType":"uint256","name":"nextPremiumDate","type":"uint256"}],"internalType":"struct IPolicyManager.Policy[]","name":"","type":"tuple[]"}],"stateMutability":"view","type":"function"},{"inputs":[],"name":"getAllUnverifiedClaims","outputs":[{"components":[{"internalType":"uint256","name":"claimId","type":"uint256"},{"internalType":"uint256","name":"policyId","type":"uint256"},{"internalType":"bool","name":"isVerified","type":"bool"},{"internalType":"bool","name":"isPaid","type":"bool"},{"internalType":"address","name":"buyerAddress","type":"address"},{"internalType":"string","name":"documentIPFSHash","type":"string"},{"internalType":"string","name":"description","type":"string"}],"internalType":"struct IPolicyManager.Claim[]","name":"","type":"tuple[]"}],"stateMutability":"view","type":"function"},{"inputs":[{"internalType":"uint256","name":"policyId","type":"uint256"}],"name":"getPolicyDetails","outputs":[{"components":[{"internalType":"uint256","name":"id","type":"uint256"},{"internalType":"address","name":"owner","type":"address"},{"internalType":"string","name":"title","type":"string"},{"internalType":"string","name":"description","type":"string"},{"internalType":"uint256","name":"coverageAmount","type":"uint256"},{"internalType":"uint256","name":"premium","type":"uint256"},{"internalType":"uint256","name":"expirationDate","type":"uint256"},{"internalType":"bool","name":"isActive","type":"bool"},{"internalType":"string","name":"coverageType","type":"string"},{"internalType":"uint256","name":"nextPremiumDate","type":"uint256"}],"internalType":"struct IPolicyManager.Policy","name":"","type":"tuple"}],"stateMutability":"view","type":"function"},{"inputs":[],"name":"insurancePool","outputs":[{"internalType":"contract IInsurancePool","name":"","type":"address"}],"stateMutability":"view","type":"function"},{"inputs":[],"name":"nextClaimId","outputs":[{"internalType":"uint256","name":"","type":"uint256"}],"stateMutability":"view","type":"function"},{"inputs":[],"name":"nextPolicyId","outputs":[{"internalType":"uint256","name":"","type":"uint256"}],"stateMutability":"view","type":"function"},{"inputs":[],"name":"owner","outputs":[{"internalType":"address","name":"","type":"address"}],"stateMutability":"view","type":"function"},{"inputs":[{"internalType":"uint256","name":"userPolicyId","type":"uint256"}],"name":"payPremium","outputs":[],"stateMutability":"payable","type":"function"},{"inputs":[{"internalType":"uint256","name":"","type":"uint256"}],"name":"policies","outputs":[{"internalType":"uint256","name":"id","type":"uint256"},{"internalType":"address","name":"owner","type":"address"},{"internalType":"string","name":"title","type":"string"},{"internalType":"string","name":"description","type":"string"},{"internalType":"uint256","name":"coverageAmount","type":"uint256"},{"internalType":"uint256","name":"premium","type":"uint256"},{"internalType":"uint256","name":"expirationDate","type":"uint256"},{"internalType":"bool","name":"isActive","type":"bool"},{"internalType":"string","name":"coverageType","type":"string"},{"internalType":"uint256","name":"nextPremiumDate","type":"uint256"}],"stateMutability":"view","type":"function"},{"inputs":[{"internalType":"uint256","name":"policyId","type":"uint256"}],"name":"purchasePolicy","outputs":[],"stateMutability":"payable","type":"function"},{"inputs":[],"name":"renounceOwnership","outputs":[],"stateMutability":"nonpayable","type":"function"},{"inputs":[],"name":"safeToken","outputs":[{"internalType":"contract IToken","name":"","type":"address"}],"stateMutability":"view","type":"function"},{"inputs":[{"internalType":"address","name":"newOwner","type":"address"}],"name":"transferOwnership","outputs":[],"stateMutability":"nonpayable","type":"function"},{"inputs":[{"internalType":"uint256","name":"claimId","type":"uint256"}],"name":"verifyClaim","outputs":[],"stateMutability":"nonpayable","type":"function"}],"evm":{"bytecode":{"linkReferences":{},"object":"60806040526001600455600160055534801561001a57600080fd5b506040516125a13803806125a183398101604081905261003991610106565b338061005f57604051631e4fbdf760e01b81526000600482015260240160405180910390fd5b6100688161009a565b50600180546001600160a01b039384166001600160a01b03199182161790915560028054929093169116179055610139565b600080546001600160a01b038381166001600160a01b0319831681178455604051919092169283917f8be0079c531659141344cd1fd0a4f28419497f9722a3daafe3b4186f6b6457e09190a35050565b80516001600160a01b038116811461010157600080fd5b919050565b6000806040838503121561011957600080fd5b610122836100ea565b9150610130602084016100ea565b90509250929050565b612459806101486000396000f3fe60806040526004361061013a5760003560e01c8063a0021cf1116100bb578063c1260c9a1161007f578063d3e8948311610059578063d3e89483146103a5578063e0062179146103db578063f2fde38b146103fb57600080fd5b8063c1260c9a1461034f578063cad0b8db14610362578063cc0380101461037857600080fd5b8063a0021cf1146102b9578063ab2adc00146102cf578063bb1e110d146102ef578063bbc56e2a1461030f578063c0d7e2b61461032f57600080fd5b80636ba357e5116101025780636ba357e514610205578063715018a6146102335780637e469f51146102485780638da5cb5b146102685780639e34c7d21461028657600080fd5b80630a3c3f9c1461013f5780631258ee9c146101745780634364b26e14610196578063457e5521146101ab5780634b3fd05a146101cd575b600080fd5b34801561014b57600080fd5b5061015f61015a366004611ccc565b61041b565b60405190151581526020015b60405180910390f35b34801561018057600080fd5b5061018961045f565b60405161016b9190611d3e565b6101a96101a4366004611e09565b610631565b005b3480156101b757600080fd5b506101c0610817565b60405161016b9190611ede565b3480156101d957600080fd5b506001546101ed906001600160a01b031681565b6040516001600160a01b03909116815260200161016b565b34801561021157600080fd5b50610225610220366004611fdc565b610ad7565b60405190815260200161016b565b34801561023f57600080fd5b506101a9610d51565b34801561025457600080fd5b506101c0610263366004612084565b610d65565b34801561027457600080fd5b506000546001600160a01b03166101ed565b34801561029257600080fd5b506102a66102a1366004611e09565b61103a565b60405161016b97969594939291906120a6565b3480156102c557600080fd5b5061022560055481565b3480156102db57600080fd5b506002546101ed906001600160a01b031681565b3480156102fb57600080fd5b5061022561030a366004612104565b611199565b34801561031b57600080fd5b506102a661032a366004611e09565b6111ca565b34801561033b57600080fd5b506101a961034a366004611e09565b61122b565b6101a961035d366004611e09565b6114b9565b34801561036e57600080fd5b5061022560045481565b34801561038457600080fd5b50610398610393366004611e09565b611624565b60405161016b919061212e565b3480156103b157600080fd5b506103c56103c0366004611e09565b61185f565b60405161016b9a99989796959493929190612141565b3480156103e757600080fd5b506102256103f63660046121c5565b611a56565b34801561040757600080fd5b506101a9610416366004612084565b611b3c565b6001600160a01b03811660009081526006602052604081208160015b82548110156104545780860361044c57600191505b600101610437565b509150505b92915050565b60606008805480602002602001604051908101604052809291908181526020016000905b828210156106285760008481526020908190206040805160e0810182526005860290920180548352600181015493830193909352600283015460ff8082161515928401929092526101008104909116151560608301526201000090046001600160a01b0316608082015260038201805491929160a08401919061050590612215565b80601f016020809104026020016040519081016040528092919081815260200182805461053190612215565b801561057e5780601f106105535761010080835404028352916020019161057e565b820191906000526020600020905b81548152906001019060200180831161056157829003601f168201915b5050505050815260200160048201805461059790612215565b80601f01602080910402602001604051908101604052809291908181526020018280546105c390612215565b80156106105780601f106105e557610100808354040283529160200191610610565b820191906000526020600020905b8154815290600101906020018083116105f357829003601f168201915b50505050508152505081526020019060010190610483565b50505050905090565b3360009081526006602052604081208291805b82548110156106615780840361065957600191505b600101610644565b50806106b45760405162461bcd60e51b815260206004820152601e60248201527f5573657220646f6573206e6f742070757263686173656420706f6c696379000060448201526064015b60405180910390fd5b600084815260036020526040902060068101544211156107075760405162461bcd60e51b815260206004820152600e60248201526d141bdb1a58de48195e1c1a5c995960921b60448201526064016106ab565b600581015434811461075b5760405162461bcd60e51b815260206004820152601760248201527f496e73756666696369656e742066756e64732073656e7400000000000000000060448201526064016106ab565b60025460405163d5a867b760e01b815233600482015234602482018190526001600160a01b039092169163d5a867b7916044016000604051808303818588803b1580156107a757600080fd5b505af11580156107bb573d6000803e3d6000fd5b50505050504262f7da006107cf9190612265565b6009830155604080513381526020810183905287917ffbf1458fbbddabb878de144276216e8ccda619cbac2d598e6ee37ff72173afb1910160405180910390a2505050505050565b60045460609060008167ffffffffffffffff81111561083857610838611f37565b60405190808252806020026020018201604052801561087157816020015b61085e611c04565b8152602001906001900390816108565790505b50905060015b82811015610ad0576000818152600360209081526040918290208251610140810184528154815260018201546001600160a01b03169281019290925260028101805492939192918401916108ca90612215565b80601f01602080910402602001604051908101604052809291908181526020018280546108f690612215565b80156109435780601f1061091857610100808354040283529160200191610943565b820191906000526020600020905b81548152906001019060200180831161092657829003601f168201915b5050505050815260200160038201805461095c90612215565b80601f016020809104026020016040519081016040528092919081815260200182805461098890612215565b80156109d55780601f106109aa576101008083540402835291602001916109d5565b820191906000526020600020905b8154815290600101906020018083116109b857829003601f168201915b5050509183525050600482015460208201526005820154604082015260068201546060820152600782015460ff161515608082015260088201805460a090920191610a1f90612215565b80601f0160208091040260200160405190810160405280929190818152602001828054610a4b90612215565b8015610a985780601f10610a6d57610100808354040283529160200191610a98565b820191906000526020600020905b815481529060010190602001808311610a7b57829003601f168201915b50505050508152602001600982015481525050828281518110610abd57610abd612278565b6020908102919091010152600101610877565b5092915050565b6000610ae1611b7a565b6000610aee868585611a56565b6001546002546040516323b872dd60e01b81523360048201526001600160a01b0391821660248201526044810184905292935016906323b872dd906064016020604051808303816000875af1158015610b4b573d6000803e3d6000fd5b505050506040513d601f19601f82011682018060405250810190610b6f919061228e565b610bbb5760405162461bcd60e51b815260206004820152601660248201527f5072656d69756d207061796d656e74206661696c65640000000000000000000060448201526064016106ab565b6004805460009182610bcc836122b0565b919050559050604051806101400160405280828152602001336001600160a01b031681526020018981526020018781526020018881526020018381526020018681526020016001151581526020018581526020014262f7da00610c2f9190612265565b9052600082815260036020908152604091829020835181559083015160018201805473ffffffffffffffffffffffffffffffffffffffff19166001600160a01b03909216919091179055908201516002820190610c8c9082612318565b5060608201516003820190610ca19082612318565b506080820151600482015560a0820151600582015560c0820151600682015560e082015160078201805460ff19169115159190911790556101008201516008820190610ced9082612318565b50610120919091015160099091015560408051338152602081018990529081018390526060810186905281907fdd4dcb2ef94f82921d5c77e9cf4e5c8dd423fb1de1310a243115b95316f257779060800160405180910390a2979650505050505050565b610d59611b7a565b610d636000611ba7565b565b6001600160a01b0381166000908152600660205260408120546060918167ffffffffffffffff811115610d9a57610d9a611f37565b604051908082528060200260200182016040528015610dd357816020015b610dc0611c04565b815260200190600190039081610db85790505b50905060015b82811015611032576000818152600360209081526040918290208251610140810184528154815260018201546001600160a01b0316928101929092526002810180549293919291840191610e2c90612215565b80601f0160208091040260200160405190810160405280929190818152602001828054610e5890612215565b8015610ea55780601f10610e7a57610100808354040283529160200191610ea5565b820191906000526020600020905b815481529060010190602001808311610e8857829003601f168201915b50505050508152602001600382018054610ebe90612215565b80601f0160208091040260200160405190810160405280929190818152602001828054610eea90612215565b8015610f375780601f10610f0c57610100808354040283529160200191610f37565b820191906000526020600020905b815481529060010190602001808311610f1a57829003601f168201915b5050509183525050600482015460208201526005820154604082015260068201546060820152600782015460ff161515608082015260088201805460a090920191610f8190612215565b80601f0160208091040260200160405190810160405280929190818152602001828054610fad90612215565b8015610ffa5780601f10610fcf57610100808354040283529160200191610ffa565b820191906000526020600020905b815481529060010190602001808311610fdd57829003601f168201915b5050505050815260200160098201548152505082828151811061101f5761101f612278565b6020908102919091010152600101610dd9565b509392505050565b60076020526000908152604090208054600182015460028301546003840180549394929360ff808416946101008504909116936201000090046001600160a01b031692909161108890612215565b80601f01602080910402602001604051908101604052809291908181526020018280546110b490612215565b80156111015780601f106110d657610100808354040283529160200191611101565b820191906000526020600020905b8154815290600101906020018083116110e457829003601f168201915b50505050509080600401805461111690612215565b80601f016020809104026020016040519081016040528092919081815260200182805461114290612215565b801561118f5780601f106111645761010080835404028352916020019161118f565b820191906000526020600020905b81548152906001019060200180831161117257829003601f168201915b5050505050905087565b600660205281600052604060002081815481106111b557600080fd5b90600052602060002001600091509150505481565b600881815481106111da57600080fd5b60009182526020909120600590910201805460018201546002830154600384018054939550919360ff80831694610100840490911693620100009093046001600160a01b0316929061108890612215565b611233611b7a565b6000818152600760209081526040808320600181015480855260039093529083209092611260833361041b565b90506008548511156112b45760405162461bcd60e51b815260206004820152601460248201527f436c61696d20646f6573206e6f7420657869737400000000000000000000000060448201526064016106ab565b8061130b5760405162461bcd60e51b815260206004820152602160248201527f5573657220646f65736e2774207075726368617365642074686520706f6c69636044820152607960f81b60648201526084016106ab565b60028054908501546004848101546040516350802e3f60e01b81526001600160a01b036201000090940484169281019290925260248201529116906350802e3f90604401600060405180830381600087803b15801561136957600080fd5b505af192505050801561137a575060015b6113c65760405162461bcd60e51b815260206004820152601060248201527f436c61696d20506179204661696c65640000000000000000000000000000000060448201526064016106ab565b60028401805461ffff19166101011790553360009081526006602052604090208054849081106113f8576113f8612278565b90600052602060002001600090556008858154811061141957611419612278565b6000918252602082206005909102018181556001810182905560028101805475ffffffffffffffffffffffffffffffffffffffffffff19169055906114616003830182611c62565b61146f600483016000611c62565b5050600482015460408051338152602081019290925284917f5f2564c1ad353e58b81e7bd6cd0e6b1a3f52f46ab4c59c2cadfbaacc4b2e5716910160405180910390a25050505050565b6000818152600360205260409020600681015442111561150c5760405162461bcd60e51b815260206004820152600e60248201526d141bdb1a58de48195e1c1a5c995960921b60448201526064016106ab565b60058101543481146115605760405162461bcd60e51b815260206004820152601760248201527f496e73756666696369656e742066756e64732073656e7400000000000000000060448201526064016106ab565b60025460405163d5a867b760e01b815233600482015234602482018190526001600160a01b039092169163d5a867b7916044016000604051808303818588803b1580156115ac57600080fd5b505af11580156115c0573d6000803e3d6000fd5b505033600081815260066020908152604080832080546001810182559084529282902090920189905590519182528794507f60d59b58b916d11d0ac52c397e342e25ae6dc5da412115d469d304bf4dd86404935001905060405180910390a2505050565b61162c611c04565b6000828152600360209081526040918290208251610140810184528154815260018201546001600160a01b031692810192909252600281018054929391929184019161167790612215565b80601f01602080910402602001604051908101604052809291908181526020018280546116a390612215565b80156116f05780601f106116c5576101008083540402835291602001916116f0565b820191906000526020600020905b8154815290600101906020018083116116d357829003601f168201915b5050505050815260200160038201805461170990612215565b80601f016020809104026020016040519081016040528092919081815260200182805461173590612215565b80156117825780601f1061175757610100808354040283529160200191611782565b820191906000526020600020905b81548152906001019060200180831161176557829003601f168201915b5050509183525050600482015460208201526005820154604082015260068201546060820152600782015460ff161515608082015260088201805460a0909201916117cc90612215565b80601f01602080910402602001604051908101604052809291908181526020018280546117f890612215565b80156118455780601f1061181a57610100808354040283529160200191611845565b820191906000526020600020905b81548152906001019060200180831161182857829003601f168201915b505050505081526020016009820154815250509050919050565b60036020526000908152604090208054600182015460028301805492936001600160a01b039092169261189190612215565b80601f01602080910402602001604051908101604052809291908181526020018280546118bd90612215565b801561190a5780601f106118df5761010080835404028352916020019161190a565b820191906000526020600020905b8154815290600101906020018083116118ed57829003601f168201915b50505050509080600301805461191f90612215565b80601f016020809104026020016040519081016040528092919081815260200182805461194b90612215565b80156119985780601f1061196d57610100808354040283529160200191611998565b820191906000526020600020905b81548152906001019060200180831161197b57829003601f168201915b50505060048401546005850154600686015460078701546008880180549798949793965091945060ff1692916119cd90612215565b80601f01602080910402602001604051908101604052809291908181526020018280546119f990612215565b8015611a465780601f10611a1b57610100808354040283529160200191611a46565b820191906000526020600020905b815481529060010190602001808311611a2957829003601f168201915b505050505090806009015490508a565b60408051808201909152600d81526c65786368616e67655f6861636b60981b6020918201528151908201206000906001907f9ce6d996e301f1a8dbe98e70d7ee122705f835685b12126ac0a10719928d58a601611ab557506002611b06565b604080518082019091526009815268646566695f7269736b60b81b6020918201528351908401207f11d5ea21445d5ba4825480a12abe0b412ab4900a5c16f8c4ae8c5798bfb514a001611b06575060035b63bbf81e00611b1542866123d7565b611b1f83886123ea565b611b2991906123ea565b611b339190612401565b95945050505050565b611b44611b7a565b6001600160a01b038116611b6e57604051631e4fbdf760e01b8152600060048201526024016106ab565b611b7781611ba7565b50565b6000546001600160a01b03163314610d635760405163118cdaa760e01b81523360048201526024016106ab565b600080546001600160a01b0383811673ffffffffffffffffffffffffffffffffffffffff19831681178455604051919092169283917f8be0079c531659141344cd1fd0a4f28419497f9722a3daafe3b4186f6b6457e09190a35050565b6040518061014001604052806000815260200160006001600160a01b03168152602001606081526020016060815260200160008152602001600081526020016000815260200160001515815260200160608152602001600081525090565b508054611c6e90612215565b6000825580601f10611c7e575050565b601f016020900490600052602060002090810190611b7791905b80821115611cac5760008155600101611c98565b5090565b80356001600160a01b0381168114611cc757600080fd5b919050565b60008060408385031215611cdf57600080fd5b82359150611cef60208401611cb0565b90509250929050565b6000815180845260005b81811015611d1e57602081850181015186830182015201611d02565b506000602082860101526020601f19601f83011685010191505092915050565b6000602082016020835280845180835260408501915060408160051b86010192506020860160005b82811015611dfd57603f19878603018452815180518652602081015160208701526040810151151560408701526060810151151560608701526001600160a01b03608082015116608087015260a081015160e060a0880152611dcb60e0880182611cf8565b905060c0820151915086810360c0880152611de68183611cf8565b965050506020938401939190910190600101611d66565b50929695505050505050565b600060208284031215611e1b57600080fd5b5035919050565b8051825260006020820151611e4260208501826001600160a01b03169052565b5060408201516101406040850152611e5e610140850182611cf8565b905060608301518482036060860152611e778282611cf8565b9150506080830151608085015260a083015160a085015260c083015160c085015260e0830151611eab60e086018215159052565b50610100830151848203610100860152611ec58282611cf8565b9150506101208301516101208501528091505092915050565b6000602082016020835280845180835260408501915060408160051b86010192506020860160005b82811015611dfd57603f19878603018452611f22858351611e22565b94506020938401939190910190600101611f06565b634e487b7160e01b600052604160045260246000fd5b600082601f830112611f5e57600080fd5b813567ffffffffffffffff811115611f7857611f78611f37565b604051601f8201601f19908116603f0116810167ffffffffffffffff81118282101715611fa757611fa7611f37565b604052818152838201602001851015611fbf57600080fd5b816020850160208301376000918101602001919091529392505050565b600080600080600060a08688031215611ff457600080fd5b853567ffffffffffffffff81111561200b57600080fd5b61201788828901611f4d565b95505060208601359350604086013567ffffffffffffffff81111561203b57600080fd5b61204788828901611f4d565b93505060608601359150608086013567ffffffffffffffff81111561206b57600080fd5b61207788828901611f4d565b9150509295509295909350565b60006020828403121561209657600080fd5b61209f82611cb0565b9392505050565b878152866020820152851515604082015284151560608201526001600160a01b038416608082015260e060a082015260006120e460e0830185611cf8565b82810360c08401526120f68185611cf8565b9a9950505050505050505050565b6000806040838503121561211757600080fd5b61212083611cb0565b946020939093013593505050565b60208152600061209f6020830184611e22565b8a81526001600160a01b038a1660208201526101406040820152600061216b61014083018b611cf8565b828103606084015261217d818b611cf8565b90508860808401528760a08401528660c084015285151560e08401528281036101008401526121ac8186611cf8565b915050826101208301529b9a5050505050505050505050565b6000806000606084860312156121da57600080fd5b8335925060208401359150604084013567ffffffffffffffff8111156121ff57600080fd5b61220b86828701611f4d565b9150509250925092565b600181811c9082168061222957607f821691505b60208210810361224957634e487b7160e01b600052602260045260246000fd5b50919050565b634e487b7160e01b600052601160045260246000fd5b808201808211156104595761045961224f565b634e487b7160e01b600052603260045260246000fd5b6000602082840312156122a057600080fd5b8151801515811461209f57600080fd5b6000600182016122c2576122c261224f565b5060010190565b601f82111561231357806000526020600020601f840160051c810160208510156122f05750805b601f840160051c820191505b8181101561231057600081556001016122fc565b50505b505050565b815167ffffffffffffffff81111561233257612332611f37565b612346816123408454612215565b846122c9565b6020601f82116001811461237a57600083156123625750848201515b600019600385901b1c1916600184901b178455612310565b600084815260208120601f198516915b828110156123aa578785015182556020948501946001909201910161238a565b50848210156123c85786840151600019600387901b60f8161c191681555b50505050600190811b01905550565b818103818111156104595761045961224f565b80820281158282048414176104595761045961224f565b60008261241e57634e487b7160e01b600052601260045260246000fd5b50049056fea26469706673582212208c124c78df853cb2fa82145f11c2ed7cfe9241d3bbf4920dac7feaed51f9772864736f6c634300081a0033","opcodes":"PUSH1 0x80 PUSH1 0x40 MSTORE PUSH1 0x1 PUSH1 0x4 SSTORE PUSH1 0x1 PUSH1 0x5 SSTORE CALLVALUE DUP1 ISZERO PUSH2 0x1A JUMPI PUSH1 0x0 DUP1 REVERT JUMPDEST POP PUSH1 0x40 MLOAD PUSH2 0x25A1 CODESIZE SUB DUP1 PUSH2 0x25A1 DUP4 CODECOPY DUP2 ADD PUSH1 0x40 DUP2 SWAP1 MSTORE PUSH2 0x39 SWAP2 PUSH2 0x106 JUMP JUMPDEST CALLER DUP1 PUSH2 0x5F JUMPI PUSH1 0x40 MLOAD PUSH4 0x1E4FBDF7 PUSH1 0xE0 SHL DUP2 MSTORE PUSH1 0x0 PUSH1 0x4 DUP3 ADD MSTORE PUSH1 0x24 ADD PUSH1 0x40 MLOAD DUP1 SWAP2 SUB SWAP1 REVERT JUMPDEST PUSH2 0x68 DUP2 PUSH2 0x9A JUMP JUMPDEST POP PUSH1 0x1 DUP1 SLOAD PUSH1 0x1 PUSH1 0x1 PUSH1 0xA0 SHL SUB SWAP4 DUP5 AND PUSH1 0x1 PUSH1 0x1 PUSH1 0xA0 SHL SUB NOT SWAP2 DUP3 AND OR SWAP1 SWAP2 SSTORE PUSH1 0x2 DUP1 SLOAD SWAP3 SWAP1 SWAP4 AND SWAP2 AND OR SWAP1 SSTORE PUSH2 0x139 JUMP JUMPDEST PUSH1 0x0 DUP1 SLOAD PUSH1 0x1 PUSH1 0x1 PUSH1 0xA0 SHL SUB DUP4 DUP2 AND PUSH1 0x1 PUSH1 0x1 PUSH1 0xA0 SHL SUB NOT DUP4 AND DUP2 OR DUP5 SSTORE PUSH1 0x40 MLOAD SWAP2 SWAP1 SWAP3 AND SWAP3 DUP4 SWAP2 PUSH32 0x8BE0079C531659141344CD1FD0A4F28419497F9722A3DAAFE3B4186F6B6457E0 SWAP2 SWAP1 LOG3 POP POP JUMP JUMPDEST DUP1 MLOAD PUSH1 0x1 PUSH1 0x1 PUSH1 0xA0 SHL SUB DUP2 AND DUP2 EQ PUSH2 0x101 JUMPI PUSH1 0x0 DUP1 REVERT JUMPDEST SWAP2 SWAP1 POP JUMP JUMPDEST PUSH1 0x0 DUP1 PUSH1 0x40 DUP4 DUP6 SUB SLT ISZERO PUSH2 0x119 JUMPI PUSH1 0x0 DUP1 REVERT JUMPDEST PUSH2 0x122 DUP4 PUSH2 0xEA JUMP JUMPDEST SWAP2 POP PUSH2 0x130 PUSH1 0x20 DUP5 ADD PUSH2 0xEA JUMP JUMPDEST SWAP1 POP SWAP3 POP SWAP3 SWAP1 POP JUMP JUMPDEST PUSH2 0x2459 DUP1 PUSH2 0x148 PUSH1 0x0 CODECOPY PUSH1 0x0 RETURN INVALID PUSH1 0x80 PUSH1 0x40 MSTORE PUSH1 0x4 CALLDATASIZE LT PUSH2 0x13A JUMPI PUSH1 0x0 CALLDATALOAD PUSH1 0xE0 SHR DUP1 PUSH4 0xA0021CF1 GT PUSH2 0xBB JUMPI DUP1 PUSH4 0xC1260C9A GT PUSH2 0x7F JUMPI DUP1 PUSH4 0xD3E89483 GT PUSH2 0x59 JUMPI DUP1 PUSH4 0xD3E89483 EQ PUSH2 0x3A5 JUMPI DUP1 PUSH4 0xE0062179 EQ PUSH2 0x3DB JUMPI DUP1 PUSH4 0xF2FDE38B EQ PUSH2 0x3FB JUMPI PUSH1 0x0 DUP1 REVERT JUMPDEST DUP1 PUSH4 0xC1260C9A EQ PUSH2 0x34F JUMPI DUP1 PUSH4 0xCAD0B8DB EQ PUSH2 0x362 JUMPI DUP1 PUSH4 0xCC038010 EQ PUSH2 0x378 JUMPI PUSH1 0x0 DUP1 REVERT JUMPDEST DUP1 PUSH4 0xA0021CF1 EQ PUSH2 0x2B9 JUMPI DUP1 PUSH4 0xAB2ADC00 EQ PUSH2 0x2CF JUMPI DUP1 PUSH4 0xBB1E110D EQ PUSH2 0x2EF JUMPI DUP1 PUSH4 0xBBC56E2A EQ PUSH2 0x30F JUMPI DUP1 PUSH4 0xC0D7E2B6 EQ PUSH2 0x32F JUMPI PUSH1 0x0 DUP1 REVERT JUMPDEST DUP1 PUSH4 0x6BA357E5 GT PUSH2 0x102 JUMPI DUP1 PUSH4 0x6BA357E5 EQ PUSH2 0x205 JUMPI DUP1 PUSH4 0x715018A6 EQ PUSH2 0x233 JUMPI DUP1 PUSH4 0x7E469F51 EQ PUSH2 0x248 JUMPI DUP1 PUSH4 0x8DA5CB5B EQ PUSH2 0x268 JUMPI DUP1 PUSH4 0x9E34C7D2 EQ PUSH2 0x286 JUMPI PUSH1 0x0 DUP1 REVERT JUMPDEST DUP1 PUSH4 0xA3C3F9C EQ PUSH2 0x13F JUMPI DUP1 PUSH4 0x1258EE9C EQ PUSH2 0x174 JUMPI DUP1 PUSH4 0x4364B26E EQ PUSH2 0x196 JUMPI DUP1 PUSH4 0x457E5521 EQ PUSH2 0x1AB JUMPI DUP1 PUSH4 0x4B3FD05A EQ PUSH2 0x1CD JUMPI JUMPDEST PUSH1 0x0 DUP1 REVERT JUMPDEST CALLVALUE DUP1 ISZERO PUSH2 0x14B JUMPI PUSH1 0x0 DUP1 REVERT JUMPDEST POP PUSH2 0x15F PUSH2 0x15A CALLDATASIZE PUSH1 0x4 PUSH2 0x1CCC JUMP JUMPDEST PUSH2 0x41B JUMP JUMPDEST PUSH1 0x40 MLOAD SWAP1 ISZERO ISZERO DUP2 MSTORE PUSH1 0x20 ADD JUMPDEST PUSH1 0x40 MLOAD DUP1 SWAP2 SUB SWAP1 RETURN JUMPDEST CALLVALUE DUP1 ISZERO PUSH2 0x180 JUMPI PUSH1 0x0 DUP1 REVERT JUMPDEST POP PUSH2 0x189 PUSH2 0x45F JUMP JUMPDEST PUSH1 0x40 MLOAD PUSH2 0x16B SWAP2 SWAP1 PUSH2 0x1D3E JUMP JUMPDEST PUSH2 0x1A9 PUSH2 0x1A4 CALLDATASIZE PUSH1 0x4 PUSH2 0x1E09 JUMP JUMPDEST PUSH2 0x631 JUMP JUMPDEST STOP JUMPDEST CALLVALUE DUP1 ISZERO PUSH2 0x1B7 JUMPI PUSH1 0x0 DUP1 REVERT JUMPDEST POP PUSH2 0x1C0 PUSH2 0x817 JUMP JUMPDEST PUSH1 0x40 MLOAD PUSH2 0x16B SWAP2 SWAP1 PUSH2 0x1EDE JUMP JUMPDEST CALLVALUE DUP1 ISZERO PUSH2 0x1D9 JUMPI PUSH1 0x0 DUP1 REVERT JUMPDEST POP PUSH1 0x1 SLOAD PUSH2 0x1ED SWAP1 PUSH1 0x1 PUSH1 0x1 PUSH1 0xA0 SHL SUB AND DUP2 JUMP JUMPDEST PUSH1 0x40 MLOAD PUSH1 0x1 PUSH1 0x1 PUSH1 0xA0 SHL SUB SWAP1 SWAP2 AND DUP2 MSTORE PUSH1 0x20 ADD PUSH2 0x16B JUMP JUMPDEST CALLVALUE DUP1 ISZERO PUSH2 0x211 JUMPI PUSH1 0x0 DUP1 REVERT JUMPDEST POP PUSH2 0x225 PUSH2 0x220 CALLDATASIZE PUSH1 0x4 PUSH2 0x1FDC JUMP JUMPDEST PUSH2 0xAD7 JUMP JUMPDEST PUSH1 0x40 MLOAD SWAP1 DUP2 MSTORE PUSH1 0x20 ADD PUSH2 0x16B JUMP JUMPDEST CALLVALUE DUP1 ISZERO PUSH2 0x23F JUMPI PUSH1 0x0 DUP1 REVERT JUMPDEST POP PUSH2 0x1A9 PUSH2 0xD51 JUMP JUMPDEST CALLVALUE DUP1 ISZERO PUSH2 0x254 JUMPI PUSH1 0x0 DUP1 REVERT JUMPDEST POP PUSH2 0x1C0 PUSH2 0x263 CALLDATASIZE PUSH1 0x4 PUSH2 0x2084 JUMP JUMPDEST PUSH2 0xD65 JUMP JUMPDEST CALLVALUE DUP1 ISZERO PUSH2 0x274 JUMPI PUSH1 0x0 DUP1 REVERT JUMPDEST POP PUSH1 0x0 SLOAD PUSH1 0x1 PUSH1 0x1 PUSH1 0xA0 SHL SUB AND PUSH2 0x1ED JUMP JUMPDEST CALLVALUE DUP1 ISZERO PUSH2 0x292 JUMPI PUSH1 0x0 DUP1 REVERT JUMPDEST POP PUSH2 0x2A6 PUSH2 0x2A1 CALLDATASIZE PUSH1 0x4 PUSH2 0x1E09 JUMP JUMPDEST PUSH2 0x103A JUMP JUMPDEST PUSH1 0x40 MLOAD PUSH2 0x16B SWAP8 SWAP7 SWAP6 SWAP5 SWAP4 SWAP3 SWAP2 SWAP1 PUSH2 0x20A6 JUMP JUMPDEST CALLVALUE DUP1 ISZERO PUSH2 0x2C5 JUMPI PUSH1 0x0 DUP1 REVERT JUMPDEST POP PUSH2 0x225 PUSH1 0x5 SLOAD DUP2 JUMP JUMPDEST CALLVALUE DUP1 ISZERO PUSH2 0x2DB JUMPI PUSH1 0x0 DUP1 REVERT JUMPDEST POP PUSH1 0x2 SLOAD PUSH2 0x1ED SWAP1 PUSH1 0x1 PUSH1 0x1 PUSH1 0xA0 SHL SUB AND DUP2 JUMP JUMPDEST CALLVALUE DUP1 ISZERO PUSH2 0x2FB JUMPI PUSH1 0x0 DUP1 REVERT JUMPDEST POP PUSH2 0x225 PUSH2 0x30A CALLDATASIZE PUSH1 0x4 PUSH2 0x2104 JUMP JUMPDEST PUSH2 0x1199 JUMP JUMPDEST CALLVALUE DUP1 ISZERO PUSH2 0x31B JUMPI PUSH1 0x0 DUP1 REVERT JUMPDEST POP PUSH2 0x2A6 PUSH2 0x32A CALLDATASIZE PUSH1 0x4 PUSH2 0x1E09 JUMP JUMPDEST PUSH2 0x11CA JUMP JUMPDEST CALLVALUE DUP1 ISZERO PUSH2 0x33B JUMPI PUSH1 0x0 DUP1 REVERT JUMPDEST POP PUSH2 0x1A9 PUSH2 0x34A CALLDATASIZE PUSH1 0x4 PUSH2 0x1E09 JUMP JUMPDEST PUSH2 0x122B JUMP JUMPDEST PUSH2 0x1A9 PUSH2 0x35D CALLDATASIZE PUSH1 0x4 PUSH2 0x1E09 JUMP JUMPDEST PUSH2 0x14B9 JUMP JUMPDEST CALLVALUE DUP1 ISZERO PUSH2 0x36E JUMPI PUSH1 0x0 DUP1 REVERT JUMPDEST POP PUSH2 0x225 PUSH1 0x4 SLOAD DUP2 JUMP JUMPDEST CALLVALUE DUP1 ISZERO PUSH2 0x384 JUMPI PUSH1 0x0 DUP1 REVERT JUMPDEST POP PUSH2 0x398 PUSH2 0x393 CALLDATASIZE PUSH1 0x4 PUSH2 0x1E09 JUMP JUMPDEST PUSH2 0x1624 JUMP JUMPDEST PUSH1 0x40 MLOAD PUSH2 0x16B SWAP2 SWAP1 PUSH2 0x212E JUMP JUMPDEST CALLVALUE DUP1 ISZERO PUSH2 0x3B1 JUMPI PUSH1 0x0 DUP1 REVERT JUMPDEST POP PUSH2 0x3C5 PUSH2 0x3C0 CALLDATASIZE PUSH1 0x4 PUSH2 0x1E09 JUMP JUMPDEST PUSH2 0x185F JUMP JUMPDEST PUSH1 0x40 MLOAD PUSH2 0x16B SWAP11 SWAP10 SWAP9 SWAP8 SWAP7 SWAP6 SWAP5 SWAP4 SWAP3 SWAP2 SWAP1 PUSH2 0x2141 JUMP JUMPDEST CALLVALUE DUP1 ISZERO PUSH2 0x3E7 JUMPI PUSH1 0x0 DUP1 REVERT JUMPDEST POP PUSH2 0x225 PUSH2 0x3F6 CALLDATASIZE PUSH1 0x4 PUSH2 0x21C5 JUMP JUMPDEST PUSH2 0x1A56 JUMP JUMPDEST CALLVALUE DUP1 ISZERO PUSH2 0x407 JUMPI PUSH1 0x0 DUP1 REVERT JUMPDEST POP PUSH2 0x1A9 PUSH2 0x416 CALLDATASIZE PUSH1 0x4 PUSH2 0x2084 JUMP JUMPDEST PUSH2 0x1B3C JUMP JUMPDEST PUSH1 0x1 PUSH1 0x1 PUSH1 0xA0 SHL SUB DUP2 AND PUSH1 0x0 SWAP1 DUP2 MSTORE PUSH1 0x6 PUSH1 0x20 MSTORE PUSH1 0x40 DUP2 KECCAK256 DUP2 PUSH1 0x1 JUMPDEST DUP3 SLOAD DUP2 LT ISZERO PUSH2 0x454 JUMPI DUP1 DUP7 SUB PUSH2 0x44C JUMPI PUSH1 0x1 SWAP2 POP JUMPDEST PUSH1 0x1 ADD PUSH2 0x437 JUMP JUMPDEST POP SWAP2 POP POP JUMPDEST SWAP3 SWAP2 POP POP JUMP JUMPDEST PUSH1 0x60 PUSH1 0x8 DUP1 SLOAD DUP1 PUSH1 0x20 MUL PUSH1 0x20 ADD PUSH1 0x40 MLOAD SWAP1 DUP2 ADD PUSH1 0x40 MSTORE DUP1 SWAP3 SWAP2 SWAP1 DUP2 DUP2 MSTORE PUSH1 0x20 ADD PUSH1 0x0 SWAP1 JUMPDEST DUP3 DUP3 LT ISZERO PUSH2 0x628 JUMPI PUSH1 0x0 DUP5 DUP2 MSTORE PUSH1 0x20 SWAP1 DUP2 SWAP1 KECCAK256 PUSH1 0x40 DUP1 MLOAD PUSH1 0xE0 DUP2 ADD DUP3 MSTORE PUSH1 0x5 DUP7 MUL SWAP1 SWAP3 ADD DUP1 SLOAD DUP4 MSTORE PUSH1 0x1 DUP2 ADD SLOAD SWAP4 DUP4 ADD SWAP4 SWAP1 SWAP4 MSTORE PUSH1 0x2 DUP4 ADD SLOAD PUSH1 0xFF DUP1 DUP3 AND ISZERO ISZERO SWAP3 DUP5 ADD SWAP3 SWAP1 SWAP3 MSTORE PUSH2 0x100 DUP2 DIV SWAP1 SWAP2 AND ISZERO ISZERO PUSH1 0x60 DUP4 ADD MSTORE PUSH3 0x10000 SWAP1 DIV PUSH1 0x1 PUSH1 0x1 PUSH1 0xA0 SHL SUB AND PUSH1 0x80 DUP3 ADD MSTORE PUSH1 0x3 DUP3 ADD DUP1 SLOAD SWAP2 SWAP3 SWAP2 PUSH1 0xA0 DUP5 ADD SWAP2 SWAP1 PUSH2 0x505 SWAP1 PUSH2 0x2215 JUMP JUMPDEST DUP1 PUSH1 0x1F ADD PUSH1 0x20 DUP1 SWAP2 DIV MUL PUSH1 0x20 ADD PUSH1 0x40 MLOAD SWAP1 DUP2 ADD PUSH1 0x40 MSTORE DUP1 SWAP3 SWAP2 SWAP1 DUP2 DUP2 MSTORE PUSH1 0x20 ADD DUP3 DUP1 SLOAD PUSH2 0x531 SWAP1 PUSH2 0x2215 JUMP JUMPDEST DUP1 ISZERO PUSH2 0x57E JUMPI DUP1 PUSH1 0x1F LT PUSH2 0x553 JUMPI PUSH2 0x100 DUP1 DUP4 SLOAD DIV MUL DUP4 MSTORE SWAP2 PUSH1 0x20 ADD SWAP2 PUSH2 0x57E JUMP JUMPDEST DUP3 ADD SWAP2 SWAP1 PUSH1 0x0 MSTORE PUSH1 0x20 PUSH1 0x0 KECCAK256 SWAP1 JUMPDEST DUP2 SLOAD DUP2 MSTORE SWAP1 PUSH1 0x1 ADD SWAP1 PUSH1 0x20 ADD DUP1 DUP4 GT PUSH2 0x561 JUMPI DUP3 SWAP1 SUB PUSH1 0x1F AND DUP3 ADD SWAP2 JUMPDEST POP POP POP POP POP DUP2 MSTORE PUSH1 0x20 ADD PUSH1 0x4 DUP3 ADD DUP1 SLOAD PUSH2 0x597 SWAP1 PUSH2 0x2215 JUMP JUMPDEST DUP1 PUSH1 0x1F ADD PUSH1 0x20 DUP1 SWAP2 DIV MUL PUSH1 0x20 ADD PUSH1 0x40 MLOAD SWAP1 DUP2 ADD PUSH1 0x40 MSTORE DUP1 SWAP3 SWAP2 SWAP1 DUP2 DUP2 MSTORE PUSH1 0x20 ADD DUP3 DUP1 SLOAD PUSH2 0x5C3 SWAP1 PUSH2 0x2215 JUMP JUMPDEST DUP1 ISZERO PUSH2 0x610 JUMPI DUP1 PUSH1 0x1F LT PUSH2 0x5E5 JUMPI PUSH2 0x100 DUP1 DUP4 SLOAD DIV MUL DUP4 MSTORE SWAP2 PUSH1 0x20 ADD SWAP2 PUSH2 0x610 JUMP JUMPDEST DUP3 ADD SWAP2 SWAP1 PUSH1 0x0 MSTORE PUSH1 0x20 PUSH1 0x0 KECCAK256 SWAP1 JUMPDEST DUP2 SLOAD DUP2 MSTORE SWAP1 PUSH1 0x1 ADD SWAP1 PUSH1 0x20 ADD DUP1 DUP4 GT PUSH2 0x5F3 JUMPI DUP3 SWAP1 SUB PUSH1 0x1F AND DUP3 ADD SWAP2 JUMPDEST POP POP POP POP POP DUP2 MSTORE POP POP DUP2 MSTORE PUSH1 0x20 ADD SWAP1 PUSH1 0x1 ADD SWAP1 PUSH2 0x483 JUMP JUMPDEST POP POP POP POP SWAP1 POP SWAP1 JUMP JUMPDEST CALLER PUSH1 0x0 SWAP1 DUP2 MSTORE PUSH1 0x6 PUSH1 0x20 MSTORE PUSH1 0x40 DUP2 KECCAK256 DUP3 SWAP2 DUP1 JUMPDEST DUP3 SLOAD DUP2 LT ISZERO PUSH2 0x661 JUMPI DUP1 DUP5 SUB PUSH2 0x659 JUMPI PUSH1 0x1 SWAP2 POP JUMPDEST PUSH1 0x1 ADD PUSH2 0x644 JUMP JUMPDEST POP DUP1 PUSH2 0x6B4 JUMPI PUSH1 0x40 MLOAD PUSH3 0x461BCD PUSH1 0xE5 SHL DUP2 MSTORE PUSH1 0x20 PUSH1 0x4 DUP3 ADD MSTORE PUSH1 0x1E PUSH1 0x24 DUP3 ADD MSTORE PUSH32 0x5573657220646F6573206E6F742070757263686173656420706F6C6963790000 PUSH1 0x44 DUP3 ADD MSTORE PUSH1 0x64 ADD JUMPDEST PUSH1 0x40 MLOAD DUP1 SWAP2 SUB SWAP1 REVERT JUMPDEST PUSH1 0x0 DUP5 DUP2 MSTORE PUSH1 0x3 PUSH1 0x20 MSTORE PUSH1 0x40 SWAP1 KECCAK256 PUSH1 0x6 DUP2 ADD SLOAD TIMESTAMP GT ISZERO PUSH2 0x707 JUMPI PUSH1 0x40 MLOAD PUSH3 0x461BCD PUSH1 0xE5 SHL DUP2 MSTORE PUSH1 0x20 PUSH1 0x4 DUP3 ADD MSTORE PUSH1 0xE PUSH1 0x24 DUP3 ADD MSTORE PUSH14 0x141BDB1A58DE48195E1C1A5C9959 PUSH1 0x92 SHL PUSH1 0x44 DUP3 ADD MSTORE PUSH1 0x64 ADD PUSH2 0x6AB JUMP JUMPDEST PUSH1 0x5 DUP2 ADD SLOAD CALLVALUE DUP2 EQ PUSH2 0x75B JUMPI PUSH1 0x40 MLOAD PUSH3 0x461BCD PUSH1 0xE5 SHL DUP2 MSTORE PUSH1 0x20 PUSH1 0x4 DUP3 ADD MSTORE PUSH1 0x17 PUSH1 0x24 DUP3 ADD MSTORE PUSH32 0x496E73756666696369656E742066756E64732073656E74000000000000000000 PUSH1 0x44 DUP3 ADD MSTORE PUSH1 0x64 ADD PUSH2 0x6AB JUMP JUMPDEST PUSH1 0x2 SLOAD PUSH1 0x40 MLOAD PUSH4 0xD5A867B7 PUSH1 0xE0 SHL DUP2 MSTORE CALLER PUSH1 0x4 DUP3 ADD MSTORE CALLVALUE PUSH1 0x24 DUP3 ADD DUP2 SWAP1 MSTORE PUSH1 0x1 PUSH1 0x1 PUSH1 0xA0 SHL SUB SWAP1 SWAP3 AND SWAP2 PUSH4 0xD5A867B7 SWAP2 PUSH1 0x44 ADD PUSH1 0x0 PUSH1 0x40 MLOAD DUP1 DUP4 SUB DUP2 DUP6 DUP9 DUP1 EXTCODESIZE ISZERO DUP1 ISZERO PUSH2 0x7A7 JUMPI PUSH1 0x0 DUP1 REVERT JUMPDEST POP GAS CALL ISZERO DUP1 ISZERO PUSH2 0x7BB JUMPI RETURNDATASIZE PUSH1 0x0 DUP1 RETURNDATACOPY RETURNDATASIZE PUSH1 0x0 REVERT JUMPDEST POP POP POP POP POP TIMESTAMP PUSH3 0xF7DA00 PUSH2 0x7CF SWAP2 SWAP1 PUSH2 0x2265 JUMP JUMPDEST PUSH1 0x9 DUP4 ADD SSTORE PUSH1 0x40 DUP1 MLOAD CALLER DUP2 MSTORE PUSH1 0x20 DUP2 ADD DUP4 SWAP1 MSTORE DUP8 SWAP2 PUSH32 0xFBF1458FBBDDABB878DE144276216E8CCDA619CBAC2D598E6EE37FF72173AFB1 SWAP2 ADD PUSH1 0x40 MLOAD DUP1 SWAP2 SUB SWAP1 LOG2 POP POP POP POP POP POP JUMP JUMPDEST PUSH1 0x4 SLOAD PUSH1 0x60 SWAP1 PUSH1 0x0 DUP2 PUSH8 0xFFFFFFFFFFFFFFFF DUP2 GT ISZERO PUSH2 0x838 JUMPI PUSH2 0x838 PUSH2 0x1F37 JUMP JUMPDEST PUSH1 0x40 MLOAD SWAP1 DUP1 DUP3 MSTORE DUP1 PUSH1 0x20 MUL PUSH1 0x20 ADD DUP3 ADD PUSH1 0x40 MSTORE DUP1 ISZERO PUSH2 0x871 JUMPI DUP2 PUSH1 0x20 ADD JUMPDEST PUSH2 0x85E PUSH2 0x1C04 JUMP JUMPDEST DUP2 MSTORE PUSH1 0x20 ADD SWAP1 PUSH1 0x1 SWAP1 SUB SWAP1 DUP2 PUSH2 0x856 JUMPI SWAP1 POP JUMPDEST POP SWAP1 POP PUSH1 0x1 JUMPDEST DUP3 DUP2 LT ISZERO PUSH2 0xAD0 JUMPI PUSH1 0x0 DUP2 DUP2 MSTORE PUSH1 0x3 PUSH1 0x20 SWAP1 DUP2 MSTORE PUSH1 0x40 SWAP2 DUP3 SWAP1 KECCAK256 DUP3 MLOAD PUSH2 0x140 DUP2 ADD DUP5 MSTORE DUP2 SLOAD DUP2 MSTORE PUSH1 0x1 DUP3 ADD SLOAD PUSH1 0x1 PUSH1 0x1 PUSH1 0xA0 SHL SUB AND SWAP3 DUP2 ADD SWAP3 SWAP1 SWAP3 MSTORE PUSH1 0x2 DUP2 ADD DUP1 SLOAD SWAP3 SWAP4 SWAP2 SWAP3 SWAP2 DUP5 ADD SWAP2 PUSH2 0x8CA SWAP1 PUSH2 0x2215 JUMP JUMPDEST DUP1 PUSH1 0x1F ADD PUSH1 0x20 DUP1 SWAP2 DIV MUL PUSH1 0x20 ADD PUSH1 0x40 MLOAD SWAP1 DUP2 ADD PUSH1 0x40 MSTORE DUP1 SWAP3 SWAP2 SWAP1 DUP2 DUP2 MSTORE PUSH1 0x20 ADD DUP3 DUP1 SLOAD PUSH2 0x8F6 SWAP1 PUSH2 0x2215 JUMP JUMPDEST DUP1 ISZERO PUSH2 0x943 JUMPI DUP1 PUSH1 0x1F LT PUSH2 0x918 JUMPI PUSH2 0x100 DUP1 DUP4 SLOAD DIV MUL DUP4 MSTORE SWAP2 PUSH1 0x20 ADD SWAP2 PUSH2 0x943 JUMP JUMPDEST DUP3 ADD SWAP2 SWAP1 PUSH1 0x0 MSTORE PUSH1 0x20 PUSH1 0x0 KECCAK256 SWAP1 JUMPDEST DUP2 SLOAD DUP2 MSTORE SWAP1 PUSH1 0x1 ADD SWAP1 PUSH1 0x20 ADD DUP1 DUP4 GT PUSH2 0x926 JUMPI DUP3 SWAP1 SUB PUSH1 0x1F AND DUP3 ADD SWAP2 JUMPDEST POP POP POP POP POP DUP2 MSTORE PUSH1 0x20 ADD PUSH1 0x3 DUP3 ADD DUP1 SLOAD PUSH2 0x95C SWAP1 PUSH2 0x2215 JUMP JUMPDEST DUP1 PUSH1 0x1F ADD PUSH1 0x20 DUP1 SWAP2 DIV MUL PUSH1 0x20 ADD PUSH1 0x40 MLOAD SWAP1 DUP2 ADD PUSH1 0x40 MSTORE DUP1 SWAP3 SWAP2 SWAP1 DUP2 DUP2 MSTORE PUSH1 0x20 ADD DUP3 DUP1 SLOAD PUSH2 0x988 SWAP1 PUSH2 0x2215 JUMP JUMPDEST DUP1 ISZERO PUSH2 0x9D5 JUMPI DUP1 PUSH1 0x1F LT PUSH2 0x9AA JUMPI PUSH2 0x100 DUP1 DUP4 SLOAD DIV MUL DUP4 MSTORE SWAP2 PUSH1 0x20 ADD SWAP2 PUSH2 0x9D5 JUMP JUMPDEST DUP3 ADD SWAP2 SWAP1 PUSH1 0x0 MSTORE PUSH1 0x20 PUSH1 0x0 KECCAK256 SWAP1 JUMPDEST DUP2 SLOAD DUP2 MSTORE SWAP1 PUSH1 0x1 ADD SWAP1 PUSH1 0x20 ADD DUP1 DUP4 GT PUSH2 0x9B8 JUMPI DUP3 SWAP1 SUB PUSH1 0x1F AND DUP3 ADD SWAP2 JUMPDEST POP POP POP SWAP2 DUP4 MSTORE POP POP PUSH1 0x4 DUP3 ADD SLOAD PUSH1 0x20 DUP3 ADD MSTORE PUSH1 0x5 DUP3 ADD SLOAD PUSH1 0x40 DUP3 ADD MSTORE PUSH1 0x6 DUP3 ADD SLOAD PUSH1 0x60 DUP3 ADD MSTORE PUSH1 0x7 DUP3 ADD SLOAD PUSH1 0xFF AND ISZERO ISZERO PUSH1 0x80 DUP3 ADD MSTORE PUSH1 0x8 DUP3 ADD DUP1 SLOAD PUSH1 0xA0 SWAP1 SWAP3 ADD SWAP2 PUSH2 0xA1F SWAP1 PUSH2 0x2215 JUMP JUMPDEST DUP1 PUSH1 0x1F ADD PUSH1 0x20 DUP1 SWAP2 DIV MUL PUSH1 0x20 ADD PUSH1 0x40 MLOAD SWAP1 DUP2 ADD PUSH1 0x40 MSTORE DUP1 SWAP3 SWAP2 SWAP1 DUP2 DUP2 MSTORE PUSH1 0x20 ADD DUP3 DUP1 SLOAD PUSH2 0xA4B SWAP1 PUSH2 0x2215 JUMP JUMPDEST DUP1 ISZERO PUSH2 0xA98 JUMPI DUP1 PUSH1 0x1F LT PUSH2 0xA6D JUMPI PUSH2 0x100 DUP1 DUP4 SLOAD DIV MUL DUP4 MSTORE SWAP2 PUSH1 0x20 ADD SWAP2 PUSH2 0xA98 JUMP JUMPDEST DUP3 ADD SWAP2 SWAP1 PUSH1 0x0 MSTORE PUSH1 0x20 PUSH1 0x0 KECCAK256 SWAP1 JUMPDEST DUP2 SLOAD DUP2 MSTORE SWAP1 PUSH1 0x1 ADD SWAP1 PUSH1 0x20 ADD DUP1 DUP4 GT PUSH2 0xA7B JUMPI DUP3 SWAP1 SUB PUSH1 0x1F AND DUP3 ADD SWAP2 JUMPDEST POP POP POP POP POP DUP2 MSTORE PUSH1 0x20 ADD PUSH1 0x9 DUP3 ADD SLOAD DUP2 MSTORE POP POP DUP3 DUP3 DUP2 MLOAD DUP2 LT PUSH2 0xABD JUMPI PUSH2 0xABD PUSH2 0x2278 JUMP JUMPDEST PUSH1 0x20 SWAP1 DUP2 MUL SWAP2 SWAP1 SWAP2 ADD ADD MSTORE PUSH1 0x1 ADD PUSH2 0x877 JUMP JUMPDEST POP SWAP3 SWAP2 POP POP JUMP JUMPDEST PUSH1 0x0 PUSH2 0xAE1 PUSH2 0x1B7A JUMP JUMPDEST PUSH1 0x0 PUSH2 0xAEE DUP7 DUP6 DUP6 PUSH2 0x1A56 JUMP JUMPDEST PUSH1 0x1 SLOAD PUSH1 0x2 SLOAD PUSH1 0x40 MLOAD PUSH4 0x23B872DD PUSH1 0xE0 SHL DUP2 MSTORE CALLER PUSH1 0x4 DUP3 ADD MSTORE PUSH1 0x1 PUSH1 0x1 PUSH1 0xA0 SHL SUB SWAP2 DUP3 AND PUSH1 0x24 DUP3 ADD MSTORE PUSH1 0x44 DUP2 ADD DUP5 SWAP1 MSTORE SWAP3 SWAP4 POP AND SWAP1 PUSH4 0x23B872DD SWAP1 PUSH1 0x64 ADD PUSH1 0x20 PUSH1 0x40 MLOAD DUP1 DUP4 SUB DUP2 PUSH1 0x0 DUP8 GAS CALL ISZERO DUP1 ISZERO PUSH2 0xB4B JUMPI RETURNDATASIZE PUSH1 0x0 DUP1 RETURNDATACOPY RETURNDATASIZE PUSH1 0x0 REVERT JUMPDEST POP POP POP POP PUSH1 0x40 MLOAD RETURNDATASIZE PUSH1 0x1F NOT PUSH1 0x1F DUP3 ADD AND DUP3 ADD DUP1 PUSH1 0x40 MSTORE POP DUP2 ADD SWAP1 PUSH2 0xB6F SWAP2 SWAP1 PUSH2 0x228E JUMP JUMPDEST PUSH2 0xBBB JUMPI PUSH1 0x40 MLOAD PUSH3 0x461BCD PUSH1 0xE5 SHL DUP2 MSTORE PUSH1 0x20 PUSH1 0x4 DUP3 ADD MSTORE PUSH1 0x16 PUSH1 0x24 DUP3 ADD MSTORE PUSH32 0x5072656D69756D207061796D656E74206661696C656400000000000000000000 PUSH1 0x44 DUP3 ADD MSTORE PUSH1 0x64 ADD PUSH2 0x6AB JUMP JUMPDEST PUSH1 0x4 DUP1 SLOAD PUSH1 0x0 SWAP2 DUP3 PUSH2 0xBCC DUP4 PUSH2 0x22B0 JUMP JUMPDEST SWAP2 SWAP1 POP SSTORE SWAP1 POP PUSH1 0x40 MLOAD DUP1 PUSH2 0x140 ADD PUSH1 0x40 MSTORE DUP1 DUP3 DUP2 MSTORE PUSH1 0x20 ADD CALLER PUSH1 0x1 PUSH1 0x1 PUSH1 0xA0 SHL SUB AND DUP2 MSTORE PUSH1 0x20 ADD DUP10 DUP2 MSTORE PUSH1 0x20 ADD DUP8 DUP2 MSTORE PUSH1 0x20 ADD DUP9 DUP2 MSTORE PUSH1 0x20 ADD DUP4 DUP2 MSTORE PUSH1 0x20 ADD DUP7 DUP2 MSTORE PUSH1 0x20 ADD PUSH1 0x1 ISZERO ISZERO DUP2 MSTORE PUSH1 0x20 ADD DUP6 DUP2 MSTORE PUSH1 0x20 ADD TIMESTAMP PUSH3 0xF7DA00 PUSH2 0xC2F SWAP2 SWAP1 PUSH2 0x2265 JUMP JUMPDEST SWAP1 MSTORE PUSH1 0x0 DUP3 DUP2 MSTORE PUSH1 0x3 PUSH1 0x20 SWAP1 DUP2 MSTORE PUSH1 0x40 SWAP2 DUP3 SWAP1 KECCAK256 DUP4 MLOAD DUP2 SSTORE SWAP1 DUP4 ADD MLOAD PUSH1 0x1 DUP3 ADD DUP1 SLOAD PUSH20 0xFFFFFFFFFFFFFFFFFFFFFFFFFFFFFFFFFFFFFFFF NOT AND PUSH1 0x1 PUSH1 0x1 PUSH1 0xA0 SHL SUB SWAP1 SWAP3 AND SWAP2 SWAP1 SWAP2 OR SWAP1 SSTORE SWAP1 DUP3 ADD MLOAD PUSH1 0x2 DUP3 ADD SWAP1 PUSH2 0xC8C SWAP1 DUP3 PUSH2 0x2318 JUMP JUMPDEST POP PUSH1 0x60 DUP3 ADD MLOAD PUSH1 0x3 DUP3 ADD SWAP1 PUSH2 0xCA1 SWAP1 DUP3 PUSH2 0x2318 JUMP JUMPDEST POP PUSH1 0x80 DUP3 ADD MLOAD PUSH1 0x4 DUP3 ADD SSTORE PUSH1 0xA0 DUP3 ADD MLOAD PUSH1 0x5 DUP3 ADD SSTORE PUSH1 0xC0 DUP3 ADD MLOAD PUSH1 0x6 DUP3 ADD SSTORE PUSH1 0xE0 DUP3 ADD MLOAD PUSH1 0x7 DUP3 ADD DUP1 SLOAD PUSH1 0xFF NOT AND SWAP2 ISZERO ISZERO SWAP2 SWAP1 SWAP2 OR SWAP1 SSTORE PUSH2 0x100 DUP3 ADD MLOAD PUSH1 0x8 DUP3 ADD SWAP1 PUSH2 0xCED SWAP1 DUP3 PUSH2 0x2318 JUMP JUMPDEST POP PUSH2 0x120 SWAP2 SWAP1 SWAP2 ADD MLOAD PUSH1 0x9 SWAP1 SWAP2 ADD SSTORE PUSH1 0x40 DUP1 MLOAD CALLER DUP2 MSTORE PUSH1 0x20 DUP2 ADD DUP10 SWAP1 MSTORE SWAP1 DUP2 ADD DUP4 SWAP1 MSTORE PUSH1 0x60 DUP2 ADD DUP7 SWAP1 MSTORE DUP2 SWAP1 PUSH32 0xDD4DCB2EF94F82921D5C77E9CF4E5C8DD423FB1DE1310A243115B95316F25777 SWAP1 PUSH1 0x80 ADD PUSH1 0x40 MLOAD DUP1 SWAP2 SUB SWAP1 LOG2 SWAP8 SWAP7 POP POP POP POP POP POP POP JUMP JUMPDEST PUSH2 0xD59 PUSH2 0x1B7A JUMP JUMPDEST PUSH2 0xD63 PUSH1 0x0 PUSH2 0x1BA7 JUMP JUMPDEST JUMP JUMPDEST PUSH1 0x1 PUSH1 0x1 PUSH1 0xA0 SHL SUB DUP2 AND PUSH1 0x0 SWAP1 DUP2 MSTORE PUSH1 0x6 PUSH1 0x20 MSTORE PUSH1 0x40 DUP2 KECCAK256 SLOAD PUSH1 0x60 SWAP2 DUP2 PUSH8 0xFFFFFFFFFFFFFFFF DUP2 GT ISZERO PUSH2 0xD9A JUMPI PUSH2 0xD9A PUSH2 0x1F37 JUMP JUMPDEST PUSH1 0x40 MLOAD SWAP1 DUP1 DUP3 MSTORE DUP1 PUSH1 0x20 MUL PUSH1 0x20 ADD DUP3 ADD PUSH1 0x40 MSTORE DUP1 ISZERO PUSH2 0xDD3 JUMPI DUP2 PUSH1 0x20 ADD JUMPDEST PUSH2 0xDC0 PUSH2 0x1C04 JUMP JUMPDEST DUP2 MSTORE PUSH1 0x20 ADD SWAP1 PUSH1 0x1 SWAP1 SUB SWAP1 DUP2 PUSH2 0xDB8 JUMPI SWAP1 POP JUMPDEST POP SWAP1 POP PUSH1 0x1 JUMPDEST DUP3 DUP2 LT ISZERO PUSH2 0x1032 JUMPI PUSH1 0x0 DUP2 DUP2 MSTORE PUSH1 0x3 PUSH1 0x20 SWAP1 DUP2 MSTORE PUSH1 0x40 SWAP2 DUP3 SWAP1 KECCAK256 DUP3 MLOAD PUSH2 0x140 DUP2 ADD DUP5 MSTORE DUP2 SLOAD DUP2 MSTORE PUSH1 0x1 DUP3 ADD SLOAD PUSH1 0x1 PUSH1 0x1 PUSH1 0xA0 SHL SUB AND SWAP3 DUP2 ADD SWAP3 SWAP1 SWAP3 MSTORE PUSH1 0x2 DUP2 ADD DUP1 SLOAD SWAP3 SWAP4 SWAP2 SWAP3 SWAP2 DUP5 ADD SWAP2 PUSH2 0xE2C SWAP1 PUSH2 0x2215 JUMP JUMPDEST DUP1 PUSH1 0x1F ADD PUSH1 0x20 DUP1 SWAP2 DIV MUL PUSH1 0x20 ADD PUSH1 0x40 MLOAD SWAP1 DUP2 ADD PUSH1 0x40 MSTORE DUP1 SWAP3 SWAP2 SWAP1 DUP2 DUP2 MSTORE PUSH1 0x20 ADD DUP3 DUP1 SLOAD PUSH2 0xE58 SWAP1 PUSH2 0x2215 JUMP JUMPDEST DUP1 ISZERO PUSH2 0xEA5 JUMPI DUP1 PUSH1 0x1F LT PUSH2 0xE7A JUMPI PUSH2 0x100 DUP1 DUP4 SLOAD DIV MUL DUP4 MSTORE SWAP2 PUSH1 0x20 ADD SWAP2 PUSH2 0xEA5 JUMP JUMPDEST DUP3 ADD SWAP2 SWAP1 PUSH1 0x0 MSTORE PUSH1 0x20 PUSH1 0x0 KECCAK256 SWAP1 JUMPDEST DUP2 SLOAD DUP2 MSTORE SWAP1 PUSH1 0x1 ADD SWAP1 PUSH1 0x20 ADD DUP1 DUP4 GT PUSH2 0xE88 JUMPI DUP3 SWAP1 SUB PUSH1 0x1F AND DUP3 ADD SWAP2 JUMPDEST POP POP POP POP POP DUP2 MSTORE PUSH1 0x20 ADD PUSH1 0x3 DUP3 ADD DUP1 SLOAD PUSH2 0xEBE SWAP1 PUSH2 0x2215 JUMP JUMPDEST DUP1 PUSH1 0x1F ADD PUSH1 0x20 DUP1 SWAP2 DIV MUL PUSH1 0x20 ADD PUSH1 0x40 MLOAD SWAP1 DUP2 ADD PUSH1 0x40 MSTORE DUP1 SWAP3 SWAP2 SWAP1 DUP2 DUP2 MSTORE PUSH1 0x20 ADD DUP3 DUP1 SLOAD PUSH2 0xEEA SWAP1 PUSH2 0x2215 JUMP JUMPDEST DUP1 ISZERO PUSH2 0xF37 JUMPI DUP1 PUSH1 0x1F LT PUSH2 0xF0C JUMPI PUSH2 0x100 DUP1 DUP4 SLOAD DIV MUL DUP4 MSTORE SWAP2 PUSH1 0x20 ADD SWAP2 PUSH2 0xF37 JUMP JUMPDEST DUP3 ADD SWAP2 SWAP1 PUSH1 0x0 MSTORE PUSH1 0x20 PUSH1 0x0 KECCAK256 SWAP1 JUMPDEST DUP2 SLOAD DUP2 MSTORE SWAP1 PUSH1 0x1 ADD SWAP1 PUSH1 0x20 ADD DUP1 DUP4 GT PUSH2 0xF1A JUMPI DUP3 SWAP1 SUB PUSH1 0x1F AND DUP3 ADD SWAP2 JUMPDEST POP POP POP SWAP2 DUP4 MSTORE POP POP PUSH1 0x4 DUP3 ADD SLOAD PUSH1 0x20 DUP3 ADD MSTORE PUSH1 0x5 DUP3 ADD SLOAD PUSH1 0x40 DUP3 ADD MSTORE PUSH1 0x6 DUP3 ADD SLOAD PUSH1 0x60 DUP3 ADD MSTORE PUSH1 0x7 DUP3 ADD SLOAD PUSH1 0xFF AND ISZERO ISZERO PUSH1 0x80 DUP3 ADD MSTORE PUSH1 0x8 DUP3 ADD DUP1 SLOAD PUSH1 0xA0 SWAP1 SWAP3 ADD SWAP2 PUSH2 0xF81 SWAP1 PUSH2 0x2215 JUMP JUMPDEST DUP1 PUSH1 0x1F ADD PUSH1 0x20 DUP1 SWAP2 DIV MUL PUSH1 0x20 ADD PUSH1 0x40 MLOAD SWAP1 DUP2 ADD PUSH1 0x40 MSTORE DUP1 SWAP3 SWAP2 SWAP1 DUP2 DUP2 MSTORE PUSH1 0x20 ADD DUP3 DUP1 SLOAD PUSH2 0xFAD SWAP1 PUSH2 0x2215 JUMP JUMPDEST DUP1 ISZERO PUSH2 0xFFA JUMPI DUP1 PUSH1 0x1F LT PUSH2 0xFCF JUMPI PUSH2 0x100 DUP1 DUP4 SLOAD DIV MUL DUP4 MSTORE SWAP2 PUSH1 0x20 ADD SWAP2 PUSH2 0xFFA JUMP JUMPDEST DUP3 ADD SWAP2 SWAP1 PUSH1 0x0 MSTORE PUSH1 0x20 PUSH1 0x0 KECCAK256 SWAP1 JUMPDEST DUP2 SLOAD DUP2 MSTORE SWAP1 PUSH1 0x1 ADD SWAP1 PUSH1 0x20 ADD DUP1 DUP4 GT PUSH2 0xFDD JUMPI DUP3 SWAP1 SUB PUSH1 0x1F AND DUP3 ADD SWAP2 JUMPDEST POP POP POP POP POP DUP2 MSTORE PUSH1 0x20 ADD PUSH1 0x9 DUP3 ADD SLOAD DUP2 MSTORE POP POP DUP3 DUP3 DUP2 MLOAD DUP2 LT PUSH2 0x101F JUMPI PUSH2 0x101F PUSH2 0x2278 JUMP JUMPDEST PUSH1 0x20 SWAP1 DUP2 MUL SWAP2 SWAP1 SWAP2 ADD ADD MSTORE PUSH1 0x1 ADD PUSH2 0xDD9 JUMP JUMPDEST POP SWAP4 SWAP3 POP POP POP JUMP JUMPDEST PUSH1 0x7 PUSH1 0x20 MSTORE PUSH1 0x0 SWAP1 DUP2 MSTORE PUSH1 0x40 SWAP1 KECCAK256 DUP1 SLOAD PUSH1 0x1 DUP3 ADD SLOAD PUSH1 0x2 DUP4 ADD SLOAD PUSH1 0x3 DUP5 ADD DUP1 SLOAD SWAP4 SWAP5 SWAP3 SWAP4 PUSH1 0xFF DUP1 DUP5 AND SWAP5 PUSH2 0x100 DUP6 DIV SWAP1 SWAP2 AND SWAP4 PUSH3 0x10000 SWAP1 DIV PUSH1 0x1 PUSH1 0x1 PUSH1 0xA0 SHL SUB AND SWAP3 SWAP1 SWAP2 PUSH2 0x1088 SWAP1 PUSH2 0x2215 JUMP JUMPDEST DUP1 PUSH1 0x1F ADD PUSH1 0x20 DUP1 SWAP2 DIV MUL PUSH1 0x20 ADD PUSH1 0x40 MLOAD SWAP1 DUP2 ADD PUSH1 0x40 MSTORE DUP1 SWAP3 SWAP2 SWAP1 DUP2 DUP2 MSTORE PUSH1 0x20 ADD DUP3 DUP1 SLOAD PUSH2 0x10B4 SWAP1 PUSH2 0x2215 JUMP JUMPDEST DUP1 ISZERO PUSH2 0x1101 JUMPI DUP1 PUSH1 0x1F LT PUSH2 0x10D6 JUMPI PUSH2 0x100 DUP1 DUP4 SLOAD DIV MUL DUP4 MSTORE SWAP2 PUSH1 0x20 ADD SWAP2 PUSH2 0x1101 JUMP JUMPDEST DUP3 ADD SWAP2 SWAP1 PUSH1 0x0 MSTORE PUSH1 0x20 PUSH1 0x0 KECCAK256 SWAP1 JUMPDEST DUP2 SLOAD DUP2 MSTORE SWAP1 PUSH1 0x1 ADD SWAP1 PUSH1 0x20 ADD DUP1 DUP4 GT PUSH2 0x10E4 JUMPI DUP3 SWAP1 SUB PUSH1 0x1F AND DUP3 ADD SWAP2 JUMPDEST POP POP POP POP POP SWAP1 DUP1 PUSH1 0x4 ADD DUP1 SLOAD PUSH2 0x1116 SWAP1 PUSH2 0x2215 JUMP JUMPDEST DUP1 PUSH1 0x1F ADD PUSH1 0x20 DUP1 SWAP2 DIV MUL PUSH1 0x20 ADD PUSH1 0x40 MLOAD SWAP1 DUP2 ADD PUSH1 0x40 MSTORE DUP1 SWAP3 SWAP2 SWAP1 DUP2 DUP2 MSTORE PUSH1 0x20 ADD DUP3 DUP1 SLOAD PUSH2 0x1142 SWAP1 PUSH2 0x2215 JUMP JUMPDEST DUP1 ISZERO PUSH2 0x118F JUMPI DUP1 PUSH1 0x1F LT PUSH2 0x1164 JUMPI PUSH2 0x100 DUP1 DUP4 SLOAD DIV MUL DUP4 MSTORE SWAP2 PUSH1 0x20 ADD SWAP2 PUSH2 0x118F JUMP JUMPDEST DUP3 ADD SWAP2 SWAP1 PUSH1 0x0 MSTORE PUSH1 0x20 PUSH1 0x0 KECCAK256 SWAP1 JUMPDEST DUP2 SLOAD DUP2 MSTORE SWAP1 PUSH1 0x1 ADD SWAP1 PUSH1 0x20 ADD DUP1 DUP4 GT PUSH2 0x1172 JUMPI DUP3 SWAP1 SUB PUSH1 0x1F AND DUP3 ADD SWAP2 JUMPDEST POP POP POP POP POP SWAP1 POP DUP8 JUMP JUMPDEST PUSH1 0x6 PUSH1 0x20 MSTORE DUP2 PUSH1 0x0 MSTORE PUSH1 0x40 PUSH1 0x0 KECCAK256 DUP2 DUP2 SLOAD DUP2 LT PUSH2 0x11B5 JUMPI PUSH1 0x0 DUP1 REVERT JUMPDEST SWAP1 PUSH1 0x0 MSTORE PUSH1 0x20 PUSH1 0x0 KECCAK256 ADD PUSH1 0x0 SWAP2 POP SWAP2 POP POP SLOAD DUP2 JUMP JUMPDEST PUSH1 0x8 DUP2 DUP2 SLOAD DUP2 LT PUSH2 0x11DA JUMPI PUSH1 0x0 DUP1 REVERT JUMPDEST PUSH1 0x0 SWAP2 DUP3 MSTORE PUSH1 0x20 SWAP1 SWAP2 KECCAK256 PUSH1 0x5 SWAP1 SWAP2 MUL ADD DUP1 SLOAD PUSH1 0x1 DUP3 ADD SLOAD PUSH1 0x2 DUP4 ADD SLOAD PUSH1 0x3 DUP5 ADD DUP1 SLOAD SWAP4 SWAP6 POP SWAP2 SWAP4 PUSH1 0xFF DUP1 DUP4 AND SWAP5 PUSH2 0x100 DUP5 DIV SWAP1 SWAP2 AND SWAP4 PUSH3 0x10000 SWAP1 SWAP4 DIV PUSH1 0x1 PUSH1 0x1 PUSH1 0xA0 SHL SUB AND SWAP3 SWAP1 PUSH2 0x1088 SWAP1 PUSH2 0x2215 JUMP JUMPDEST PUSH2 0x1233 PUSH2 0x1B7A JUMP JUMPDEST PUSH1 0x0 DUP2 DUP2 MSTORE PUSH1 0x7 PUSH1 0x20 SWAP1 DUP2 MSTORE PUSH1 0x40 DUP1 DUP4 KECCAK256 PUSH1 0x1 DUP2 ADD SLOAD DUP1 DUP6 MSTORE PUSH1 0x3 SWAP1 SWAP4 MSTORE SWAP1 DUP4 KECCAK256 SWAP1 SWAP3 PUSH2 0x1260 DUP4 CALLER PUSH2 0x41B JUMP JUMPDEST SWAP1 POP PUSH1 0x8 SLOAD DUP6 GT ISZERO PUSH2 0x12B4 JUMPI PUSH1 0x40 MLOAD PUSH3 0x461BCD PUSH1 0xE5 SHL DUP2 MSTORE PUSH1 0x20 PUSH1 0x4 DUP3 ADD MSTORE PUSH1 0x14 PUSH1 0x24 DUP3 ADD MSTORE PUSH32 0x436C61696D20646F6573206E6F74206578697374000000000000000000000000 PUSH1 0x44 DUP3 ADD MSTORE PUSH1 0x64 ADD PUSH2 0x6AB JUMP JUMPDEST DUP1 PUSH2 0x130B JUMPI PUSH1 0x40 MLOAD PUSH3 0x461BCD PUSH1 0xE5 SHL DUP2 MSTORE PUSH1 0x20 PUSH1 0x4 DUP3 ADD MSTORE PUSH1 0x21 PUSH1 0x24 DUP3 ADD MSTORE PUSH32 0x5573657220646F65736E2774207075726368617365642074686520706F6C6963 PUSH1 0x44 DUP3 ADD MSTORE PUSH1 0x79 PUSH1 0xF8 SHL PUSH1 0x64 DUP3 ADD MSTORE PUSH1 0x84 ADD PUSH2 0x6AB JUMP JUMPDEST PUSH1 0x2 DUP1 SLOAD SWAP1 DUP6 ADD SLOAD PUSH1 0x4 DUP5 DUP2 ADD SLOAD PUSH1 0x40 MLOAD PUSH4 0x50802E3F PUSH1 0xE0 SHL DUP2 MSTORE PUSH1 0x1 PUSH1 0x1 PUSH1 0xA0 SHL SUB PUSH3 0x10000 SWAP1 SWAP5 DIV DUP5 AND SWAP3 DUP2 ADD SWAP3 SWAP1 SWAP3 MSTORE PUSH1 0x24 DUP3 ADD MSTORE SWAP2 AND SWAP1 PUSH4 0x50802E3F SWAP1 PUSH1 0x44 ADD PUSH1 0x0 PUSH1 0x40 MLOAD DUP1 DUP4 SUB DUP2 PUSH1 0x0 DUP8 DUP1 EXTCODESIZE ISZERO DUP1 ISZERO PUSH2 0x1369 JUMPI PUSH1 0x0 DUP1 REVERT JUMPDEST POP GAS CALL SWAP3 POP POP POP DUP1 ISZERO PUSH2 0x137A JUMPI POP PUSH1 0x1 JUMPDEST PUSH2 0x13C6 JUMPI PUSH1 0x40 MLOAD PUSH3 0x461BCD PUSH1 0xE5 SHL DUP2 MSTORE PUSH1 0x20 PUSH1 0x4 DUP3 ADD MSTORE PUSH1 0x10 PUSH1 0x24 DUP3 ADD MSTORE PUSH32 0x436C61696D20506179204661696C656400000000000000000000000000000000 PUSH1 0x44 DUP3 ADD MSTORE PUSH1 0x64 ADD PUSH2 0x6AB JUMP JUMPDEST PUSH1 0x2 DUP5 ADD DUP1 SLOAD PUSH2 0xFFFF NOT AND PUSH2 0x101 OR SWAP1 SSTORE CALLER PUSH1 0x0 SWAP1 DUP2 MSTORE PUSH1 0x6 PUSH1 0x20 MSTORE PUSH1 0x40 SWAP1 KECCAK256 DUP1 SLOAD DUP5 SWAP1 DUP2 LT PUSH2 0x13F8 JUMPI PUSH2 0x13F8 PUSH2 0x2278 JUMP JUMPDEST SWAP1 PUSH1 0x0 MSTORE PUSH1 0x20 PUSH1 0x0 KECCAK256 ADD PUSH1 0x0 SWAP1 SSTORE PUSH1 0x8 DUP6 DUP2 SLOAD DUP2 LT PUSH2 0x1419 JUMPI PUSH2 0x1419 PUSH2 0x2278 JUMP JUMPDEST PUSH1 0x0 SWAP2 DUP3 MSTORE PUSH1 0x20 DUP3 KECCAK256 PUSH1 0x5 SWAP1 SWAP2 MUL ADD DUP2 DUP2 SSTORE PUSH1 0x1 DUP2 ADD DUP3 SWAP1 SSTORE PUSH1 0x2 DUP2 ADD DUP1 SLOAD PUSH22 0xFFFFFFFFFFFFFFFFFFFFFFFFFFFFFFFFFFFFFFFFFFFF NOT AND SWAP1 SSTORE SWAP1 PUSH2 0x1461 PUSH1 0x3 DUP4 ADD DUP3 PUSH2 0x1C62 JUMP JUMPDEST PUSH2 0x146F PUSH1 0x4 DUP4 ADD PUSH1 0x0 PUSH2 0x1C62 JUMP JUMPDEST POP POP PUSH1 0x4 DUP3 ADD SLOAD PUSH1 0x40 DUP1 MLOAD CALLER DUP2 MSTORE PUSH1 0x20 DUP2 ADD SWAP3 SWAP1 SWAP3 MSTORE DUP5 SWAP2 PUSH32 0x5F2564C1AD353E58B81E7BD6CD0E6B1A3F52F46AB4C59C2CADFBAACC4B2E5716 SWAP2 ADD PUSH1 0x40 MLOAD DUP1 SWAP2 SUB SWAP1 LOG2 POP POP POP POP POP JUMP JUMPDEST PUSH1 0x0 DUP2 DUP2 MSTORE PUSH1 0x3 PUSH1 0x20 MSTORE PUSH1 0x40 SWAP1 KECCAK256 PUSH1 0x6 DUP2 ADD SLOAD TIMESTAMP GT ISZERO PUSH2 0x150C JUMPI PUSH1 0x40 MLOAD PUSH3 0x461BCD PUSH1 0xE5 SHL DUP2 MSTORE PUSH1 0x20 PUSH1 0x4 DUP3 ADD MSTORE PUSH1 0xE PUSH1 0x24 DUP3 ADD MSTORE PUSH14 0x141BDB1A58DE48195E1C1A5C9959 PUSH1 0x92 SHL PUSH1 0x44 DUP3 ADD MSTORE PUSH1 0x64 ADD PUSH2 0x6AB JUMP JUMPDEST PUSH1 0x5 DUP2 ADD SLOAD CALLVALUE DUP2 EQ PUSH2 0x1560 JUMPI PUSH1 0x40 MLOAD PUSH3 0x461BCD PUSH1 0xE5 SHL DUP2 MSTORE PUSH1 0x20 PUSH1 0x4 DUP3 ADD MSTORE PUSH1 0x17 PUSH1 0x24 DUP3 ADD MSTORE PUSH32 0x496E73756666696369656E742066756E64732073656E74000000000000000000 PUSH1 0x44 DUP3 ADD MSTORE PUSH1 0x64 ADD PUSH2 0x6AB JUMP JUMPDEST PUSH1 0x2 SLOAD PUSH1 0x40 MLOAD PUSH4 0xD5A867B7 PUSH1 0xE0 SHL DUP2 MSTORE CALLER PUSH1 0x4 DUP3 ADD MSTORE CALLVALUE PUSH1 0x24 DUP3 ADD DUP2 SWAP1 MSTORE PUSH1 0x1 PUSH1 0x1 PUSH1 0xA0 SHL SUB SWAP1 SWAP3 AND SWAP2 PUSH4 0xD5A867B7 SWAP2 PUSH1 0x44 ADD PUSH1 0x0 PUSH1 0x40 MLOAD DUP1 DUP4 SUB DUP2 DUP6 DUP9 DUP1 EXTCODESIZE ISZERO DUP1 ISZERO PUSH2 0x15AC JUMPI PUSH1 0x0 DUP1 REVERT JUMPDEST POP GAS CALL ISZERO DUP1 ISZERO PUSH2 0x15C0 JUMPI RETURNDATASIZE PUSH1 0x0 DUP1 RETURNDATACOPY RETURNDATASIZE PUSH1 0x0 REVERT JUMPDEST POP POP CALLER PUSH1 0x0 DUP2 DUP2 MSTORE PUSH1 0x6 PUSH1 0x20 SWAP1 DUP2 MSTORE PUSH1 0x40 DUP1 DUP4 KECCAK256 DUP1 SLOAD PUSH1 0x1 DUP2 ADD DUP3 SSTORE SWAP1 DUP5 MSTORE SWAP3 DUP3 SWAP1 KECCAK256 SWAP1 SWAP3 ADD DUP10 SWAP1 SSTORE SWAP1 MLOAD SWAP2 DUP3 MSTORE DUP8 SWAP5 POP PUSH32 0x60D59B58B916D11D0AC52C397E342E25AE6DC5DA412115D469D304BF4DD86404 SWAP4 POP ADD SWAP1 POP PUSH1 0x40 MLOAD DUP1 SWAP2 SUB SWAP1 LOG2 POP POP POP JUMP JUMPDEST PUSH2 0x162C PUSH2 0x1C04 JUMP JUMPDEST PUSH1 0x0 DUP3 DUP2 MSTORE PUSH1 0x3 PUSH1 0x20 SWAP1 DUP2 MSTORE PUSH1 0x40 SWAP2 DUP3 SWAP1 KECCAK256 DUP3 MLOAD PUSH2 0x140 DUP2 ADD DUP5 MSTORE DUP2 SLOAD DUP2 MSTORE PUSH1 0x1 DUP3 ADD SLOAD PUSH1 0x1 PUSH1 0x1 PUSH1 0xA0 SHL SUB AND SWAP3 DUP2 ADD SWAP3 SWAP1 SWAP3 MSTORE PUSH1 0x2 DUP2 ADD DUP1 SLOAD SWAP3 SWAP4 SWAP2 SWAP3 SWAP2 DUP5 ADD SWAP2 PUSH2 0x1677 SWAP1 PUSH2 0x2215 JUMP JUMPDEST DUP1 PUSH1 0x1F ADD PUSH1 0x20 DUP1 SWAP2 DIV MUL PUSH1 0x20 ADD PUSH1 0x40 MLOAD SWAP1 DUP2 ADD PUSH1 0x40 MSTORE DUP1 SWAP3 SWAP2 SWAP1 DUP2 DUP2 MSTORE PUSH1 0x20 ADD DUP3 DUP1 SLOAD PUSH2 0x16A3 SWAP1 PUSH2 0x2215 JUMP JUMPDEST DUP1 ISZERO PUSH2 0x16F0 JUMPI DUP1 PUSH1 0x1F LT PUSH2 0x16C5 JUMPI PUSH2 0x100 DUP1 DUP4 SLOAD DIV MUL DUP4 MSTORE SWAP2 PUSH1 0x20 ADD SWAP2 PUSH2 0x16F0 JUMP JUMPDEST DUP3 ADD SWAP2 SWAP1 PUSH1 0x0 MSTORE PUSH1 0x20 PUSH1 0x0 KECCAK256 SWAP1 JUMPDEST DUP2 SLOAD DUP2 MSTORE SWAP1 PUSH1 0x1 ADD SWAP1 PUSH1 0x20 ADD DUP1 DUP4 GT PUSH2 0x16D3 JUMPI DUP3 SWAP1 SUB PUSH1 0x1F AND DUP3 ADD SWAP2 JUMPDEST POP POP POP POP POP DUP2 MSTORE PUSH1 0x20 ADD PUSH1 0x3 DUP3 ADD DUP1 SLOAD PUSH2 0x1709 SWAP1 PUSH2 0x2215 JUMP JUMPDEST DUP1 PUSH1 0x1F ADD PUSH1 0x20 DUP1 SWAP2 DIV MUL PUSH1 0x20 ADD PUSH1 0x40 MLOAD SWAP1 DUP2 ADD PUSH1 0x40 MSTORE DUP1 SWAP3 SWAP2 SWAP1 DUP2 DUP2 MSTORE PUSH1 0x20 ADD DUP3 DUP1 SLOAD PUSH2 0x1735 SWAP1 PUSH2 0x2215 JUMP JUMPDEST DUP1 ISZERO PUSH2 0x1782 JUMPI DUP1 PUSH1 0x1F LT PUSH2 0x1757 JUMPI PUSH2 0x100 DUP1 DUP4 SLOAD DIV MUL DUP4 MSTORE SWAP2 PUSH1 0x20 ADD SWAP2 PUSH2 0x1782 JUMP JUMPDEST DUP3 ADD SWAP2 SWAP1 PUSH1 0x0 MSTORE PUSH1 0x20 PUSH1 0x0 KECCAK256 SWAP1 JUMPDEST DUP2 SLOAD DUP2 MSTORE SWAP1 PUSH1 0x1 ADD SWAP1 PUSH1 0x20 ADD DUP1 DUP4 GT PUSH2 0x1765 JUMPI DUP3 SWAP1 SUB PUSH1 0x1F AND DUP3 ADD SWAP2 JUMPDEST POP POP POP SWAP2 DUP4 MSTORE POP POP PUSH1 0x4 DUP3 ADD SLOAD PUSH1 0x20 DUP3 ADD MSTORE PUSH1 0x5 DUP3 ADD SLOAD PUSH1 0x40 DUP3 ADD MSTORE PUSH1 0x6 DUP3 ADD SLOAD PUSH1 0x60 DUP3 ADD MSTORE PUSH1 0x7 DUP3 ADD SLOAD PUSH1 0xFF AND ISZERO ISZERO PUSH1 0x80 DUP3 ADD MSTORE PUSH1 0x8 DUP3 ADD DUP1 SLOAD PUSH1 0xA0 SWAP1 SWAP3 ADD SWAP2 PUSH2 0x17CC SWAP1 PUSH2 0x2215 JUMP JUMPDEST DUP1 PUSH1 0x1F ADD PUSH1 0x20 DUP1 SWAP2 DIV MUL PUSH1 0x20 ADD PUSH1 0x40 MLOAD SWAP1 DUP2 ADD PUSH1 0x40 MSTORE DUP1 SWAP3 SWAP2 SWAP1 DUP2 DUP2 MSTORE PUSH1 0x20 ADD DUP3 DUP1 SLOAD PUSH2 0x17F8 SWAP1 PUSH2 0x2215 JUMP JUMPDEST DUP1 ISZERO PUSH2 0x1845 JUMPI DUP1 PUSH1 0x1F LT PUSH2 0x181A JUMPI PUSH2 0x100 DUP1 DUP4 SLOAD DIV MUL DUP4 MSTORE SWAP2 PUSH1 0x20 ADD SWAP2 PUSH2 0x1845 JUMP JUMPDEST DUP3 ADD SWAP2 SWAP1 PUSH1 0x0 MSTORE PUSH1 0x20 PUSH1 0x0 KECCAK256 SWAP1 JUMPDEST DUP2 SLOAD DUP2 MSTORE SWAP1 PUSH1 0x1 ADD SWAP1 PUSH1 0x20 ADD DUP1 DUP4 GT PUSH2 0x1828 JUMPI DUP3 SWAP1 SUB PUSH1 0x1F AND DUP3 ADD SWAP2 JUMPDEST POP POP POP POP POP DUP2 MSTORE PUSH1 0x20 ADD PUSH1 0x9 DUP3 ADD SLOAD DUP2 MSTORE POP POP SWAP1 POP SWAP2 SWAP1 POP JUMP JUMPDEST PUSH1 0x3 PUSH1 0x20 MSTORE PUSH1 0x0 SWAP1 DUP2 MSTORE PUSH1 0x40 SWAP1 KECCAK256 DUP1 SLOAD PUSH1 0x1 DUP3 ADD SLOAD PUSH1 0x2 DUP4 ADD DUP1 SLOAD SWAP3 SWAP4 PUSH1 0x1 PUSH1 0x1 PUSH1 0xA0 SHL SUB SWAP1 SWAP3 AND SWAP3 PUSH2 0x1891 SWAP1 PUSH2 0x2215 JUMP JUMPDEST DUP1 PUSH1 0x1F ADD PUSH1 0x20 DUP1 SWAP2 DIV MUL PUSH1 0x20 ADD PUSH1 0x40 MLOAD SWAP1 DUP2 ADD PUSH1 0x40 MSTORE DUP1 SWAP3 SWAP2 SWAP1 DUP2 DUP2 MSTORE PUSH1 0x20 ADD DUP3 DUP1 SLOAD PUSH2 0x18BD SWAP1 PUSH2 0x2215 JUMP JUMPDEST DUP1 ISZERO PUSH2 0x190A JUMPI DUP1 PUSH1 0x1F LT PUSH2 0x18DF JUMPI PUSH2 0x100 DUP1 DUP4 SLOAD DIV MUL DUP4 MSTORE SWAP2 PUSH1 0x20 ADD SWAP2 PUSH2 0x190A JUMP JUMPDEST DUP3 ADD SWAP2 SWAP1 PUSH1 0x0 MSTORE PUSH1 0x20 PUSH1 0x0 KECCAK256 SWAP1 JUMPDEST DUP2 SLOAD DUP2 MSTORE SWAP1 PUSH1 0x1 ADD SWAP1 PUSH1 0x20 ADD DUP1 DUP4 GT PUSH2 0x18ED JUMPI DUP3 SWAP1 SUB PUSH1 0x1F AND DUP3 ADD SWAP2 JUMPDEST POP POP POP POP POP SWAP1 DUP1 PUSH1 0x3 ADD DUP1 SLOAD PUSH2 0x191F SWAP1 PUSH2 0x2215 JUMP JUMPDEST DUP1 PUSH1 0x1F ADD PUSH1 0x20 DUP1 SWAP2 DIV MUL PUSH1 0x20 ADD PUSH1 0x40 MLOAD SWAP1 DUP2 ADD PUSH1 0x40 MSTORE DUP1 SWAP3 SWAP2 SWAP1 DUP2 DUP2 MSTORE PUSH1 0x20 ADD DUP3 DUP1 SLOAD PUSH2 0x194B SWAP1 PUSH2 0x2215 JUMP JUMPDEST DUP1 ISZERO PUSH2 0x1998 JUMPI DUP1 PUSH1 0x1F LT PUSH2 0x196D JUMPI PUSH2 0x100 DUP1 DUP4 SLOAD DIV MUL DUP4 MSTORE SWAP2 PUSH1 0x20 ADD SWAP2 PUSH2 0x1998 JUMP JUMPDEST DUP3 ADD SWAP2 SWAP1 PUSH1 0x0 MSTORE PUSH1 0x20 PUSH1 0x0 KECCAK256 SWAP1 JUMPDEST DUP2 SLOAD DUP2 MSTORE SWAP1 PUSH1 0x1 ADD SWAP1 PUSH1 0x20 ADD DUP1 DUP4 GT PUSH2 0x197B JUMPI DUP3 SWAP1 SUB PUSH1 0x1F AND DUP3 ADD SWAP2 JUMPDEST POP POP POP PUSH1 0x4 DUP5 ADD SLOAD PUSH1 0x5 DUP6 ADD SLOAD PUSH1 0x6 DUP7 ADD SLOAD PUSH1 0x7 DUP8 ADD SLOAD PUSH1 0x8 DUP9 ADD DUP1 SLOAD SWAP8 SWAP9 SWAP5 SWAP8 SWAP4 SWAP7 POP SWAP2 SWAP5 POP PUSH1 0xFF AND SWAP3 SWAP2 PUSH2 0x19CD SWAP1 PUSH2 0x2215 JUMP JUMPDEST DUP1 PUSH1 0x1F ADD PUSH1 0x20 DUP1 SWAP2 DIV MUL PUSH1 0x20 ADD PUSH1 0x40 MLOAD SWAP1 DUP2 ADD PUSH1 0x40 MSTORE DUP1 SWAP3 SWAP2 SWAP1 DUP2 DUP2 MSTORE PUSH1 0x20 ADD DUP3 DUP1 SLOAD PUSH2 0x19F9 SWAP1 PUSH2 0x2215 JUMP JUMPDEST DUP1 ISZERO PUSH2 0x1A46 JUMPI DUP1 PUSH1 0x1F LT PUSH2 0x1A1B JUMPI PUSH2 0x100 DUP1 DUP4 SLOAD DIV MUL DUP4 MSTORE SWAP2 PUSH1 0x20 ADD SWAP2 PUSH2 0x1A46 JUMP JUMPDEST DUP3 ADD SWAP2 SWAP1 PUSH1 0x0 MSTORE PUSH1 0x20 PUSH1 0x0 KECCAK256 SWAP1 JUMPDEST DUP2 SLOAD DUP2 MSTORE SWAP1 PUSH1 0x1 ADD SWAP1 PUSH1 0x20 ADD DUP1 DUP4 GT PUSH2 0x1A29 JUMPI DUP3 SWAP1 SUB PUSH1 0x1F AND DUP3 ADD SWAP2 JUMPDEST POP POP POP POP POP SWAP1 DUP1 PUSH1 0x9 ADD SLOAD SWAP1 POP DUP11 JUMP JUMPDEST PUSH1 0x40 DUP1 MLOAD DUP1 DUP3 ADD SWAP1 SWAP2 MSTORE PUSH1 0xD DUP2 MSTORE PUSH13 0x65786368616E67655F6861636B PUSH1 0x98 SHL PUSH1 0x20 SWAP2 DUP3 ADD MSTORE DUP2 MLOAD SWAP1 DUP3 ADD KECCAK256 PUSH1 0x0 SWAP1 PUSH1 0x1 SWAP1 PUSH32 0x9CE6D996E301F1A8DBE98E70D7EE122705F835685B12126AC0A10719928D58A6 ADD PUSH2 0x1AB5 JUMPI POP PUSH1 0x2 PUSH2 0x1B06 JUMP JUMPDEST PUSH1 0x40 DUP1 MLOAD DUP1 DUP3 ADD SWAP1 SWAP2 MSTORE PUSH1 0x9 DUP2 MSTORE PUSH9 0x646566695F7269736B PUSH1 0xB8 SHL PUSH1 0x20 SWAP2 DUP3 ADD MSTORE DUP4 MLOAD SWAP1 DUP5 ADD KECCAK256 PUSH32 0x11D5EA21445D5BA4825480A12ABE0B412AB4900A5C16F8C4AE8C5798BFB514A0 ADD PUSH2 0x1B06 JUMPI POP PUSH1 0x3 JUMPDEST PUSH4 0xBBF81E00 PUSH2 0x1B15 TIMESTAMP DUP7 PUSH2 0x23D7 JUMP JUMPDEST PUSH2 0x1B1F DUP4 DUP9 PUSH2 0x23EA JUMP JUMPDEST PUSH2 0x1B29 SWAP2 SWAP1 PUSH2 0x23EA JUMP JUMPDEST PUSH2 0x1B33 SWAP2 SWAP1 PUSH2 0x2401 JUMP JUMPDEST SWAP6 SWAP5 POP POP POP POP POP JUMP JUMPDEST PUSH2 0x1B44 PUSH2 0x1B7A JUMP JUMPDEST PUSH1 0x1 PUSH1 0x1 PUSH1 0xA0 SHL SUB DUP2 AND PUSH2 0x1B6E JUMPI PUSH1 0x40 MLOAD PUSH4 0x1E4FBDF7 PUSH1 0xE0 SHL DUP2 MSTORE PUSH1 0x0 PUSH1 0x4 DUP3 ADD MSTORE PUSH1 0x24 ADD PUSH2 0x6AB JUMP JUMPDEST PUSH2 0x1B77 DUP2 PUSH2 0x1BA7 JUMP JUMPDEST POP JUMP JUMPDEST PUSH1 0x0 SLOAD PUSH1 0x1 PUSH1 0x1 PUSH1 0xA0 SHL SUB AND CALLER EQ PUSH2 0xD63 JUMPI PUSH1 0x40 MLOAD PUSH4 0x118CDAA7 PUSH1 0xE0 SHL DUP2 MSTORE CALLER PUSH1 0x4 DUP3 ADD MSTORE PUSH1 0x24 ADD PUSH2 0x6AB JUMP JUMPDEST PUSH1 0x0 DUP1 SLOAD PUSH1 0x1 PUSH1 0x1 PUSH1 0xA0 SHL SUB DUP4 DUP2 AND PUSH20 0xFFFFFFFFFFFFFFFFFFFFFFFFFFFFFFFFFFFFFFFF NOT DUP4 AND DUP2 OR DUP5 SSTORE PUSH1 0x40 MLOAD SWAP2 SWAP1 SWAP3 AND SWAP3 DUP4 SWAP2 PUSH32 0x8BE0079C531659141344CD1FD0A4F28419497F9722A3DAAFE3B4186F6B6457E0 SWAP2 SWAP1 LOG3 POP POP JUMP JUMPDEST PUSH1 0x40 MLOAD DUP1 PUSH2 0x140 ADD PUSH1 0x40 MSTORE DUP1 PUSH1 0x0 DUP2 MSTORE PUSH1 0x20 ADD PUSH1 0x0 PUSH1 0x1 PUSH1 0x1 PUSH1 0xA0 SHL SUB AND DUP2 MSTORE PUSH1 0x20 ADD PUSH1 0x60 DUP2 MSTORE PUSH1 0x20 ADD PUSH1 0x60 DUP2 MSTORE PUSH1 0x20 ADD PUSH1 0x0 DUP2 MSTORE PUSH1 0x20 ADD PUSH1 0x0 DUP2 MSTORE PUSH1 0x20 ADD PUSH1 0x0 DUP2 MSTORE PUSH1 0x20 ADD PUSH1 0x0 ISZERO ISZERO DUP2 MSTORE PUSH1 0x20 ADD PUSH1 0x60 DUP2 MSTORE PUSH1 0x20 ADD PUSH1 0x0 DUP2 MSTORE POP SWAP1 JUMP JUMPDEST POP DUP1 SLOAD PUSH2 0x1C6E SWAP1 PUSH2 0x2215 JUMP JUMPDEST PUSH1 0x0 DUP3 SSTORE DUP1 PUSH1 0x1F LT PUSH2 0x1C7E JUMPI POP POP JUMP JUMPDEST PUSH1 0x1F ADD PUSH1 0x20 SWAP1 DIV SWAP1 PUSH1 0x0 MSTORE PUSH1 0x20 PUSH1 0x0 KECCAK256 SWAP1 DUP2 ADD SWAP1 PUSH2 0x1B77 SWAP2 SWAP1 JUMPDEST DUP1 DUP3 GT ISZERO PUSH2 0x1CAC JUMPI PUSH1 0x0 DUP2 SSTORE PUSH1 0x1 ADD PUSH2 0x1C98 JUMP JUMPDEST POP SWAP1 JUMP JUMPDEST DUP1 CALLDATALOAD PUSH1 0x1 PUSH1 0x1 PUSH1 0xA0 SHL SUB DUP2 AND DUP2 EQ PUSH2 0x1CC7 JUMPI PUSH1 0x0 DUP1 REVERT JUMPDEST SWAP2 SWAP1 POP JUMP JUMPDEST PUSH1 0x0 DUP1 PUSH1 0x40 DUP4 DUP6 SUB SLT ISZERO PUSH2 0x1CDF JUMPI PUSH1 0x0 DUP1 REVERT JUMPDEST DUP3 CALLDATALOAD SWAP2 POP PUSH2 0x1CEF PUSH1 0x20 DUP5 ADD PUSH2 0x1CB0 JUMP JUMPDEST SWAP1 POP SWAP3 POP SWAP3 SWAP1 POP JUMP JUMPDEST PUSH1 0x0 DUP2 MLOAD DUP1 DUP5 MSTORE PUSH1 0x0 JUMPDEST DUP2 DUP2 LT ISZERO PUSH2 0x1D1E JUMPI PUSH1 0x20 DUP2 DUP6 ADD DUP2 ADD MLOAD DUP7 DUP4 ADD DUP3 ADD MSTORE ADD PUSH2 0x1D02 JUMP JUMPDEST POP PUSH1 0x0 PUSH1 0x20 DUP3 DUP7 ADD ADD MSTORE PUSH1 0x20 PUSH1 0x1F NOT PUSH1 0x1F DUP4 ADD AND DUP6 ADD ADD SWAP2 POP POP SWAP3 SWAP2 POP POP JUMP JUMPDEST PUSH1 0x0 PUSH1 0x20 DUP3 ADD PUSH1 0x20 DUP4 MSTORE DUP1 DUP5 MLOAD DUP1 DUP4 MSTORE PUSH1 0x40 DUP6 ADD SWAP2 POP PUSH1 0x40 DUP2 PUSH1 0x5 SHL DUP7 ADD ADD SWAP3 POP PUSH1 0x20 DUP7 ADD PUSH1 0x0 JUMPDEST DUP3 DUP2 LT ISZERO PUSH2 0x1DFD JUMPI PUSH1 0x3F NOT DUP8 DUP7 SUB ADD DUP5 MSTORE DUP2 MLOAD DUP1 MLOAD DUP7 MSTORE PUSH1 0x20 DUP2 ADD MLOAD PUSH1 0x20 DUP8 ADD MSTORE PUSH1 0x40 DUP2 ADD MLOAD ISZERO ISZERO PUSH1 0x40 DUP8 ADD MSTORE PUSH1 0x60 DUP2 ADD MLOAD ISZERO ISZERO PUSH1 0x60 DUP8 ADD MSTORE PUSH1 0x1 PUSH1 0x1 PUSH1 0xA0 SHL SUB PUSH1 0x80 DUP3 ADD MLOAD AND PUSH1 0x80 DUP8 ADD MSTORE PUSH1 0xA0 DUP2 ADD MLOAD PUSH1 0xE0 PUSH1 0xA0 DUP9 ADD MSTORE PUSH2 0x1DCB PUSH1 0xE0 DUP9 ADD DUP3 PUSH2 0x1CF8 JUMP JUMPDEST SWAP1 POP PUSH1 0xC0 DUP3 ADD MLOAD SWAP2 POP DUP7 DUP2 SUB PUSH1 0xC0 DUP9 ADD MSTORE PUSH2 0x1DE6 DUP2 DUP4 PUSH2 0x1CF8 JUMP JUMPDEST SWAP7 POP POP POP PUSH1 0x20 SWAP4 DUP5 ADD SWAP4 SWAP2 SWAP1 SWAP2 ADD SWAP1 PUSH1 0x1 ADD PUSH2 0x1D66 JUMP JUMPDEST POP SWAP3 SWAP7 SWAP6 POP POP POP POP POP POP JUMP JUMPDEST PUSH1 0x0 PUSH1 0x20 DUP3 DUP5 SUB SLT ISZERO PUSH2 0x1E1B JUMPI PUSH1 0x0 DUP1 REVERT JUMPDEST POP CALLDATALOAD SWAP2 SWAP1 POP JUMP JUMPDEST DUP1 MLOAD DUP3 MSTORE PUSH1 0x0 PUSH1 0x20 DUP3 ADD MLOAD PUSH2 0x1E42 PUSH1 0x20 DUP6 ADD DUP3 PUSH1 0x1 PUSH1 0x1 PUSH1 0xA0 SHL SUB AND SWAP1 MSTORE JUMP JUMPDEST POP PUSH1 0x40 DUP3 ADD MLOAD PUSH2 0x140 PUSH1 0x40 DUP6 ADD MSTORE PUSH2 0x1E5E PUSH2 0x140 DUP6 ADD DUP3 PUSH2 0x1CF8 JUMP JUMPDEST SWAP1 POP PUSH1 0x60 DUP4 ADD MLOAD DUP5 DUP3 SUB PUSH1 0x60 DUP7 ADD MSTORE PUSH2 0x1E77 DUP3 DUP3 PUSH2 0x1CF8 JUMP JUMPDEST SWAP2 POP POP PUSH1 0x80 DUP4 ADD MLOAD PUSH1 0x80 DUP6 ADD MSTORE PUSH1 0xA0 DUP4 ADD MLOAD PUSH1 0xA0 DUP6 ADD MSTORE PUSH1 0xC0 DUP4 ADD MLOAD PUSH1 0xC0 DUP6 ADD MSTORE PUSH1 0xE0 DUP4 ADD MLOAD PUSH2 0x1EAB PUSH1 0xE0 DUP7 ADD DUP3 ISZERO ISZERO SWAP1 MSTORE JUMP JUMPDEST POP PUSH2 0x100 DUP4 ADD MLOAD DUP5 DUP3 SUB PUSH2 0x100 DUP7 ADD MSTORE PUSH2 0x1EC5 DUP3 DUP3 PUSH2 0x1CF8 JUMP JUMPDEST SWAP2 POP POP PUSH2 0x120 DUP4 ADD MLOAD PUSH2 0x120 DUP6 ADD MSTORE DUP1 SWAP2 POP POP SWAP3 SWAP2 POP POP JUMP JUMPDEST PUSH1 0x0 PUSH1 0x20 DUP3 ADD PUSH1 0x20 DUP4 MSTORE DUP1 DUP5 MLOAD DUP1 DUP4 MSTORE PUSH1 0x40 DUP6 ADD SWAP2 POP PUSH1 0x40 DUP2 PUSH1 0x5 SHL DUP7 ADD ADD SWAP3 POP PUSH1 0x20 DUP7 ADD PUSH1 0x0 JUMPDEST DUP3 DUP2 LT ISZERO PUSH2 0x1DFD JUMPI PUSH1 0x3F NOT DUP8 DUP7 SUB ADD DUP5 MSTORE PUSH2 0x1F22 DUP6 DUP4 MLOAD PUSH2 0x1E22 JUMP JUMPDEST SWAP5 POP PUSH1 0x20 SWAP4 DUP5 ADD SWAP4 SWAP2 SWAP1 SWAP2 ADD SWAP1 PUSH1 0x1 ADD PUSH2 0x1F06 JUMP JUMPDEST PUSH4 0x4E487B71 PUSH1 0xE0 SHL PUSH1 0x0 MSTORE PUSH1 0x41 PUSH1 0x4 MSTORE PUSH1 0x24 PUSH1 0x0 REVERT JUMPDEST PUSH1 0x0 DUP3 PUSH1 0x1F DUP4 ADD SLT PUSH2 0x1F5E JUMPI PUSH1 0x0 DUP1 REVERT JUMPDEST DUP2 CALLDATALOAD PUSH8 0xFFFFFFFFFFFFFFFF DUP2 GT ISZERO PUSH2 0x1F78 JUMPI PUSH2 0x1F78 PUSH2 0x1F37 JUMP JUMPDEST PUSH1 0x40 MLOAD PUSH1 0x1F DUP3 ADD PUSH1 0x1F NOT SWAP1 DUP2 AND PUSH1 0x3F ADD AND DUP2 ADD PUSH8 0xFFFFFFFFFFFFFFFF DUP2 GT DUP3 DUP3 LT OR ISZERO PUSH2 0x1FA7 JUMPI PUSH2 0x1FA7 PUSH2 0x1F37 JUMP JUMPDEST PUSH1 0x40 MSTORE DUP2 DUP2 MSTORE DUP4 DUP3 ADD PUSH1 0x20 ADD DUP6 LT ISZERO PUSH2 0x1FBF JUMPI PUSH1 0x0 DUP1 REVERT JUMPDEST DUP2 PUSH1 0x20 DUP6 ADD PUSH1 0x20 DUP4 ADD CALLDATACOPY PUSH1 0x0 SWAP2 DUP2 ADD PUSH1 0x20 ADD SWAP2 SWAP1 SWAP2 MSTORE SWAP4 SWAP3 POP POP POP JUMP JUMPDEST PUSH1 0x0 DUP1 PUSH1 0x0 DUP1 PUSH1 0x0 PUSH1 0xA0 DUP7 DUP9 SUB SLT ISZERO PUSH2 0x1FF4 JUMPI PUSH1 0x0 DUP1 REVERT JUMPDEST DUP6 CALLDATALOAD PUSH8 0xFFFFFFFFFFFFFFFF DUP2 GT ISZERO PUSH2 0x200B JUMPI PUSH1 0x0 DUP1 REVERT JUMPDEST PUSH2 0x2017 DUP9 DUP3 DUP10 ADD PUSH2 0x1F4D JUMP JUMPDEST SWAP6 POP POP PUSH1 0x20 DUP7 ADD CALLDATALOAD SWAP4 POP PUSH1 0x40 DUP7 ADD CALLDATALOAD PUSH8 0xFFFFFFFFFFFFFFFF DUP2 GT ISZERO PUSH2 0x203B JUMPI PUSH1 0x0 DUP1 REVERT JUMPDEST PUSH2 0x2047 DUP9 DUP3 DUP10 ADD PUSH2 0x1F4D JUMP JUMPDEST SWAP4 POP POP PUSH1 0x60 DUP7 ADD CALLDATALOAD SWAP2 POP PUSH1 0x80 DUP7 ADD CALLDATALOAD PUSH8 0xFFFFFFFFFFFFFFFF DUP2 GT ISZERO PUSH2 0x206B JUMPI PUSH1 0x0 DUP1 REVERT JUMPDEST PUSH2 0x2077 DUP9 DUP3 DUP10 ADD PUSH2 0x1F4D JUMP JUMPDEST SWAP2 POP POP SWAP3 SWAP6 POP SWAP3 SWAP6 SWAP1 SWAP4 POP JUMP JUMPDEST PUSH1 0x0 PUSH1 0x20 DUP3 DUP5 SUB SLT ISZERO PUSH2 0x2096 JUMPI PUSH1 0x0 DUP1 REVERT JUMPDEST PUSH2 0x209F DUP3 PUSH2 0x1CB0 JUMP JUMPDEST SWAP4 SWAP3 POP POP POP JUMP JUMPDEST DUP8 DUP2 MSTORE DUP7 PUSH1 0x20 DUP3 ADD MSTORE DUP6 ISZERO ISZERO PUSH1 0x40 DUP3 ADD MSTORE DUP5 ISZERO ISZERO PUSH1 0x60 DUP3 ADD MSTORE PUSH1 0x1 PUSH1 0x1 PUSH1 0xA0 SHL SUB DUP5 AND PUSH1 0x80 DUP3 ADD MSTORE PUSH1 0xE0 PUSH1 0xA0 DUP3 ADD MSTORE PUSH1 0x0 PUSH2 0x20E4 PUSH1 0xE0 DUP4 ADD DUP6 PUSH2 0x1CF8 JUMP JUMPDEST DUP3 DUP2 SUB PUSH1 0xC0 DUP5 ADD MSTORE PUSH2 0x20F6 DUP2 DUP6 PUSH2 0x1CF8 JUMP JUMPDEST SWAP11 SWAP10 POP POP POP POP POP POP POP POP POP POP JUMP JUMPDEST PUSH1 0x0 DUP1 PUSH1 0x40 DUP4 DUP6 SUB SLT ISZERO PUSH2 0x2117 JUMPI PUSH1 0x0 DUP1 REVERT JUMPDEST PUSH2 0x2120 DUP4 PUSH2 0x1CB0 JUMP JUMPDEST SWAP5 PUSH1 0x20 SWAP4 SWAP1 SWAP4 ADD CALLDATALOAD SWAP4 POP POP POP JUMP JUMPDEST PUSH1 0x20 DUP2 MSTORE PUSH1 0x0 PUSH2 0x209F PUSH1 0x20 DUP4 ADD DUP5 PUSH2 0x1E22 JUMP JUMPDEST DUP11 DUP2 MSTORE PUSH1 0x1 PUSH1 0x1 PUSH1 0xA0 SHL SUB DUP11 AND PUSH1 0x20 DUP3 ADD MSTORE PUSH2 0x140 PUSH1 0x40 DUP3 ADD MSTORE PUSH1 0x0 PUSH2 0x216B PUSH2 0x140 DUP4 ADD DUP12 PUSH2 0x1CF8 JUMP JUMPDEST DUP3 DUP2 SUB PUSH1 0x60 DUP5 ADD MSTORE PUSH2 0x217D DUP2 DUP12 PUSH2 0x1CF8 JUMP JUMPDEST SWAP1 POP DUP9 PUSH1 0x80 DUP5 ADD MSTORE DUP8 PUSH1 0xA0 DUP5 ADD MSTORE DUP7 PUSH1 0xC0 DUP5 ADD MSTORE DUP6 ISZERO ISZERO PUSH1 0xE0 DUP5 ADD MSTORE DUP3 DUP2 SUB PUSH2 0x100 DUP5 ADD MSTORE PUSH2 0x21AC DUP2 DUP7 PUSH2 0x1CF8 JUMP JUMPDEST SWAP2 POP POP DUP3 PUSH2 0x120 DUP4 ADD MSTORE SWAP12 SWAP11 POP POP POP POP POP POP POP POP POP POP POP JUMP JUMPDEST PUSH1 0x0 DUP1 PUSH1 0x0 PUSH1 0x60 DUP5 DUP7 SUB SLT ISZERO PUSH2 0x21DA JUMPI PUSH1 0x0 DUP1 REVERT JUMPDEST DUP4 CALLDATALOAD SWAP3 POP PUSH1 0x20 DUP5 ADD CALLDATALOAD SWAP2 POP PUSH1 0x40 DUP5 ADD CALLDATALOAD PUSH8 0xFFFFFFFFFFFFFFFF DUP2 GT ISZERO PUSH2 0x21FF JUMPI PUSH1 0x0 DUP1 REVERT JUMPDEST PUSH2 0x220B DUP7 DUP3 DUP8 ADD PUSH2 0x1F4D JUMP JUMPDEST SWAP2 POP POP SWAP3 POP SWAP3 POP SWAP3 JUMP JUMPDEST PUSH1 0x1 DUP2 DUP2 SHR SWAP1 DUP3 AND DUP1 PUSH2 0x2229 JUMPI PUSH1 0x7F DUP3 AND SWAP2 POP JUMPDEST PUSH1 0x20 DUP3 LT DUP2 SUB PUSH2 0x2249 JUMPI PUSH4 0x4E487B71 PUSH1 0xE0 SHL PUSH1 0x0 MSTORE PUSH1 0x22 PUSH1 0x4 MSTORE PUSH1 0x24 PUSH1 0x0 REVERT JUMPDEST POP SWAP2 SWAP1 POP JUMP JUMPDEST PUSH4 0x4E487B71 PUSH1 0xE0 SHL PUSH1 0x0 MSTORE PUSH1 0x11 PUSH1 0x4 MSTORE PUSH1 0x24 PUSH1 0x0 REVERT JUMPDEST DUP1 DUP3 ADD DUP1 DUP3 GT ISZERO PUSH2 0x459 JUMPI PUSH2 0x459 PUSH2 0x224F JUMP JUMPDEST PUSH4 0x4E487B71 PUSH1 0xE0 SHL PUSH1 0x0 MSTORE PUSH1 0x32 PUSH1 0x4 MSTORE PUSH1 0x24 PUSH1 0x0 REVERT JUMPDEST PUSH1 0x0 PUSH1 0x20 DUP3 DUP5 SUB SLT ISZERO PUSH2 0x22A0 JUMPI PUSH1 0x0 DUP1 REVERT JUMPDEST DUP2 MLOAD DUP1 ISZERO ISZERO DUP2 EQ PUSH2 0x209F JUMPI PUSH1 0x0 DUP1 REVERT JUMPDEST PUSH1 0x0 PUSH1 0x1 DUP3 ADD PUSH2 0x22C2 JUMPI PUSH2 0x22C2 PUSH2 0x224F JUMP JUMPDEST POP PUSH1 0x1 ADD SWAP1 JUMP JUMPDEST PUSH1 0x1F DUP3 GT ISZERO PUSH2 0x2313 JUMPI DUP1 PUSH1 0x0 MSTORE PUSH1 0x20 PUSH1 0x0 KECCAK256 PUSH1 0x1F DUP5 ADD PUSH1 0x5 SHR DUP2 ADD PUSH1 0x20 DUP6 LT ISZERO PUSH2 0x22F0 JUMPI POP DUP1 JUMPDEST PUSH1 0x1F DUP5 ADD PUSH1 0x5 SHR DUP3 ADD SWAP2 POP JUMPDEST DUP2 DUP2 LT ISZERO PUSH2 0x2310 JUMPI PUSH1 0x0 DUP2 SSTORE PUSH1 0x1 ADD PUSH2 0x22FC JUMP JUMPDEST POP POP JUMPDEST POP POP POP JUMP JUMPDEST DUP2 MLOAD PUSH8 0xFFFFFFFFFFFFFFFF DUP2 GT ISZERO PUSH2 0x2332 JUMPI PUSH2 0x2332 PUSH2 0x1F37 JUMP JUMPDEST PUSH2 0x2346 DUP2 PUSH2 0x2340 DUP5 SLOAD PUSH2 0x2215 JUMP JUMPDEST DUP5 PUSH2 0x22C9 JUMP JUMPDEST PUSH1 0x20 PUSH1 0x1F DUP3 GT PUSH1 0x1 DUP2 EQ PUSH2 0x237A JUMPI PUSH1 0x0 DUP4 ISZERO PUSH2 0x2362 JUMPI POP DUP5 DUP3 ADD MLOAD JUMPDEST PUSH1 0x0 NOT PUSH1 0x3 DUP6 SWAP1 SHL SHR NOT AND PUSH1 0x1 DUP5 SWAP1 SHL OR DUP5 SSTORE PUSH2 0x2310 JUMP JUMPDEST PUSH1 0x0 DUP5 DUP2 MSTORE PUSH1 0x20 DUP2 KECCAK256 PUSH1 0x1F NOT DUP6 AND SWAP2 JUMPDEST DUP3 DUP2 LT ISZERO PUSH2 0x23AA JUMPI DUP8 DUP6 ADD MLOAD DUP3 SSTORE PUSH1 0x20 SWAP5 DUP6 ADD SWAP5 PUSH1 0x1 SWAP1 SWAP3 ADD SWAP2 ADD PUSH2 0x238A JUMP JUMPDEST POP DUP5 DUP3 LT ISZERO PUSH2 0x23C8 JUMPI DUP7 DUP5 ADD MLOAD PUSH1 0x0 NOT PUSH1 0x3 DUP8 SWAP1 SHL PUSH1 0xF8 AND SHR NOT AND DUP2 SSTORE JUMPDEST POP POP POP POP PUSH1 0x1 SWAP1 DUP2 SHL ADD SWAP1 SSTORE POP JUMP JUMPDEST DUP2 DUP2 SUB DUP2 DUP2 GT ISZERO PUSH2 0x459 JUMPI PUSH2 0x459 PUSH2 0x224F JUMP JUMPDEST DUP1 DUP3 MUL DUP2 ISZERO DUP3 DUP3 DIV DUP5 EQ OR PUSH2 0x459 JUMPI PUSH2 0x459 PUSH2 0x224F JUMP JUMPDEST PUSH1 0x0 DUP3 PUSH2 0x241E JUMPI PUSH4 0x4E487B71 PUSH1 0xE0 SHL PUSH1 0x0 MSTORE PUSH1 0x12 PUSH1 0x4 MSTORE PUSH1 0x24 PUSH1 0x0 REVERT JUMPDEST POP DIV SWAP1 JUMP INVALID LOG2 PUSH5 0x6970667358 0x22 SLT KECCAK256 DUP13 SLT 0x4C PUSH25 0xDF853CB2FA82145F11C2ED7CFE9241D3BBF4920DAC7FEAED51 0xF9 PUSH24 0x2864736F6C634300081A0033000000000000000000000000 "},"methodIdentifiers":{"Claims(uint256)":"9e34c7d2","UnverifiedClaims(uint256)":"bbc56e2a","addressToPolicy(address,uint256)":"bb1e110d","calculatePremium(uint256,uint256,string)":"e0062179","checkOwnershipOfPolicy(uint256,address)":"0a3c3f9c","createPolicy(string,uint256,string,uint256,string)":"6ba357e5","getAllPolicies()":"457e5521","getAllPoliciesForUser(address)":"7e469f51","getAllUnverifiedClaims()":"1258ee9c","getPolicyDetails(uint256)":"cc038010","insurancePool()":"ab2adc00","nextClaimId()":"a0021cf1","nextPolicyId()":"cad0b8db","owner()":"8da5cb5b","payPremium(uint256)":"4364b26e","policies(uint256)":"d3e89483","purchasePolicy(uint256)":"c1260c9a","renounceOwnership()":"715018a6","safeToken()":"4b3fd05a","transferOwnership(address)":"f2fde38b","verifyClaim(uint256)":"c0d7e2b6"}}}}}