{"contracts/ReducedManager.sol":{"ReducedManager":{"abi":[{"inputs":[{"internalType":"address","name":"_safeToken","type":"address"},{"internalType":"address","name":"_insurancePool","type":"address"}],"stateMutability":"nonpayable","type":"constructor"},{"inputs":[{"internalType":"address","name":"owner","type":"address"}],"name":"OwnableInvalidOwner","type":"error"},{"inputs":[{"internalType":"address","name":"account","type":"address"}],"name":"OwnableUnauthorizedAccount","type":"error"},{"anonymous":false,"inputs":[{"indexed":true,"internalType":"uint256","name":"policyId","type":"uint256"},{"indexed":false,"internalType":"address","name":"buyer","type":"address"},{"indexed":false,"internalType":"string","name":"description","type":"string"}],"name":"ClaimCreated","type":"event"},{"anonymous":false,"inputs":[{"indexed":true,"internalType":"address","name":"previousOwner","type":"address"},{"indexed":true,"internalType":"address","name":"newOwner","type":"address"}],"name":"OwnershipTransferred","type":"event"},{"anonymous":false,"inputs":[{"indexed":true,"internalType":"uint256","name":"policyId","type":"uint256"},{"indexed":false,"internalType":"address","name":"owner","type":"address"},{"indexed":false,"internalType":"uint256","name":"claimAmount","type":"uint256"}],"name":"PolicyClaimed","type":"event"},{"anonymous":false,"inputs":[{"indexed":true,"internalType":"uint256","name":"policyId","type":"uint256"},{"indexed":false,"internalType":"address","name":"owner","type":"address"},{"indexed":false,"internalType":"uint256","name":"coverageAmount","type":"uint256"},{"indexed":false,"internalType":"uint256","name":"premium","type":"uint256"},{"indexed":false,"internalType":"uint256","name":"expirationDate","type":"uint256"}],"name":"PolicyCreated","type":"event"},{"anonymous":false,"inputs":[{"indexed":true,"internalType":"uint256","name":"policyId","type":"uint256"},{"indexed":false,"internalType":"address","name":"buyer","type":"address"}],"name":"PolicyPurchased","type":"event"},{"anonymous":false,"inputs":[{"indexed":true,"internalType":"uint256","name":"policyId","type":"uint256"},{"indexed":false,"internalType":"address","name":"buyer","type":"address"},{"indexed":false,"internalType":"uint256","name":"amountPaid","type":"uint256"}],"name":"PremiumPaid","type":"event"},{"inputs":[{"internalType":"address","name":"","type":"address"},{"internalType":"uint256","name":"","type":"uint256"}],"name":"addressToPolicy","outputs":[{"internalType":"uint256","name":"","type":"uint256"}],"stateMutability":"view","type":"function"},{"inputs":[{"internalType":"uint256","name":"coverageAmount","type":"uint256"},{"internalType":"uint256","name":"duration","type":"uint256"},{"internalType":"string","name":"coverageType","type":"string"}],"name":"calculatePremium","outputs":[{"internalType":"uint256","name":"","type":"uint256"}],"stateMutability":"view","type":"function"},{"inputs":[{"internalType":"uint256","name":"policyId","type":"uint256"},{"internalType":"string","name":"_documentIPFSHash","type":"string"},{"internalType":"string","name":"_description","type":"string"}],"name":"claimPolicy","outputs":[],"stateMutability":"nonpayable","type":"function"},{"inputs":[{"internalType":"uint256","name":"","type":"uint256"}],"name":"claims","outputs":[{"internalType":"uint256","name":"claimId","type":"uint256"},{"internalType":"uint256","name":"policyId","type":"uint256"},{"internalType":"bool","name":"isVerified","type":"bool"},{"internalType":"bool","name":"isPaid","type":"bool"},{"internalType":"address","name":"buyerAddress","type":"address"},{"internalType":"string","name":"documentIPFSHash","type":"string"},{"internalType":"string","name":"description","type":"string"}],"stateMutability":"view","type":"function"},{"inputs":[{"internalType":"string","name":"_title","type":"string"},{"internalType":"uint256","name":"coverageAmount","type":"uint256"},{"internalType":"string","name":"_description","type":"string"},{"internalType":"uint256","name":"expirationDate","type":"uint256"},{"internalType":"string","name":"coverageType","type":"string"}],"name":"createPolicy","outputs":[{"internalType":"uint256","name":"","type":"uint256"}],"stateMutability":"nonpayable","type":"function"},{"inputs":[],"name":"insurancePool","outputs":[{"internalType":"contract IInsurancePool","name":"","type":"address"}],"stateMutability":"view","type":"function"},{"inputs":[],"name":"nextClaimId","outputs":[{"internalType":"uint256","name":"","type":"uint256"}],"stateMutability":"view","type":"function"},{"inputs":[],"name":"nextPolicyId","outputs":[{"internalType":"uint256","name":"","type":"uint256"}],"stateMutability":"view","type":"function"},{"inputs":[],"name":"owner","outputs":[{"internalType":"address","name":"","type":"address"}],"stateMutability":"view","type":"function"},{"inputs":[{"internalType":"uint256","name":"","type":"uint256"}],"name":"policies","outputs":[{"internalType":"uint256","name":"id","type":"uint256"},{"internalType":"address","name":"owner","type":"address"},{"internalType":"string","name":"title","type":"string"},{"internalType":"string","name":"description","type":"string"},{"internalType":"uint256","name":"coverageAmount","type":"uint256"},{"internalType":"uint256","name":"premium","type":"uint256"},{"internalType":"uint256","name":"expirationDate","type":"uint256"},{"internalType":"bool","name":"isActive","type":"bool"},{"internalType":"string","name":"coverageType","type":"string"},{"internalType":"uint256","name":"nextPremiumDate","type":"uint256"}],"stateMutability":"view","type":"function"},{"inputs":[{"internalType":"uint256","name":"policyId","type":"uint256"}],"name":"purchasePolicy","outputs":[],"stateMutability":"payable","type":"function"},{"inputs":[],"name":"renounceOwnership","outputs":[],"stateMutability":"nonpayable","type":"function"},{"inputs":[],"name":"safeToken","outputs":[{"internalType":"contract IToken","name":"","type":"address"}],"stateMutability":"view","type":"function"},{"inputs":[{"internalType":"address","name":"newOwner","type":"address"}],"name":"transferOwnership","outputs":[],"stateMutability":"nonpayable","type":"function"},{"inputs":[{"internalType":"uint256","name":"claimId","type":"uint256"}],"name":"verifyClaim","outputs":[],"stateMutability":"nonpayable","type":"function"}],"evm":{"bytecode":{"linkReferences":{},"object":"608060405234801561001057600080fd5b5060405161159838038061159883398101604081905261002f916100fc565b338061005557604051631e4fbdf760e01b81526000600482015260240160405180910390fd5b61005e81610090565b50600180546001600160a01b039384166001600160a01b0319918216179091556002805492909316911617905561012f565b600080546001600160a01b038381166001600160a01b0319831681178455604051919092169283917f8be0079c531659141344cd1fd0a4f28419497f9722a3daafe3b4186f6b6457e09190a35050565b80516001600160a01b03811681146100f757600080fd5b919050565b6000806040838503121561010f57600080fd5b610118836100e0565b9150610126602084016100e0565b90509250929050565b61145a8061013e6000396000f3fe6080604052600436106100e85760003560e01c8063bb1e110d1161008a578063cad0b8db11610059578063cad0b8db14610269578063d3e894831461027f578063e0062179146102b5578063f2fde38b146102d557600080fd5b8063bb1e110d146101f6578063beac7cc414610216578063c0d7e2b614610236578063c1260c9a1461025657600080fd5b80638da5cb5b116100c65780638da5cb5b1461016f578063a0021cf11461018d578063a888c2cd146101a3578063ab2adc00146101d657600080fd5b80634b3fd05a146100ed5780636ba357e51461012a578063715018a614610158575b600080fd5b3480156100f957600080fd5b5060015461010d906001600160a01b031681565b6040516001600160a01b0390911681526020015b60405180910390f35b34801561013657600080fd5b5061014a610145366004610ee9565b6102f5565b604051908152602001610121565b34801561016457600080fd5b5061016d61058d565b005b34801561017b57600080fd5b506000546001600160a01b031661010d565b34801561019957600080fd5b5061014a60075481565b3480156101af57600080fd5b506101c36101be366004610f91565b6105a1565b6040516101219796959493929190610ff0565b3480156101e257600080fd5b5060025461010d906001600160a01b031681565b34801561020257600080fd5b5061014a61021136600461106a565b610700565b34801561022257600080fd5b5061016d610231366004611094565b610731565b34801561024257600080fd5b5061016d610251366004610f91565b610860565b61016d610264366004610f91565b6109dd565b34801561027557600080fd5b5061014a60065481565b34801561028b57600080fd5b5061029f61029a366004610f91565b610a9f565b6040516101219a99989796959493929190611106565b3480156102c157600080fd5b5061014a6102d036600461118a565b610c96565b3480156102e157600080fd5b5061016d6102f03660046111c4565b610d7c565b600080610303868585610c96565b6001546002546040516323b872dd60e01b81523360048201526001600160a01b0391821660248201526044810184905292935016906323b872dd906064016020604051808303816000875af1158015610360573d6000803e3d6000fd5b505050506040513d601f19601f8201168201806040525081019061038491906111e6565b6103d55760405162461bcd60e51b815260206004820152601660248201527f5072656d69756d207061796d656e74206661696c65640000000000000000000060448201526064015b60405180910390fd5b60068054600091826103e68361121e565b919050559050604051806101400160405280828152602001336001600160a01b031681526020018981526020018781526020018881526020018381526020018681526020016001151581526020018581526020014262f7da006104499190611237565b9052600082815260036020908152604091829020835181559083015160018201805473ffffffffffffffffffffffffffffffffffffffff19166001600160a01b039092169190911790559082015160028201906104a690826112d9565b50606082015160038201906104bb90826112d9565b506080820151600482015560a0820151600582015560c0820151600682015560e082015160078201805460ff1916911515919091179055610100820151600882019061050790826112d9565b5061012091909101516009909101553360008181526004602090815260408083208054600181018255908452928290209092018490558151928352820189905281018390526060810186905281907fdd4dcb2ef94f82921d5c77e9cf4e5c8dd423fb1de1310a243115b95316f257779060800160405180910390a2979650505050505050565b610595610dba565b61059f6000610de7565b565b60056020526000908152604090208054600182015460028301546003840180549394929360ff808416946101008504909116936201000090046001600160a01b03169290916105ef90611250565b80601f016020809104026020016040519081016040528092919081815260200182805461061b90611250565b80156106685780601f1061063d57610100808354040283529160200191610668565b820191906000526020600020905b81548152906001019060200180831161064b57829003601f168201915b50505050509080600401805461067d90611250565b80601f01602080910402602001604051908101604052809291908181526020018280546106a990611250565b80156106f65780601f106106cb576101008083540402835291602001916106f6565b820191906000526020600020905b8154815290600101906020018083116106d957829003601f168201915b5050505050905087565b6004602052816000526040600020818154811061071c57600080fd5b90600052602060002001600091509150505481565b6040805160e0810182526007548082526020808301878152600084860181815260608601828152336080880190815260a088018b815260c089018b9052968452600590955296909120855181559151600183015551600282018054965193516001600160a01b0316620100000275ffffffffffffffffffffffffffffffffffffffff0000199415156101000261ff00199315159390931661ffff199098169790971791909117929092169490941790555190919060038201906107f490826112d9565b5060c0820151600482019061080990826112d9565b5050600780549150600061081c8361121e565b9190505550827f49df2fa74fcb74a57b6ade05a5b2b557c008ae98b667f70273671790d82ca1a23383604051610853929190611398565b60405180910390a2505050565b610868610dba565b600081815260056020908152604080832060018101548085526003909352922060028054908401546004838101546040516350802e3f60e01b8152620100009093046001600160a01b03908116928401929092526024830152909116906350802e3f90604401600060405180830381600087803b1580156108e857600080fd5b505af19250505080156108f9575060015b6109455760405162461bcd60e51b815260206004820152601060248201527f436c61696d20506179204661696c65640000000000000000000000000000000060448201526064016103cc565b60028301805461ffff1916610101179055336000908152600460205260409020805483908110610977576109776113c2565b9060005260206000200160009055817f5f2564c1ad353e58b81e7bd6cd0e6b1a3f52f46ab4c59c2cadfbaacc4b2e57163383600401546040516109cf9291906001600160a01b03929092168252602082015260400190565b60405180910390a250505050565b60025460405163d5a867b760e01b815233600482015234602482018190526001600160a01b039092169163d5a867b7916044016000604051808303818588803b158015610a2957600080fd5b505af1158015610a3d573d6000803e3d6000fd5b505033600081815260046020908152604080832080546001810182559084529282902090920187905590519182528594507f60d59b58b916d11d0ac52c397e342e25ae6dc5da412115d469d304bf4dd86404935001905060405180910390a250565b60036020526000908152604090208054600182015460028301805492936001600160a01b0390921692610ad190611250565b80601f0160208091040260200160405190810160405280929190818152602001828054610afd90611250565b8015610b4a5780601f10610b1f57610100808354040283529160200191610b4a565b820191906000526020600020905b815481529060010190602001808311610b2d57829003601f168201915b505050505090806003018054610b5f90611250565b80601f0160208091040260200160405190810160405280929190818152602001828054610b8b90611250565b8015610bd85780601f10610bad57610100808354040283529160200191610bd8565b820191906000526020600020905b815481529060010190602001808311610bbb57829003601f168201915b50505060048401546005850154600686015460078701546008880180549798949793965091945060ff169291610c0d90611250565b80601f0160208091040260200160405190810160405280929190818152602001828054610c3990611250565b8015610c865780601f10610c5b57610100808354040283529160200191610c86565b820191906000526020600020905b815481529060010190602001808311610c6957829003601f168201915b505050505090806009015490508a565b60408051808201909152600d81526c65786368616e67655f6861636b60981b6020918201528151908201206000906001907f9ce6d996e301f1a8dbe98e70d7ee122705f835685b12126ac0a10719928d58a601610cf557506002610d46565b604080518082019091526009815268646566695f7269736b60b81b6020918201528351908401207f11d5ea21445d5ba4825480a12abe0b412ab4900a5c16f8c4ae8c5798bfb514a001610d46575060035b63bbf81e00610d5542866113d8565b610d5f83886113eb565b610d6991906113eb565b610d739190611402565b95945050505050565b610d84610dba565b6001600160a01b038116610dae57604051631e4fbdf760e01b8152600060048201526024016103cc565b610db781610de7565b50565b6000546001600160a01b0316331461059f5760405163118cdaa760e01b81523360048201526024016103cc565b600080546001600160a01b0383811673ffffffffffffffffffffffffffffffffffffffff19831681178455604051919092169283917f8be0079c531659141344cd1fd0a4f28419497f9722a3daafe3b4186f6b6457e09190a35050565b634e487b7160e01b600052604160045260246000fd5b600082601f830112610e6b57600080fd5b813567ffffffffffffffff811115610e8557610e85610e44565b604051601f8201601f19908116603f0116810167ffffffffffffffff81118282101715610eb457610eb4610e44565b604052818152838201602001851015610ecc57600080fd5b816020850160208301376000918101602001919091529392505050565b600080600080600060a08688031215610f0157600080fd5b853567ffffffffffffffff811115610f1857600080fd5b610f2488828901610e5a565b95505060208601359350604086013567ffffffffffffffff811115610f4857600080fd5b610f5488828901610e5a565b93505060608601359150608086013567ffffffffffffffff811115610f7857600080fd5b610f8488828901610e5a565b9150509295509295909350565b600060208284031215610fa357600080fd5b5035919050565b6000815180845260005b81811015610fd057602081850181015186830182015201610fb4565b506000602082860101526020601f19601f83011685010191505092915050565b878152866020820152851515604082015284151560608201526001600160a01b038416608082015260e060a0820152600061102e60e0830185610faa565b82810360c08401526110408185610faa565b9a9950505050505050505050565b80356001600160a01b038116811461106557600080fd5b919050565b6000806040838503121561107d57600080fd5b6110868361104e565b946020939093013593505050565b6000806000606084860312156110a957600080fd5b83359250602084013567ffffffffffffffff8111156110c757600080fd5b6110d386828701610e5a565b925050604084013567ffffffffffffffff8111156110f057600080fd5b6110fc86828701610e5a565b9150509250925092565b8a81526001600160a01b038a1660208201526101406040820152600061113061014083018b610faa565b8281036060840152611142818b610faa565b90508860808401528760a08401528660c084015285151560e08401528281036101008401526111718186610faa565b915050826101208301529b9a5050505050505050505050565b60008060006060848603121561119f57600080fd5b8335925060208401359150604084013567ffffffffffffffff8111156110f057600080fd5b6000602082840312156111d657600080fd5b6111df8261104e565b9392505050565b6000602082840312156111f857600080fd5b815180151581146111df57600080fd5b634e487b7160e01b600052601160045260246000fd5b60006001820161123057611230611208565b5060010190565b8082018082111561124a5761124a611208565b92915050565b600181811c9082168061126457607f821691505b60208210810361128457634e487b7160e01b600052602260045260246000fd5b50919050565b601f8211156112d457806000526020600020601f840160051c810160208510156112b15750805b601f840160051c820191505b818110156112d157600081556001016112bd565b50505b505050565b815167ffffffffffffffff8111156112f3576112f3610e44565b611307816113018454611250565b8461128a565b6020601f82116001811461133b57600083156113235750848201515b600019600385901b1c1916600184901b1784556112d1565b600084815260208120601f198516915b8281101561136b578785015182556020948501946001909201910161134b565b50848210156113895786840151600019600387901b60f8161c191681555b50505050600190811b01905550565b6001600160a01b03831681526040602082015260006113ba6040830184610faa565b949350505050565b634e487b7160e01b600052603260045260246000fd5b8181038181111561124a5761124a611208565b808202811582820484141761124a5761124a611208565b60008261141f57634e487b7160e01b600052601260045260246000fd5b50049056fea26469706673582212200d14175b9d31edaca532c44cd9af04e660c3bc435d330059282eb69b733c400764736f6c634300081a0033","opcodes":"PUSH1 0x80 PUSH1 0x40 MSTORE CALLVALUE DUP1 ISZERO PUSH2 0x10 JUMPI PUSH1 0x0 DUP1 REVERT JUMPDEST POP PUSH1 0x40 MLOAD PUSH2 0x1598 CODESIZE SUB DUP1 PUSH2 0x1598 DUP4 CODECOPY DUP2 ADD PUSH1 0x40 DUP2 SWAP1 MSTORE PUSH2 0x2F SWAP2 PUSH2 0xFC JUMP JUMPDEST CALLER DUP1 PUSH2 0x55 JUMPI PUSH1 0x40 MLOAD PUSH4 0x1E4FBDF7 PUSH1 0xE0 SHL DUP2 MSTORE PUSH1 0x0 PUSH1 0x4 DUP3 ADD MSTORE PUSH1 0x24 ADD PUSH1 0x40 MLOAD DUP1 SWAP2 SUB SWAP1 REVERT JUMPDEST PUSH2 0x5E DUP2 PUSH2 0x90 JUMP JUMPDEST POP PUSH1 0x1 DUP1 SLOAD PUSH1 0x1 PUSH1 0x1 PUSH1 0xA0 SHL SUB SWAP4 DUP5 AND PUSH1 0x1 PUSH1 0x1 PUSH1 0xA0 SHL SUB NOT SWAP2 DUP3 AND OR SWAP1 SWAP2 SSTORE PUSH1 0x2 DUP1 SLOAD SWAP3 SWAP1 SWAP4 AND SWAP2 AND OR SWAP1 SSTORE PUSH2 0x12F JUMP JUMPDEST PUSH1 0x0 DUP1 SLOAD PUSH1 0x1 PUSH1 0x1 PUSH1 0xA0 SHL SUB DUP4 DUP2 AND PUSH1 0x1 PUSH1 0x1 PUSH1 0xA0 SHL SUB NOT DUP4 AND DUP2 OR DUP5 SSTORE PUSH1 0x40 MLOAD SWAP2 SWAP1 SWAP3 AND SWAP3 DUP4 SWAP2 PUSH32 0x8BE0079C531659141344CD1FD0A4F28419497F9722A3DAAFE3B4186F6B6457E0 SWAP2 SWAP1 LOG3 POP POP JUMP JUMPDEST DUP1 MLOAD PUSH1 0x1 PUSH1 0x1 PUSH1 0xA0 SHL SUB DUP2 AND DUP2 EQ PUSH2 0xF7 JUMPI PUSH1 0x0 DUP1 REVERT JUMPDEST SWAP2 SWAP1 POP JUMP JUMPDEST PUSH1 0x0 DUP1 PUSH1 0x40 DUP4 DUP6 SUB SLT ISZERO PUSH2 0x10F JUMPI PUSH1 0x0 DUP1 REVERT JUMPDEST PUSH2 0x118 DUP4 PUSH2 0xE0 JUMP JUMPDEST SWAP2 POP PUSH2 0x126 PUSH1 0x20 DUP5 ADD PUSH2 0xE0 JUMP JUMPDEST SWAP1 POP SWAP3 POP SWAP3 SWAP1 POP JUMP JUMPDEST PUSH2 0x145A DUP1 PUSH2 0x13E PUSH1 0x0 CODECOPY PUSH1 0x0 RETURN INVALID PUSH1 0x80 PUSH1 0x40 MSTORE PUSH1 0x4 CALLDATASIZE LT PUSH2 0xE8 JUMPI PUSH1 0x0 CALLDATALOAD PUSH1 0xE0 SHR DUP1 PUSH4 0xBB1E110D GT PUSH2 0x8A JUMPI DUP1 PUSH4 0xCAD0B8DB GT PUSH2 0x59 JUMPI DUP1 PUSH4 0xCAD0B8DB EQ PUSH2 0x269 JUMPI DUP1 PUSH4 0xD3E89483 EQ PUSH2 0x27F JUMPI DUP1 PUSH4 0xE0062179 EQ PUSH2 0x2B5 JUMPI DUP1 PUSH4 0xF2FDE38B EQ PUSH2 0x2D5 JUMPI PUSH1 0x0 DUP1 REVERT JUMPDEST DUP1 PUSH4 0xBB1E110D EQ PUSH2 0x1F6 JUMPI DUP1 PUSH4 0xBEAC7CC4 EQ PUSH2 0x216 JUMPI DUP1 PUSH4 0xC0D7E2B6 EQ PUSH2 0x236 JUMPI DUP1 PUSH4 0xC1260C9A EQ PUSH2 0x256 JUMPI PUSH1 0x0 DUP1 REVERT JUMPDEST DUP1 PUSH4 0x8DA5CB5B GT PUSH2 0xC6 JUMPI DUP1 PUSH4 0x8DA5CB5B EQ PUSH2 0x16F JUMPI DUP1 PUSH4 0xA0021CF1 EQ PUSH2 0x18D JUMPI DUP1 PUSH4 0xA888C2CD EQ PUSH2 0x1A3 JUMPI DUP1 PUSH4 0xAB2ADC00 EQ PUSH2 0x1D6 JUMPI PUSH1 0x0 DUP1 REVERT JUMPDEST DUP1 PUSH4 0x4B3FD05A EQ PUSH2 0xED JUMPI DUP1 PUSH4 0x6BA357E5 EQ PUSH2 0x12A JUMPI DUP1 PUSH4 0x715018A6 EQ PUSH2 0x158 JUMPI JUMPDEST PUSH1 0x0 DUP1 REVERT JUMPDEST CALLVALUE DUP1 ISZERO PUSH2 0xF9 JUMPI PUSH1 0x0 DUP1 REVERT JUMPDEST POP PUSH1 0x1 SLOAD PUSH2 0x10D SWAP1 PUSH1 0x1 PUSH1 0x1 PUSH1 0xA0 SHL SUB AND DUP2 JUMP JUMPDEST PUSH1 0x40 MLOAD PUSH1 0x1 PUSH1 0x1 PUSH1 0xA0 SHL SUB SWAP1 SWAP2 AND DUP2 MSTORE PUSH1 0x20 ADD JUMPDEST PUSH1 0x40 MLOAD DUP1 SWAP2 SUB SWAP1 RETURN JUMPDEST CALLVALUE DUP1 ISZERO PUSH2 0x136 JUMPI PUSH1 0x0 DUP1 REVERT JUMPDEST POP PUSH2 0x14A PUSH2 0x145 CALLDATASIZE PUSH1 0x4 PUSH2 0xEE9 JUMP JUMPDEST PUSH2 0x2F5 JUMP JUMPDEST PUSH1 0x40 MLOAD SWAP1 DUP2 MSTORE PUSH1 0x20 ADD PUSH2 0x121 JUMP JUMPDEST CALLVALUE DUP1 ISZERO PUSH2 0x164 JUMPI PUSH1 0x0 DUP1 REVERT JUMPDEST POP PUSH2 0x16D PUSH2 0x58D JUMP JUMPDEST STOP JUMPDEST CALLVALUE DUP1 ISZERO PUSH2 0x17B JUMPI PUSH1 0x0 DUP1 REVERT JUMPDEST POP PUSH1 0x0 SLOAD PUSH1 0x1 PUSH1 0x1 PUSH1 0xA0 SHL SUB AND PUSH2 0x10D JUMP JUMPDEST CALLVALUE DUP1 ISZERO PUSH2 0x199 JUMPI PUSH1 0x0 DUP1 REVERT JUMPDEST POP PUSH2 0x14A PUSH1 0x7 SLOAD DUP2 JUMP JUMPDEST CALLVALUE DUP1 ISZERO PUSH2 0x1AF JUMPI PUSH1 0x0 DUP1 REVERT JUMPDEST POP PUSH2 0x1C3 PUSH2 0x1BE CALLDATASIZE PUSH1 0x4 PUSH2 0xF91 JUMP JUMPDEST PUSH2 0x5A1 JUMP JUMPDEST PUSH1 0x40 MLOAD PUSH2 0x121 SWAP8 SWAP7 SWAP6 SWAP5 SWAP4 SWAP3 SWAP2 SWAP1 PUSH2 0xFF0 JUMP JUMPDEST CALLVALUE DUP1 ISZERO PUSH2 0x1E2 JUMPI PUSH1 0x0 DUP1 REVERT JUMPDEST POP PUSH1 0x2 SLOAD PUSH2 0x10D SWAP1 PUSH1 0x1 PUSH1 0x1 PUSH1 0xA0 SHL SUB AND DUP2 JUMP JUMPDEST CALLVALUE DUP1 ISZERO PUSH2 0x202 JUMPI PUSH1 0x0 DUP1 REVERT JUMPDEST POP PUSH2 0x14A PUSH2 0x211 CALLDATASIZE PUSH1 0x4 PUSH2 0x106A JUMP JUMPDEST PUSH2 0x700 JUMP JUMPDEST CALLVALUE DUP1 ISZERO PUSH2 0x222 JUMPI PUSH1 0x0 DUP1 REVERT JUMPDEST POP PUSH2 0x16D PUSH2 0x231 CALLDATASIZE PUSH1 0x4 PUSH2 0x1094 JUMP JUMPDEST PUSH2 0x731 JUMP JUMPDEST CALLVALUE DUP1 ISZERO PUSH2 0x242 JUMPI PUSH1 0x0 DUP1 REVERT JUMPDEST POP PUSH2 0x16D PUSH2 0x251 CALLDATASIZE PUSH1 0x4 PUSH2 0xF91 JUMP JUMPDEST PUSH2 0x860 JUMP JUMPDEST PUSH2 0x16D PUSH2 0x264 CALLDATASIZE PUSH1 0x4 PUSH2 0xF91 JUMP JUMPDEST PUSH2 0x9DD JUMP JUMPDEST CALLVALUE DUP1 ISZERO PUSH2 0x275 JUMPI PUSH1 0x0 DUP1 REVERT JUMPDEST POP PUSH2 0x14A PUSH1 0x6 SLOAD DUP2 JUMP JUMPDEST CALLVALUE DUP1 ISZERO PUSH2 0x28B JUMPI PUSH1 0x0 DUP1 REVERT JUMPDEST POP PUSH2 0x29F PUSH2 0x29A CALLDATASIZE PUSH1 0x4 PUSH2 0xF91 JUMP JUMPDEST PUSH2 0xA9F JUMP JUMPDEST PUSH1 0x40 MLOAD PUSH2 0x121 SWAP11 SWAP10 SWAP9 SWAP8 SWAP7 SWAP6 SWAP5 SWAP4 SWAP3 SWAP2 SWAP1 PUSH2 0x1106 JUMP JUMPDEST CALLVALUE DUP1 ISZERO PUSH2 0x2C1 JUMPI PUSH1 0x0 DUP1 REVERT JUMPDEST POP PUSH2 0x14A PUSH2 0x2D0 CALLDATASIZE PUSH1 0x4 PUSH2 0x118A JUMP JUMPDEST PUSH2 0xC96 JUMP JUMPDEST CALLVALUE DUP1 ISZERO PUSH2 0x2E1 JUMPI PUSH1 0x0 DUP1 REVERT JUMPDEST POP PUSH2 0x16D PUSH2 0x2F0 CALLDATASIZE PUSH1 0x4 PUSH2 0x11C4 JUMP JUMPDEST PUSH2 0xD7C JUMP JUMPDEST PUSH1 0x0 DUP1 PUSH2 0x303 DUP7 DUP6 DUP6 PUSH2 0xC96 JUMP JUMPDEST PUSH1 0x1 SLOAD PUSH1 0x2 SLOAD PUSH1 0x40 MLOAD PUSH4 0x23B872DD PUSH1 0xE0 SHL DUP2 MSTORE CALLER PUSH1 0x4 DUP3 ADD MSTORE PUSH1 0x1 PUSH1 0x1 PUSH1 0xA0 SHL SUB SWAP2 DUP3 AND PUSH1 0x24 DUP3 ADD MSTORE PUSH1 0x44 DUP2 ADD DUP5 SWAP1 MSTORE SWAP3 SWAP4 POP AND SWAP1 PUSH4 0x23B872DD SWAP1 PUSH1 0x64 ADD PUSH1 0x20 PUSH1 0x40 MLOAD DUP1 DUP4 SUB DUP2 PUSH1 0x0 DUP8 GAS CALL ISZERO DUP1 ISZERO PUSH2 0x360 JUMPI RETURNDATASIZE PUSH1 0x0 DUP1 RETURNDATACOPY RETURNDATASIZE PUSH1 0x0 REVERT JUMPDEST POP POP POP POP PUSH1 0x40 MLOAD RETURNDATASIZE PUSH1 0x1F NOT PUSH1 0x1F DUP3 ADD AND DUP3 ADD DUP1 PUSH1 0x40 MSTORE POP DUP2 ADD SWAP1 PUSH2 0x384 SWAP2 SWAP1 PUSH2 0x11E6 JUMP JUMPDEST PUSH2 0x3D5 JUMPI PUSH1 0x40 MLOAD PUSH3 0x461BCD PUSH1 0xE5 SHL DUP2 MSTORE PUSH1 0x20 PUSH1 0x4 DUP3 ADD MSTORE PUSH1 0x16 PUSH1 0x24 DUP3 ADD MSTORE PUSH32 0x5072656D69756D207061796D656E74206661696C656400000000000000000000 PUSH1 0x44 DUP3 ADD MSTORE PUSH1 0x64 ADD JUMPDEST PUSH1 0x40 MLOAD DUP1 SWAP2 SUB SWAP1 REVERT JUMPDEST PUSH1 0x6 DUP1 SLOAD PUSH1 0x0 SWAP2 DUP3 PUSH2 0x3E6 DUP4 PUSH2 0x121E JUMP JUMPDEST SWAP2 SWAP1 POP SSTORE SWAP1 POP PUSH1 0x40 MLOAD DUP1 PUSH2 0x140 ADD PUSH1 0x40 MSTORE DUP1 DUP3 DUP2 MSTORE PUSH1 0x20 ADD CALLER PUSH1 0x1 PUSH1 0x1 PUSH1 0xA0 SHL SUB AND DUP2 MSTORE PUSH1 0x20 ADD DUP10 DUP2 MSTORE PUSH1 0x20 ADD DUP8 DUP2 MSTORE PUSH1 0x20 ADD DUP9 DUP2 MSTORE PUSH1 0x20 ADD DUP4 DUP2 MSTORE PUSH1 0x20 ADD DUP7 DUP2 MSTORE PUSH1 0x20 ADD PUSH1 0x1 ISZERO ISZERO DUP2 MSTORE PUSH1 0x20 ADD DUP6 DUP2 MSTORE PUSH1 0x20 ADD TIMESTAMP PUSH3 0xF7DA00 PUSH2 0x449 SWAP2 SWAP1 PUSH2 0x1237 JUMP JUMPDEST SWAP1 MSTORE PUSH1 0x0 DUP3 DUP2 MSTORE PUSH1 0x3 PUSH1 0x20 SWAP1 DUP2 MSTORE PUSH1 0x40 SWAP2 DUP3 SWAP1 KECCAK256 DUP4 MLOAD DUP2 SSTORE SWAP1 DUP4 ADD MLOAD PUSH1 0x1 DUP3 ADD DUP1 SLOAD PUSH20 0xFFFFFFFFFFFFFFFFFFFFFFFFFFFFFFFFFFFFFFFF NOT AND PUSH1 0x1 PUSH1 0x1 PUSH1 0xA0 SHL SUB SWAP1 SWAP3 AND SWAP2 SWAP1 SWAP2 OR SWAP1 SSTORE SWAP1 DUP3 ADD MLOAD PUSH1 0x2 DUP3 ADD SWAP1 PUSH2 0x4A6 SWAP1 DUP3 PUSH2 0x12D9 JUMP JUMPDEST POP PUSH1 0x60 DUP3 ADD MLOAD PUSH1 0x3 DUP3 ADD SWAP1 PUSH2 0x4BB SWAP1 DUP3 PUSH2 0x12D9 JUMP JUMPDEST POP PUSH1 0x80 DUP3 ADD MLOAD PUSH1 0x4 DUP3 ADD SSTORE PUSH1 0xA0 DUP3 ADD MLOAD PUSH1 0x5 DUP3 ADD SSTORE PUSH1 0xC0 DUP3 ADD MLOAD PUSH1 0x6 DUP3 ADD SSTORE PUSH1 0xE0 DUP3 ADD MLOAD PUSH1 0x7 DUP3 ADD DUP1 SLOAD PUSH1 0xFF NOT AND SWAP2 ISZERO ISZERO SWAP2 SWAP1 SWAP2 OR SWAP1 SSTORE PUSH2 0x100 DUP3 ADD MLOAD PUSH1 0x8 DUP3 ADD SWAP1 PUSH2 0x507 SWAP1 DUP3 PUSH2 0x12D9 JUMP JUMPDEST POP PUSH2 0x120 SWAP2 SWAP1 SWAP2 ADD MLOAD PUSH1 0x9 SWAP1 SWAP2 ADD SSTORE CALLER PUSH1 0x0 DUP2 DUP2 MSTORE PUSH1 0x4 PUSH1 0x20 SWAP1 DUP2 MSTORE PUSH1 0x40 DUP1 DUP4 KECCAK256 DUP1 SLOAD PUSH1 0x1 DUP2 ADD DUP3 SSTORE SWAP1 DUP5 MSTORE SWAP3 DUP3 SWAP1 KECCAK256 SWAP1 SWAP3 ADD DUP5 SWAP1 SSTORE DUP2 MLOAD SWAP3 DUP4 MSTORE DUP3 ADD DUP10 SWAP1 MSTORE DUP2 ADD DUP4 SWAP1 MSTORE PUSH1 0x60 DUP2 ADD DUP7 SWAP1 MSTORE DUP2 SWAP1 PUSH32 0xDD4DCB2EF94F82921D5C77E9CF4E5C8DD423FB1DE1310A243115B95316F25777 SWAP1 PUSH1 0x80 ADD PUSH1 0x40 MLOAD DUP1 SWAP2 SUB SWAP1 LOG2 SWAP8 SWAP7 POP POP POP POP POP POP POP JUMP JUMPDEST PUSH2 0x595 PUSH2 0xDBA JUMP JUMPDEST PUSH2 0x59F PUSH1 0x0 PUSH2 0xDE7 JUMP JUMPDEST JUMP JUMPDEST PUSH1 0x5 PUSH1 0x20 MSTORE PUSH1 0x0 SWAP1 DUP2 MSTORE PUSH1 0x40 SWAP1 KECCAK256 DUP1 SLOAD PUSH1 0x1 DUP3 ADD SLOAD PUSH1 0x2 DUP4 ADD SLOAD PUSH1 0x3 DUP5 ADD DUP1 SLOAD SWAP4 SWAP5 SWAP3 SWAP4 PUSH1 0xFF DUP1 DUP5 AND SWAP5 PUSH2 0x100 DUP6 DIV SWAP1 SWAP2 AND SWAP4 PUSH3 0x10000 SWAP1 DIV PUSH1 0x1 PUSH1 0x1 PUSH1 0xA0 SHL SUB AND SWAP3 SWAP1 SWAP2 PUSH2 0x5EF SWAP1 PUSH2 0x1250 JUMP JUMPDEST DUP1 PUSH1 0x1F ADD PUSH1 0x20 DUP1 SWAP2 DIV MUL PUSH1 0x20 ADD PUSH1 0x40 MLOAD SWAP1 DUP2 ADD PUSH1 0x40 MSTORE DUP1 SWAP3 SWAP2 SWAP1 DUP2 DUP2 MSTORE PUSH1 0x20 ADD DUP3 DUP1 SLOAD PUSH2 0x61B SWAP1 PUSH2 0x1250 JUMP JUMPDEST DUP1 ISZERO PUSH2 0x668 JUMPI DUP1 PUSH1 0x1F LT PUSH2 0x63D JUMPI PUSH2 0x100 DUP1 DUP4 SLOAD DIV MUL DUP4 MSTORE SWAP2 PUSH1 0x20 ADD SWAP2 PUSH2 0x668 JUMP JUMPDEST DUP3 ADD SWAP2 SWAP1 PUSH1 0x0 MSTORE PUSH1 0x20 PUSH1 0x0 KECCAK256 SWAP1 JUMPDEST DUP2 SLOAD DUP2 MSTORE SWAP1 PUSH1 0x1 ADD SWAP1 PUSH1 0x20 ADD DUP1 DUP4 GT PUSH2 0x64B JUMPI DUP3 SWAP1 SUB PUSH1 0x1F AND DUP3 ADD SWAP2 JUMPDEST POP POP POP POP POP SWAP1 DUP1 PUSH1 0x4 ADD DUP1 SLOAD PUSH2 0x67D SWAP1 PUSH2 0x1250 JUMP JUMPDEST DUP1 PUSH1 0x1F ADD PUSH1 0x20 DUP1 SWAP2 DIV MUL PUSH1 0x20 ADD PUSH1 0x40 MLOAD SWAP1 DUP2 ADD PUSH1 0x40 MSTORE DUP1 SWAP3 SWAP2 SWAP1 DUP2 DUP2 MSTORE PUSH1 0x20 ADD DUP3 DUP1 SLOAD PUSH2 0x6A9 SWAP1 PUSH2 0x1250 JUMP JUMPDEST DUP1 ISZERO PUSH2 0x6F6 JUMPI DUP1 PUSH1 0x1F LT PUSH2 0x6CB JUMPI PUSH2 0x100 DUP1 DUP4 SLOAD DIV MUL DUP4 MSTORE SWAP2 PUSH1 0x20 ADD SWAP2 PUSH2 0x6F6 JUMP JUMPDEST DUP3 ADD SWAP2 SWAP1 PUSH1 0x0 MSTORE PUSH1 0x20 PUSH1 0x0 KECCAK256 SWAP1 JUMPDEST DUP2 SLOAD DUP2 MSTORE SWAP1 PUSH1 0x1 ADD SWAP1 PUSH1 0x20 ADD DUP1 DUP4 GT PUSH2 0x6D9 JUMPI DUP3 SWAP1 SUB PUSH1 0x1F AND DUP3 ADD SWAP2 JUMPDEST POP POP POP POP POP SWAP1 POP DUP8 JUMP JUMPDEST PUSH1 0x4 PUSH1 0x20 MSTORE DUP2 PUSH1 0x0 MSTORE PUSH1 0x40 PUSH1 0x0 KECCAK256 DUP2 DUP2 SLOAD DUP2 LT PUSH2 0x71C JUMPI PUSH1 0x0 DUP1 REVERT JUMPDEST SWAP1 PUSH1 0x0 MSTORE PUSH1 0x20 PUSH1 0x0 KECCAK256 ADD PUSH1 0x0 SWAP2 POP SWAP2 POP POP SLOAD DUP2 JUMP JUMPDEST PUSH1 0x40 DUP1 MLOAD PUSH1 0xE0 DUP2 ADD DUP3 MSTORE PUSH1 0x7 SLOAD DUP1 DUP3 MSTORE PUSH1 0x20 DUP1 DUP4 ADD DUP8 DUP2 MSTORE PUSH1 0x0 DUP5 DUP7 ADD DUP2 DUP2 MSTORE PUSH1 0x60 DUP7 ADD DUP3 DUP2 MSTORE CALLER PUSH1 0x80 DUP9 ADD SWAP1 DUP2 MSTORE PUSH1 0xA0 DUP9 ADD DUP12 DUP2 MSTORE PUSH1 0xC0 DUP10 ADD DUP12 SWAP1 MSTORE SWAP7 DUP5 MSTORE PUSH1 0x5 SWAP1 SWAP6 MSTORE SWAP7 SWAP1 SWAP2 KECCAK256 DUP6 MLOAD DUP2 SSTORE SWAP2 MLOAD PUSH1 0x1 DUP4 ADD SSTORE MLOAD PUSH1 0x2 DUP3 ADD DUP1 SLOAD SWAP7 MLOAD SWAP4 MLOAD PUSH1 0x1 PUSH1 0x1 PUSH1 0xA0 SHL SUB AND PUSH3 0x10000 MUL PUSH22 0xFFFFFFFFFFFFFFFFFFFFFFFFFFFFFFFFFFFFFFFF0000 NOT SWAP5 ISZERO ISZERO PUSH2 0x100 MUL PUSH2 0xFF00 NOT SWAP4 ISZERO ISZERO SWAP4 SWAP1 SWAP4 AND PUSH2 0xFFFF NOT SWAP1 SWAP9 AND SWAP8 SWAP1 SWAP8 OR SWAP2 SWAP1 SWAP2 OR SWAP3 SWAP1 SWAP3 AND SWAP5 SWAP1 SWAP5 OR SWAP1 SSTORE MLOAD SWAP1 SWAP2 SWAP1 PUSH1 0x3 DUP3 ADD SWAP1 PUSH2 0x7F4 SWAP1 DUP3 PUSH2 0x12D9 JUMP JUMPDEST POP PUSH1 0xC0 DUP3 ADD MLOAD PUSH1 0x4 DUP3 ADD SWAP1 PUSH2 0x809 SWAP1 DUP3 PUSH2 0x12D9 JUMP JUMPDEST POP POP PUSH1 0x7 DUP1 SLOAD SWAP2 POP PUSH1 0x0 PUSH2 0x81C DUP4 PUSH2 0x121E JUMP JUMPDEST SWAP2 SWAP1 POP SSTORE POP DUP3 PUSH32 0x49DF2FA74FCB74A57B6ADE05A5B2B557C008AE98B667F70273671790D82CA1A2 CALLER DUP4 PUSH1 0x40 MLOAD PUSH2 0x853 SWAP3 SWAP2 SWAP1 PUSH2 0x1398 JUMP JUMPDEST PUSH1 0x40 MLOAD DUP1 SWAP2 SUB SWAP1 LOG2 POP POP POP JUMP JUMPDEST PUSH2 0x868 PUSH2 0xDBA JUMP JUMPDEST PUSH1 0x0 DUP2 DUP2 MSTORE PUSH1 0x5 PUSH1 0x20 SWAP1 DUP2 MSTORE PUSH1 0x40 DUP1 DUP4 KECCAK256 PUSH1 0x1 DUP2 ADD SLOAD DUP1 DUP6 MSTORE PUSH1 0x3 SWAP1 SWAP4 MSTORE SWAP3 KECCAK256 PUSH1 0x2 DUP1 SLOAD SWAP1 DUP5 ADD SLOAD PUSH1 0x4 DUP4 DUP2 ADD SLOAD PUSH1 0x40 MLOAD PUSH4 0x50802E3F PUSH1 0xE0 SHL DUP2 MSTORE PUSH3 0x10000 SWAP1 SWAP4 DIV PUSH1 0x1 PUSH1 0x1 PUSH1 0xA0 SHL SUB SWAP1 DUP2 AND SWAP3 DUP5 ADD SWAP3 SWAP1 SWAP3 MSTORE PUSH1 0x24 DUP4 ADD MSTORE SWAP1 SWAP2 AND SWAP1 PUSH4 0x50802E3F SWAP1 PUSH1 0x44 ADD PUSH1 0x0 PUSH1 0x40 MLOAD DUP1 DUP4 SUB DUP2 PUSH1 0x0 DUP8 DUP1 EXTCODESIZE ISZERO DUP1 ISZERO PUSH2 0x8E8 JUMPI PUSH1 0x0 DUP1 REVERT JUMPDEST POP GAS CALL SWAP3 POP POP POP DUP1 ISZERO PUSH2 0x8F9 JUMPI POP PUSH1 0x1 JUMPDEST PUSH2 0x945 JUMPI PUSH1 0x40 MLOAD PUSH3 0x461BCD PUSH1 0xE5 SHL DUP2 MSTORE PUSH1 0x20 PUSH1 0x4 DUP3 ADD MSTORE PUSH1 0x10 PUSH1 0x24 DUP3 ADD MSTORE PUSH32 0x436C61696D20506179204661696C656400000000000000000000000000000000 PUSH1 0x44 DUP3 ADD MSTORE PUSH1 0x64 ADD PUSH2 0x3CC JUMP JUMPDEST PUSH1 0x2 DUP4 ADD DUP1 SLOAD PUSH2 0xFFFF NOT AND PUSH2 0x101 OR SWAP1 SSTORE CALLER PUSH1 0x0 SWAP1 DUP2 MSTORE PUSH1 0x4 PUSH1 0x20 MSTORE PUSH1 0x40 SWAP1 KECCAK256 DUP1 SLOAD DUP4 SWAP1 DUP2 LT PUSH2 0x977 JUMPI PUSH2 0x977 PUSH2 0x13C2 JUMP JUMPDEST SWAP1 PUSH1 0x0 MSTORE PUSH1 0x20 PUSH1 0x0 KECCAK256 ADD PUSH1 0x0 SWAP1 SSTORE DUP2 PUSH32 0x5F2564C1AD353E58B81E7BD6CD0E6B1A3F52F46AB4C59C2CADFBAACC4B2E5716 CALLER DUP4 PUSH1 0x4 ADD SLOAD PUSH1 0x40 MLOAD PUSH2 0x9CF SWAP3 SWAP2 SWAP1 PUSH1 0x1 PUSH1 0x1 PUSH1 0xA0 SHL SUB SWAP3 SWAP1 SWAP3 AND DUP3 MSTORE PUSH1 0x20 DUP3 ADD MSTORE PUSH1 0x40 ADD SWAP1 JUMP JUMPDEST PUSH1 0x40 MLOAD DUP1 SWAP2 SUB SWAP1 LOG2 POP POP POP POP JUMP JUMPDEST PUSH1 0x2 SLOAD PUSH1 0x40 MLOAD PUSH4 0xD5A867B7 PUSH1 0xE0 SHL DUP2 MSTORE CALLER PUSH1 0x4 DUP3 ADD MSTORE CALLVALUE PUSH1 0x24 DUP3 ADD DUP2 SWAP1 MSTORE PUSH1 0x1 PUSH1 0x1 PUSH1 0xA0 SHL SUB SWAP1 SWAP3 AND SWAP2 PUSH4 0xD5A867B7 SWAP2 PUSH1 0x44 ADD PUSH1 0x0 PUSH1 0x40 MLOAD DUP1 DUP4 SUB DUP2 DUP6 DUP9 DUP1 EXTCODESIZE ISZERO DUP1 ISZERO PUSH2 0xA29 JUMPI PUSH1 0x0 DUP1 REVERT JUMPDEST POP GAS CALL ISZERO DUP1 ISZERO PUSH2 0xA3D JUMPI RETURNDATASIZE PUSH1 0x0 DUP1 RETURNDATACOPY RETURNDATASIZE PUSH1 0x0 REVERT JUMPDEST POP POP CALLER PUSH1 0x0 DUP2 DUP2 MSTORE PUSH1 0x4 PUSH1 0x20 SWAP1 DUP2 MSTORE PUSH1 0x40 DUP1 DUP4 KECCAK256 DUP1 SLOAD PUSH1 0x1 DUP2 ADD DUP3 SSTORE SWAP1 DUP5 MSTORE SWAP3 DUP3 SWAP1 KECCAK256 SWAP1 SWAP3 ADD DUP8 SWAP1 SSTORE SWAP1 MLOAD SWAP2 DUP3 MSTORE DUP6 SWAP5 POP PUSH32 0x60D59B58B916D11D0AC52C397E342E25AE6DC5DA412115D469D304BF4DD86404 SWAP4 POP ADD SWAP1 POP PUSH1 0x40 MLOAD DUP1 SWAP2 SUB SWAP1 LOG2 POP JUMP JUMPDEST PUSH1 0x3 PUSH1 0x20 MSTORE PUSH1 0x0 SWAP1 DUP2 MSTORE PUSH1 0x40 SWAP1 KECCAK256 DUP1 SLOAD PUSH1 0x1 DUP3 ADD SLOAD PUSH1 0x2 DUP4 ADD DUP1 SLOAD SWAP3 SWAP4 PUSH1 0x1 PUSH1 0x1 PUSH1 0xA0 SHL SUB SWAP1 SWAP3 AND SWAP3 PUSH2 0xAD1 SWAP1 PUSH2 0x1250 JUMP JUMPDEST DUP1 PUSH1 0x1F ADD PUSH1 0x20 DUP1 SWAP2 DIV MUL PUSH1 0x20 ADD PUSH1 0x40 MLOAD SWAP1 DUP2 ADD PUSH1 0x40 MSTORE DUP1 SWAP3 SWAP2 SWAP1 DUP2 DUP2 MSTORE PUSH1 0x20 ADD DUP3 DUP1 SLOAD PUSH2 0xAFD SWAP1 PUSH2 0x1250 JUMP JUMPDEST DUP1 ISZERO PUSH2 0xB4A JUMPI DUP1 PUSH1 0x1F LT PUSH2 0xB1F JUMPI PUSH2 0x100 DUP1 DUP4 SLOAD DIV MUL DUP4 MSTORE SWAP2 PUSH1 0x20 ADD SWAP2 PUSH2 0xB4A JUMP JUMPDEST DUP3 ADD SWAP2 SWAP1 PUSH1 0x0 MSTORE PUSH1 0x20 PUSH1 0x0 KECCAK256 SWAP1 JUMPDEST DUP2 SLOAD DUP2 MSTORE SWAP1 PUSH1 0x1 ADD SWAP1 PUSH1 0x20 ADD DUP1 DUP4 GT PUSH2 0xB2D JUMPI DUP3 SWAP1 SUB PUSH1 0x1F AND DUP3 ADD SWAP2 JUMPDEST POP POP POP POP POP SWAP1 DUP1 PUSH1 0x3 ADD DUP1 SLOAD PUSH2 0xB5F SWAP1 PUSH2 0x1250 JUMP JUMPDEST DUP1 PUSH1 0x1F ADD PUSH1 0x20 DUP1 SWAP2 DIV MUL PUSH1 0x20 ADD PUSH1 0x40 MLOAD SWAP1 DUP2 ADD PUSH1 0x40 MSTORE DUP1 SWAP3 SWAP2 SWAP1 DUP2 DUP2 MSTORE PUSH1 0x20 ADD DUP3 DUP1 SLOAD PUSH2 0xB8B SWAP1 PUSH2 0x1250 JUMP JUMPDEST DUP1 ISZERO PUSH2 0xBD8 JUMPI DUP1 PUSH1 0x1F LT PUSH2 0xBAD JUMPI PUSH2 0x100 DUP1 DUP4 SLOAD DIV MUL DUP4 MSTORE SWAP2 PUSH1 0x20 ADD SWAP2 PUSH2 0xBD8 JUMP JUMPDEST DUP3 ADD SWAP2 SWAP1 PUSH1 0x0 MSTORE PUSH1 0x20 PUSH1 0x0 KECCAK256 SWAP1 JUMPDEST DUP2 SLOAD DUP2 MSTORE SWAP1 PUSH1 0x1 ADD SWAP1 PUSH1 0x20 ADD DUP1 DUP4 GT PUSH2 0xBBB JUMPI DUP3 SWAP1 SUB PUSH1 0x1F AND DUP3 ADD SWAP2 JUMPDEST POP POP POP PUSH1 0x4 DUP5 ADD SLOAD PUSH1 0x5 DUP6 ADD SLOAD PUSH1 0x6 DUP7 ADD SLOAD PUSH1 0x7 DUP8 ADD SLOAD PUSH1 0x8 DUP9 ADD DUP1 SLOAD SWAP8 SWAP9 SWAP5 SWAP8 SWAP4 SWAP7 POP SWAP2 SWAP5 POP PUSH1 0xFF AND SWAP3 SWAP2 PUSH2 0xC0D SWAP1 PUSH2 0x1250 JUMP JUMPDEST DUP1 PUSH1 0x1F ADD PUSH1 0x20 DUP1 SWAP2 DIV MUL PUSH1 0x20 ADD PUSH1 0x40 MLOAD SWAP1 DUP2 ADD PUSH1 0x40 MSTORE DUP1 SWAP3 SWAP2 SWAP1 DUP2 DUP2 MSTORE PUSH1 0x20 ADD DUP3 DUP1 SLOAD PUSH2 0xC39 SWAP1 PUSH2 0x1250 JUMP JUMPDEST DUP1 ISZERO PUSH2 0xC86 JUMPI DUP1 PUSH1 0x1F LT PUSH2 0xC5B JUMPI PUSH2 0x100 DUP1 DUP4 SLOAD DIV MUL DUP4 MSTORE SWAP2 PUSH1 0x20 ADD SWAP2 PUSH2 0xC86 JUMP JUMPDEST DUP3 ADD SWAP2 SWAP1 PUSH1 0x0 MSTORE PUSH1 0x20 PUSH1 0x0 KECCAK256 SWAP1 JUMPDEST DUP2 SLOAD DUP2 MSTORE SWAP1 PUSH1 0x1 ADD SWAP1 PUSH1 0x20 ADD DUP1 DUP4 GT PUSH2 0xC69 JUMPI DUP3 SWAP1 SUB PUSH1 0x1F AND DUP3 ADD SWAP2 JUMPDEST POP POP POP POP POP SWAP1 DUP1 PUSH1 0x9 ADD SLOAD SWAP1 POP DUP11 JUMP JUMPDEST PUSH1 0x40 DUP1 MLOAD DUP1 DUP3 ADD SWAP1 SWAP2 MSTORE PUSH1 0xD DUP2 MSTORE PUSH13 0x65786368616E67655F6861636B PUSH1 0x98 SHL PUSH1 0x20 SWAP2 DUP3 ADD MSTORE DUP2 MLOAD SWAP1 DUP3 ADD KECCAK256 PUSH1 0x0 SWAP1 PUSH1 0x1 SWAP1 PUSH32 0x9CE6D996E301F1A8DBE98E70D7EE122705F835685B12126AC0A10719928D58A6 ADD PUSH2 0xCF5 JUMPI POP PUSH1 0x2 PUSH2 0xD46 JUMP JUMPDEST PUSH1 0x40 DUP1 MLOAD DUP1 DUP3 ADD SWAP1 SWAP2 MSTORE PUSH1 0x9 DUP2 MSTORE PUSH9 0x646566695F7269736B PUSH1 0xB8 SHL PUSH1 0x20 SWAP2 DUP3 ADD MSTORE DUP4 MLOAD SWAP1 DUP5 ADD KECCAK256 PUSH32 0x11D5EA21445D5BA4825480A12ABE0B412AB4900A5C16F8C4AE8C5798BFB514A0 ADD PUSH2 0xD46 JUMPI POP PUSH1 0x3 JUMPDEST PUSH4 0xBBF81E00 PUSH2 0xD55 TIMESTAMP DUP7 PUSH2 0x13D8 JUMP JUMPDEST PUSH2 0xD5F DUP4 DUP9 PUSH2 0x13EB JUMP JUMPDEST PUSH2 0xD69 SWAP2 SWAP1 PUSH2 0x13EB JUMP JUMPDEST PUSH2 0xD73 SWAP2 SWAP1 PUSH2 0x1402 JUMP JUMPDEST SWAP6 SWAP5 POP POP POP POP POP JUMP JUMPDEST PUSH2 0xD84 PUSH2 0xDBA JUMP JUMPDEST PUSH1 0x1 PUSH1 0x1 PUSH1 0xA0 SHL SUB DUP2 AND PUSH2 0xDAE JUMPI PUSH1 0x40 MLOAD PUSH4 0x1E4FBDF7 PUSH1 0xE0 SHL DUP2 MSTORE PUSH1 0x0 PUSH1 0x4 DUP3 ADD MSTORE PUSH1 0x24 ADD PUSH2 0x3CC JUMP JUMPDEST PUSH2 0xDB7 DUP2 PUSH2 0xDE7 JUMP JUMPDEST POP JUMP JUMPDEST PUSH1 0x0 SLOAD PUSH1 0x1 PUSH1 0x1 PUSH1 0xA0 SHL SUB AND CALLER EQ PUSH2 0x59F JUMPI PUSH1 0x40 MLOAD PUSH4 0x118CDAA7 PUSH1 0xE0 SHL DUP2 MSTORE CALLER PUSH1 0x4 DUP3 ADD MSTORE PUSH1 0x24 ADD PUSH2 0x3CC JUMP JUMPDEST PUSH1 0x0 DUP1 SLOAD PUSH1 0x1 PUSH1 0x1 PUSH1 0xA0 SHL SUB DUP4 DUP2 AND PUSH20 0xFFFFFFFFFFFFFFFFFFFFFFFFFFFFFFFFFFFFFFFF NOT DUP4 AND DUP2 OR DUP5 SSTORE PUSH1 0x40 MLOAD SWAP2 SWAP1 SWAP3 AND SWAP3 DUP4 SWAP2 PUSH32 0x8BE0079C531659141344CD1FD0A4F28419497F9722A3DAAFE3B4186F6B6457E0 SWAP2 SWAP1 LOG3 POP POP JUMP JUMPDEST PUSH4 0x4E487B71 PUSH1 0xE0 SHL PUSH1 0x0 MSTORE PUSH1 0x41 PUSH1 0x4 MSTORE PUSH1 0x24 PUSH1 0x0 REVERT JUMPDEST PUSH1 0x0 DUP3 PUSH1 0x1F DUP4 ADD SLT PUSH2 0xE6B JUMPI PUSH1 0x0 DUP1 REVERT JUMPDEST DUP2 CALLDATALOAD PUSH8 0xFFFFFFFFFFFFFFFF DUP2 GT ISZERO PUSH2 0xE85 JUMPI PUSH2 0xE85 PUSH2 0xE44 JUMP JUMPDEST PUSH1 0x40 MLOAD PUSH1 0x1F DUP3 ADD PUSH1 0x1F NOT SWAP1 DUP2 AND PUSH1 0x3F ADD AND DUP2 ADD PUSH8 0xFFFFFFFFFFFFFFFF DUP2 GT DUP3 DUP3 LT OR ISZERO PUSH2 0xEB4 JUMPI PUSH2 0xEB4 PUSH2 0xE44 JUMP JUMPDEST PUSH1 0x40 MSTORE DUP2 DUP2 MSTORE DUP4 DUP3 ADD PUSH1 0x20 ADD DUP6 LT ISZERO PUSH2 0xECC JUMPI PUSH1 0x0 DUP1 REVERT JUMPDEST DUP2 PUSH1 0x20 DUP6 ADD PUSH1 0x20 DUP4 ADD CALLDATACOPY PUSH1 0x0 SWAP2 DUP2 ADD PUSH1 0x20 ADD SWAP2 SWAP1 SWAP2 MSTORE SWAP4 SWAP3 POP POP POP JUMP JUMPDEST PUSH1 0x0 DUP1 PUSH1 0x0 DUP1 PUSH1 0x0 PUSH1 0xA0 DUP7 DUP9 SUB SLT ISZERO PUSH2 0xF01 JUMPI PUSH1 0x0 DUP1 REVERT JUMPDEST DUP6 CALLDATALOAD PUSH8 0xFFFFFFFFFFFFFFFF DUP2 GT ISZERO PUSH2 0xF18 JUMPI PUSH1 0x0 DUP1 REVERT JUMPDEST PUSH2 0xF24 DUP9 DUP3 DUP10 ADD PUSH2 0xE5A JUMP JUMPDEST SWAP6 POP POP PUSH1 0x20 DUP7 ADD CALLDATALOAD SWAP4 POP PUSH1 0x40 DUP7 ADD CALLDATALOAD PUSH8 0xFFFFFFFFFFFFFFFF DUP2 GT ISZERO PUSH2 0xF48 JUMPI PUSH1 0x0 DUP1 REVERT JUMPDEST PUSH2 0xF54 DUP9 DUP3 DUP10 ADD PUSH2 0xE5A JUMP JUMPDEST SWAP4 POP POP PUSH1 0x60 DUP7 ADD CALLDATALOAD SWAP2 POP PUSH1 0x80 DUP7 ADD CALLDATALOAD PUSH8 0xFFFFFFFFFFFFFFFF DUP2 GT ISZERO PUSH2 0xF78 JUMPI PUSH1 0x0 DUP1 REVERT JUMPDEST PUSH2 0xF84 DUP9 DUP3 DUP10 ADD PUSH2 0xE5A JUMP JUMPDEST SWAP2 POP POP SWAP3 SWAP6 POP SWAP3 SWAP6 SWAP1 SWAP4 POP JUMP JUMPDEST PUSH1 0x0 PUSH1 0x20 DUP3 DUP5 SUB SLT ISZERO PUSH2 0xFA3 JUMPI PUSH1 0x0 DUP1 REVERT JUMPDEST POP CALLDATALOAD SWAP2 SWAP1 POP JUMP JUMPDEST PUSH1 0x0 DUP2 MLOAD DUP1 DUP5 MSTORE PUSH1 0x0 JUMPDEST DUP2 DUP2 LT ISZERO PUSH2 0xFD0 JUMPI PUSH1 0x20 DUP2 DUP6 ADD DUP2 ADD MLOAD DUP7 DUP4 ADD DUP3 ADD MSTORE ADD PUSH2 0xFB4 JUMP JUMPDEST POP PUSH1 0x0 PUSH1 0x20 DUP3 DUP7 ADD ADD MSTORE PUSH1 0x20 PUSH1 0x1F NOT PUSH1 0x1F DUP4 ADD AND DUP6 ADD ADD SWAP2 POP POP SWAP3 SWAP2 POP POP JUMP JUMPDEST DUP8 DUP2 MSTORE DUP7 PUSH1 0x20 DUP3 ADD MSTORE DUP6 ISZERO ISZERO PUSH1 0x40 DUP3 ADD MSTORE DUP5 ISZERO ISZERO PUSH1 0x60 DUP3 ADD MSTORE PUSH1 0x1 PUSH1 0x1 PUSH1 0xA0 SHL SUB DUP5 AND PUSH1 0x80 DUP3 ADD MSTORE PUSH1 0xE0 PUSH1 0xA0 DUP3 ADD MSTORE PUSH1 0x0 PUSH2 0x102E PUSH1 0xE0 DUP4 ADD DUP6 PUSH2 0xFAA JUMP JUMPDEST DUP3 DUP2 SUB PUSH1 0xC0 DUP5 ADD MSTORE PUSH2 0x1040 DUP2 DUP6 PUSH2 0xFAA JUMP JUMPDEST SWAP11 SWAP10 POP POP POP POP POP POP POP POP POP POP JUMP JUMPDEST DUP1 CALLDATALOAD PUSH1 0x1 PUSH1 0x1 PUSH1 0xA0 SHL SUB DUP2 AND DUP2 EQ PUSH2 0x1065 JUMPI PUSH1 0x0 DUP1 REVERT JUMPDEST SWAP2 SWAP1 POP JUMP JUMPDEST PUSH1 0x0 DUP1 PUSH1 0x40 DUP4 DUP6 SUB SLT ISZERO PUSH2 0x107D JUMPI PUSH1 0x0 DUP1 REVERT JUMPDEST PUSH2 0x1086 DUP4 PUSH2 0x104E JUMP JUMPDEST SWAP5 PUSH1 0x20 SWAP4 SWAP1 SWAP4 ADD CALLDATALOAD SWAP4 POP POP POP JUMP JUMPDEST PUSH1 0x0 DUP1 PUSH1 0x0 PUSH1 0x60 DUP5 DUP7 SUB SLT ISZERO PUSH2 0x10A9 JUMPI PUSH1 0x0 DUP1 REVERT JUMPDEST DUP4 CALLDATALOAD SWAP3 POP PUSH1 0x20 DUP5 ADD CALLDATALOAD PUSH8 0xFFFFFFFFFFFFFFFF DUP2 GT ISZERO PUSH2 0x10C7 JUMPI PUSH1 0x0 DUP1 REVERT JUMPDEST PUSH2 0x10D3 DUP7 DUP3 DUP8 ADD PUSH2 0xE5A JUMP JUMPDEST SWAP3 POP POP PUSH1 0x40 DUP5 ADD CALLDATALOAD PUSH8 0xFFFFFFFFFFFFFFFF DUP2 GT ISZERO PUSH2 0x10F0 JUMPI PUSH1 0x0 DUP1 REVERT JUMPDEST PUSH2 0x10FC DUP7 DUP3 DUP8 ADD PUSH2 0xE5A JUMP JUMPDEST SWAP2 POP POP SWAP3 POP SWAP3 POP SWAP3 JUMP JUMPDEST DUP11 DUP2 MSTORE PUSH1 0x1 PUSH1 0x1 PUSH1 0xA0 SHL SUB DUP11 AND PUSH1 0x20 DUP3 ADD MSTORE PUSH2 0x140 PUSH1 0x40 DUP3 ADD MSTORE PUSH1 0x0 PUSH2 0x1130 PUSH2 0x140 DUP4 ADD DUP12 PUSH2 0xFAA JUMP JUMPDEST DUP3 DUP2 SUB PUSH1 0x60 DUP5 ADD MSTORE PUSH2 0x1142 DUP2 DUP12 PUSH2 0xFAA JUMP JUMPDEST SWAP1 POP DUP9 PUSH1 0x80 DUP5 ADD MSTORE DUP8 PUSH1 0xA0 DUP5 ADD MSTORE DUP7 PUSH1 0xC0 DUP5 ADD MSTORE DUP6 ISZERO ISZERO PUSH1 0xE0 DUP5 ADD MSTORE DUP3 DUP2 SUB PUSH2 0x100 DUP5 ADD MSTORE PUSH2 0x1171 DUP2 DUP7 PUSH2 0xFAA JUMP JUMPDEST SWAP2 POP POP DUP3 PUSH2 0x120 DUP4 ADD MSTORE SWAP12 SWAP11 POP POP POP POP POP POP POP POP POP POP POP JUMP JUMPDEST PUSH1 0x0 DUP1 PUSH1 0x0 PUSH1 0x60 DUP5 DUP7 SUB SLT ISZERO PUSH2 0x119F JUMPI PUSH1 0x0 DUP1 REVERT JUMPDEST DUP4 CALLDATALOAD SWAP3 POP PUSH1 0x20 DUP5 ADD CALLDATALOAD SWAP2 POP PUSH1 0x40 DUP5 ADD CALLDATALOAD PUSH8 0xFFFFFFFFFFFFFFFF DUP2 GT ISZERO PUSH2 0x10F0 JUMPI PUSH1 0x0 DUP1 REVERT JUMPDEST PUSH1 0x0 PUSH1 0x20 DUP3 DUP5 SUB SLT ISZERO PUSH2 0x11D6 JUMPI PUSH1 0x0 DUP1 REVERT JUMPDEST PUSH2 0x11DF DUP3 PUSH2 0x104E JUMP JUMPDEST SWAP4 SWAP3 POP POP POP JUMP JUMPDEST PUSH1 0x0 PUSH1 0x20 DUP3 DUP5 SUB SLT ISZERO PUSH2 0x11F8 JUMPI PUSH1 0x0 DUP1 REVERT JUMPDEST DUP2 MLOAD DUP1 ISZERO ISZERO DUP2 EQ PUSH2 0x11DF JUMPI PUSH1 0x0 DUP1 REVERT JUMPDEST PUSH4 0x4E487B71 PUSH1 0xE0 SHL PUSH1 0x0 MSTORE PUSH1 0x11 PUSH1 0x4 MSTORE PUSH1 0x24 PUSH1 0x0 REVERT JUMPDEST PUSH1 0x0 PUSH1 0x1 DUP3 ADD PUSH2 0x1230 JUMPI PUSH2 0x1230 PUSH2 0x1208 JUMP JUMPDEST POP PUSH1 0x1 ADD SWAP1 JUMP JUMPDEST DUP1 DUP3 ADD DUP1 DUP3 GT ISZERO PUSH2 0x124A JUMPI PUSH2 0x124A PUSH2 0x1208 JUMP JUMPDEST SWAP3 SWAP2 POP POP JUMP JUMPDEST PUSH1 0x1 DUP2 DUP2 SHR SWAP1 DUP3 AND DUP1 PUSH2 0x1264 JUMPI PUSH1 0x7F DUP3 AND SWAP2 POP JUMPDEST PUSH1 0x20 DUP3 LT DUP2 SUB PUSH2 0x1284 JUMPI PUSH4 0x4E487B71 PUSH1 0xE0 SHL PUSH1 0x0 MSTORE PUSH1 0x22 PUSH1 0x4 MSTORE PUSH1 0x24 PUSH1 0x0 REVERT JUMPDEST POP SWAP2 SWAP1 POP JUMP JUMPDEST PUSH1 0x1F DUP3 GT ISZERO PUSH2 0x12D4 JUMPI DUP1 PUSH1 0x0 MSTORE PUSH1 0x20 PUSH1 0x0 KECCAK256 PUSH1 0x1F DUP5 ADD PUSH1 0x5 SHR DUP2 ADD PUSH1 0x20 DUP6 LT ISZERO PUSH2 0x12B1 JUMPI POP DUP1 JUMPDEST PUSH1 0x1F DUP5 ADD PUSH1 0x5 SHR DUP3 ADD SWAP2 POP JUMPDEST DUP2 DUP2 LT ISZERO PUSH2 0x12D1 JUMPI PUSH1 0x0 DUP2 SSTORE PUSH1 0x1 ADD PUSH2 0x12BD JUMP JUMPDEST POP POP JUMPDEST POP POP POP JUMP JUMPDEST DUP2 MLOAD PUSH8 0xFFFFFFFFFFFFFFFF DUP2 GT ISZERO PUSH2 0x12F3 JUMPI PUSH2 0x12F3 PUSH2 0xE44 JUMP JUMPDEST PUSH2 0x1307 DUP2 PUSH2 0x1301 DUP5 SLOAD PUSH2 0x1250 JUMP JUMPDEST DUP5 PUSH2 0x128A JUMP JUMPDEST PUSH1 0x20 PUSH1 0x1F DUP3 GT PUSH1 0x1 DUP2 EQ PUSH2 0x133B JUMPI PUSH1 0x0 DUP4 ISZERO PUSH2 0x1323 JUMPI POP DUP5 DUP3 ADD MLOAD JUMPDEST PUSH1 0x0 NOT PUSH1 0x3 DUP6 SWAP1 SHL SHR NOT AND PUSH1 0x1 DUP5 SWAP1 SHL OR DUP5 SSTORE PUSH2 0x12D1 JUMP JUMPDEST PUSH1 0x0 DUP5 DUP2 MSTORE PUSH1 0x20 DUP2 KECCAK256 PUSH1 0x1F NOT DUP6 AND SWAP2 JUMPDEST DUP3 DUP2 LT ISZERO PUSH2 0x136B JUMPI DUP8 DUP6 ADD MLOAD DUP3 SSTORE PUSH1 0x20 SWAP5 DUP6 ADD SWAP5 PUSH1 0x1 SWAP1 SWAP3 ADD SWAP2 ADD PUSH2 0x134B JUMP JUMPDEST POP DUP5 DUP3 LT ISZERO PUSH2 0x1389 JUMPI DUP7 DUP5 ADD MLOAD PUSH1 0x0 NOT PUSH1 0x3 DUP8 SWAP1 SHL PUSH1 0xF8 AND SHR NOT AND DUP2 SSTORE JUMPDEST POP POP POP POP PUSH1 0x1 SWAP1 DUP2 SHL ADD SWAP1 SSTORE POP JUMP JUMPDEST PUSH1 0x1 PUSH1 0x1 PUSH1 0xA0 SHL SUB DUP4 AND DUP2 MSTORE PUSH1 0x40 PUSH1 0x20 DUP3 ADD MSTORE PUSH1 0x0 PUSH2 0x13BA PUSH1 0x40 DUP4 ADD DUP5 PUSH2 0xFAA JUMP JUMPDEST SWAP5 SWAP4 POP POP POP POP JUMP JUMPDEST PUSH4 0x4E487B71 PUSH1 0xE0 SHL PUSH1 0x0 MSTORE PUSH1 0x32 PUSH1 0x4 MSTORE PUSH1 0x24 PUSH1 0x0 REVERT JUMPDEST DUP2 DUP2 SUB DUP2 DUP2 GT ISZERO PUSH2 0x124A JUMPI PUSH2 0x124A PUSH2 0x1208 JUMP JUMPDEST DUP1 DUP3 MUL DUP2 ISZERO DUP3 DUP3 DIV DUP5 EQ OR PUSH2 0x124A JUMPI PUSH2 0x124A PUSH2 0x1208 JUMP JUMPDEST PUSH1 0x0 DUP3 PUSH2 0x141F JUMPI PUSH4 0x4E487B71 PUSH1 0xE0 SHL PUSH1 0x0 MSTORE PUSH1 0x12 PUSH1 0x4 MSTORE PUSH1 0x24 PUSH1 0x0 REVERT JUMPDEST POP DIV SWAP1 JUMP INVALID LOG2 PUSH5 0x6970667358 0x22 SLT KECCAK256 0xD EQ OR JUMPDEST SWAP14 BALANCE 0xED 0xAC 0xA5 ORIGIN 0xC4 0x4C 0xD9 0xAF DIV 0xE6 PUSH1 0xC3 0xBC NUMBER TSTORE CALLER STOP MSIZE 0x28 0x2E 0xB6 SWAP12 PUSH20 0x3C400764736F6C634300081A0033000000000000 "},"methodIdentifiers":{"addressToPolicy(address,uint256)":"bb1e110d","calculatePremium(uint256,uint256,string)":"e0062179","claimPolicy(uint256,string,string)":"beac7cc4","claims(uint256)":"a888c2cd","createPolicy(string,uint256,string,uint256,string)":"6ba357e5","insurancePool()":"ab2adc00","nextClaimId()":"a0021cf1","nextPolicyId()":"cad0b8db","owner()":"8da5cb5b","policies(uint256)":"d3e89483","purchasePolicy(uint256)":"c1260c9a","renounceOwnership()":"715018a6","safeToken()":"4b3fd05a","transferOwnership(address)":"f2fde38b","verifyClaim(uint256)":"c0d7e2b6"}}}}}